:020000040800F2
:1000000018040020C9000008FB000008FD000008DB
:10001000FF000008010100080301000800000000C3
:1000200000000000000000000000000005010008C2
:10003000070100080000000009010008CD050008C4
:100040000D0100080D0100080D0100080D01000858
:100050000D0100080D0100080D0100080D01000848
:100060000D0100080D0100080D0100080D01000838
:100070000D0100080D0100080D0100080D01000828
:100080000D0100080D0100080D0100080D01000818
:100090000D0100080D0100080D0100080D01000808
:1000A0000D0100080D0100080D0100080D010008F8
:1000B0000D0100080348854600F056F80048004747
:1000C000ED08000818040020114880F30888114842
:1000D0000168090E104A9142FFD110481049016091
:1000E00010481149016011480F4901600B4810493F
:1000F00001601048804710480047FEE7FEE7FEE732
:10010000FEE7FEE7FEE7FEE7FEE7FEE7FEE70000AC
:1001100018040020040000001F0000001C10024012
:100120000000000418680040120000001C68004035
:1001300000000000D5050008B500000830B50B46EA
:10014000014600202022012409E00D46D5409D42B1
:1001500005D31D469540491B254695404019154637
:10016000521E002DF1DC30BD064C0125064E05E087
:10017000E36807CC2B430C3C98471034B442F7D3C8
:10018000FFF79CFF2809000848090008FFB583B065
:100190000C46029400200190002726E000261CE077
:1001A000721C039951430846791CFFF7C7FF0546A7
:1001B000A54201D9281B00E0601B05460298A84211
:1001C00004D90295059806700698077002980028D1
:1001D00002D10120019002E0761C402EE0D300BF46
:1001E0000198002800D002E07F1C042FD6D300BF66
:1001F000029807B0F0BDFCB5024600250026019626
:100200000020002300240096CE7835072D0FCE78ED
:1002100010273E40002E01D08E7835430E78002EF8
:1002200027D01468002021E00126864033460E883E
:100230001E400196019E9E4217D183000F269E40CC
:1002400000962746009EB7433C462E469E403443C8
:10025000CE78282E03D101268640566105E0CE785F
:10026000482E02D1012686401661401C0828DBD3A7
:1002700014600E88FF2E2CDD5468002026E0064610
:1002800008360127B7403B460E881E400196019E66
:100290009E421AD183000F269E4000962746009E5C
:1002A000B7433C462E469E403443CE78282E04D198
:1002B000064608360127B7405761CE78482E04D14C
:1002C000064608360127B7401761401C0828D6D3D8
:1002D0005460FCBDF0B5002300244D07EE0E15461A
:1002E000B5402B46CD10002D0BD1056A4E07F70EF9
:1002F0000F26BE40B5430562056A1D432C460462C5
:100300000AE0456A4E07F70E0F26BE40B543456228
:10031000456A1D432C464462F0BD000010B57D21A6
:10032000C90010480068FFF709FF0446601E0E4927
:10033000884201D901200CE0601E0C49486103216C
:10034000081F00F015F8002008498861072008619F
:100350000020002801D000BFFEE70021481E00F069
:1003600007F810BD00000020FFFFFF0000E000E0E4
:1003700010B5002819DA1A4A03071B0F083B9B081F
:100380009B00D2588307DC0EFF23A3409A438B07C0
:100390001B0E8407E40EA3401A43114B0407240FDD
:1003A000083CA408A4001A5118E00E4A03231B02BB
:1003B000D21883089B00D2588307DC0EFF23A3408A
:1003C0009A438B071B0E8407E40EA3401A43054B88
:1003D000032424021B198408A4001A5110BD000034
:1003E0001CED00E000E100E010B50121014800F043
:1003F00031F910BD002C0140002905D0054A526991
:100400000243044B5A6104E0024A52698243014BA1
:100410005A61704700100240002905D0054A9269D0
:100420000243044B9A6104E0024A92698243014B01
:100430009A6170470010024010B500F001F810BD3D
:100440007FB50020039002905948006801210904FB
:1004500008435749086000BF554800680121490416
:10046000084002900398401C03900298002804D191
:100470000521090203988842EED14D480068012108
:1004800049040840002809D0012002907D25ED0094
:1004900000BF28466D1E0028FBD101E0002002901D
:1004A000029801287ED143484349086043480068C8
:1004B000102108434149086008460068C008C00090
:1004C00008603D490968481E3D49FFF737FE04466C
:1004D0003A48006820433949086035484068344943
:1004E000486008464068486033480068354988429B
:1004F00007D92F4840680121890208432C494860E8
:1005000006E02B48406801218902084328494860D9
:100510002748406803210904884325494860084664
:1005200000680003000B08600846406801210904C8
:1005300008431F4948606B4601AA1F4801682248CA
:10054000FFF724FE1A4800680003000B18490860F2
:10055000694608798006097809050843144909683D
:10056000084313490860084600680121090608434A
:100570000F49086000BF0E48006801214906084085
:100580000028F8D00A484068800880000849486080
:1005900008464068022108430549486000BF0448F6
:1005A000406800E003E00C2108400828F7D17FBD37
:1005B0000010024000D8B8050000002000200240D2
:1005C00000366E010051250200127A0010B500F0CD
:1005D00001F910BD10B51548006801210843134901
:1005E00008600846406812490840104948600846BB
:1005F0000068104908400D4908600846006801215C
:100600008904884309490860084640687F21090435
:10061000884306494860084600680003000B0860EC
:100620009F2000048860FFF707FF10BD0010024004
:100630000000FFF0FFFFF6FE002904D002688023CF
:100640001A43026003E00268014B1A4002607047DF
:100650007FFF0000002904D0026801231A430260D2
:1006600003E00268014B1A4002607047FEFF000081
:10067000002905D0426C0123DB031A43426403E0E6
:10068000426C5204520C42647047000070B5002462
:1006900000220023056A1D4E35400562056AAAB294
:1006A0004568ABB28569ACB2184D6F3D2C40B51EA4
:1006B0002C400D882C43751E2A400D892A434D88F5
:1006C0002A43134DA84208D0124DA84205D0124D1E
:1006D000A84202D0114DA84212D10C4DED1F2A4064
:1006E0004D892A43094DED1E2A408D882A43074D26
:1006F000FF3D2B400A4D2B408D892B43CD892B4349
:1007000043608461CD884563026270BDFEFF0000D6
:10071000002C014000440140004801400008014015
:10072000FFFD00000A460021836999B2034B19407E
:100730000B4613431946816170470000F7FF000024
:1007400041637047002203689AB2164B984209D061
:1007500001239B07984205D0134B984202D0134BBC
:10076000984204D1124B1A408B8813439AB2114B12
:100770001A408B8913439AB202608B68C3620B687C
:100780008362084B984208D0084B984205D00A4B28
:10079000984202D0094B984201D10B7C036301239C
:1007A00043617047002C01400004004000080140F4
:1007B0008FFF0000FFFC00000044014000480140A2
:1007C0000349816000210160C1604160017470478C
:1007D000FFFF000004480068002804D002480068B9
:1007E000401E0149086070471400002002E008C85C
:1007F000121F08C1002AFAD170477047002001E09B
:1008000001C1121F002AFBD1704700000349086094
:1008100000BF024909680029FBD17047140000207D
:1008200008B5012103204004FFF7E6FD022208215C
:100830000920C006FFF74EFD02220D210C48FFF7EC
:1008400049FDFF2101316846018003218170182193
:10085000C17069460920C006FFF7CDFC012149039C
:100860006846018069460248FFF7C5FC08BD0000E4
:100870000004004870B58AB004460D4616460121B2
:10088000C802FFF7C9FD05A8FFF79AFF0795059471
:10089000002008900690002108A8017105A91248BF
:1008A000FFF750FF6021684681800121C18004214B
:1008B0000181468100218181C181FF2101310182B5
:1008C0000021418201A90848FFF7E0FE08210648FF
:1008D000FFF728FF01210448FFF7AEFE012102487F
:1008E000FFF7C6FE0AB070BD002C0140FFF716FDF1
:1008F000FFF796FF00220A495F20FFF7BBFFFFF7D3
:1009000073FDE12189000748FFF71AFF7D200001F0
:10091000FFF77CFF00210348FFF7AAFE00BFFEE7B8
:10092000E7030000002C01404809000800000020F7
:1009300018000000EC0700086009000818000020FB
:1009400000040000FC07000800D8B8050000000003
:10095000000000000102030406070809000000006F
:04000005080000B53A
:00000001FF
