:020000040800F2
:1000000038080020C9000008FB000008FD000008B7
:10001000FF000008010100080301000800000000C3
:1000200000000000000000000000000005010008C2
:100030000701000800000000090100089D140008E5
:10004000C91500080D0100080D0100080D01000888
:100050000D0100080D0100080D0100080D01000848
:100060000D010008090C00080D0100080D01000831
:100070000D0100080D0100080D0100080D01000828
:100080000D0100080D0100080D0100080D01000818
:100090000D0100080D0100080D0100080D01000808
:1000A0000D0100080D0100080D01000821150008D0
:1000B0000D0100080348854600F00CFC004800478D
:1000C000711F000838080020114880F30888114883
:1000D0000168090E104A9142FFD110481049016091
:1000E00010481149016011480F4901600B4810493F
:1000F00001601048804710480047FEE7FEE7FEE732
:10010000FEE7FEE7FEE7FEE7FEE7FEE7FEE70000AC
:1001100038080020040000001F0000001C100240EE
:100120000000000418680040120000001C68004035
:1001300000000000A5140008B500000830B50B460B
:10014000014600202022012409E00D46D5409D42B1
:1001500005D31D469540491B254695404019154637
:10016000521E002DF1DC30BDF8B502464A40D40FD6
:1001700042004B0052085B089A4202D202460846EF
:1001800011464A0023D0C30D4A00DDB2120EAD1A4B
:10019000202D35DA49020126490AF6058A19002C74
:1001A00000D0524220214F1B1146B9402A4110185D
:1001B000C20D9A4221D0002C17D0012D08DCDA059F
:1001C000801AD20F8019D207DBB200F08CF9F8BD8B
:1001D000DA05801A012340001B06C01880185A4215
:1001E0008018CA0F1043490007E04908C2071143AD
:1001F000DA05801A80194008801800F06CF9F8BD03
:1002000061000122511A001BF7E70122D207514079
:10021000AAE70122D2075040A6E7024670B54A403D
:10022000D30FDB0740002DD04A002AD0010E140E58
:10023000000212020919400A520A8418E501044614
:100240005443000A120A2E045043A4194219200CE8
:10025000C543AA18120C0125AD03521C52191204F1
:100260007F39240400D0521C104301D44000491EA1
:10027000C2B20C06C0092018401C4008802A02D0D7
:1002800003E0002070BD40084000002900DA002093
:10029000184370BD70B502464A40D50F40004A0071
:1002A000ED0740085208002814D0002A12D0C40DCF
:1002B000D30D41020120C0055202490A520AE41A34
:1002C000091812187D34914201D3641C00E04900E2
:1002D000002C01DA002070BD0023914201D3891A5D
:1002E0000343400849000028F7D100290AD0914271
:1002F00002D10121C90705E0914201D2012101E0AB
:100300000121C943E005C018401900F0E4F870BDB0
:10031000F0B51FB488B00B9909980024484009999A
:10032000C00F490049080991C0070B990090490086
:1003300049080B9109990898A64608431CD00B99C7
:100340000A98084318D0099801244000420D48003B
:10035000410D099824050003000B204309900B98D8
:100360000003000B20430B9050181C49401800223A
:1003700001901446104605E0002001460DB0F0BD86
:10038000032801DA034600E003239C46C11A0AAEA3
:100390000AE05F0008ADED5B4F00F75B7D4300278F
:1003A000AA187C41491C5B1E6145F2DD410004AB8B
:1003B0005A522104120C0A43240C401C0828DFDB8B
:1003C000019802900099704601910090059B049A53
:1003D0000799069800F0CDF8D0E700000DFCFFFF6C
:1003E00010B500229623114600F07DF810BD4100A3
:1003F00040020122400AD205090E80187F2901DA45
:1004000000207047962903DC9622511AC840704795
:10041000963988407047C20FD207400040080BD081
:10042000C10D0723DB01C91840020905400A114329
:10043000C208400711437047002001467047CB0FA8
:10044000DB07490010B5490802460A4307D00A0DE8
:1004500007240903E401090B121B002A01DC002018
:1004600010BDC900440F0C43C100E018D20580182C
:1004700000F031F810BDF0B51FB40646002082B080
:1004800005464024019100901BE0019922460F4649
:10049000304600F041FA049A059B801A994110D326
:1004A00010461946224600F027FA361A8F41019766
:1004B000224601200021009F00F01EFA38184D410D
:1004C00000902046641E0028DFDC019B009829462E
:1004D000324607B0F0BD002904DA401C490001D1C2
:1004E00040084000704770B40024050C05D110246A
:1004F000000402D1002921D01124050E01D10002EF
:100500000834050F01D10001241D850F01D18000A1
:10051000A41C002801DB4000641C002908D0202511
:100520002E1B0D46F540A14000D001212943084370
:1005300001061B1B000ADB1D02D5002070BC7047A2
:10054000DB05181880180029F8DA401C4900F5D19D
:1005500070BC40084000704710B5002B08DA00243A
:10056000401C614192185B411A4301D14008400090
:1005700010BDF0B51FB482B005460C0003D008468C
:1005800001F04AF802E001F047F8203002460090FE
:100590002146284600F0B0F9049B059A04460F4610
:1005A00018431143084314D0184610431BD0009839
:1005B00040210A1A1846059900F0AEF905460E4684
:1005C000009A0599049800F097F9084305D0012096
:1005D00004E02046394607B0F0BD0020C1170543AE
:1005E0000E432C43374300990E986305401A790552
:1005F000E40A00220C43FD0A0A3002D5002001461D
:10060000E9E70105101969410C9C0D9D001969412C
:10061000FFF7A2FFDFE70000F0B5074608465840A5
:1006200087B0C00F049048000E46590040084908A2
:10063000BC1A884105D2384631461E4617460B463D
:1006400002465800400810434CD0300D039040053E
:100650005900400D490D0590401A0290402872DA69
:1006600018030121000B090508430190049800922A
:10067000002805D001995242002088410092019043
:10068000029840210A1A0199009800F035F90546B0
:100690000C466B4607CB00F050F9C0197141039A24
:1006A0000E0D0023D71756401A467A40164344D001
:1006B000049A002A2DD0029A012A039A15DC120509
:1006C000C01A914101263605001C7141D20F059ECA
:1006D000D2070093019202962A462346FFF749FF6C
:1006E00007B0F0BD38463146FAE71605224A0F46F4
:1006F000B218C01AB74101210905001C4F4100186A
:100700007F41114618187941E20F10436D19644179
:1007100013E0E2076D0815436408C2071443039A07
:1007200001261205C01A91413605001C7141CE0701
:10073000400830434908C01851412A462346FFF774
:100740000BFFCDE7FFE7049801224000C117121A02
:1007500000238B4104983146C417381AA141EEE7B3
:1007600030B40124E407634030BC55E730B40124C1
:10077000E407614030BC4FE70000E0FFF0B50C46F5
:100780005C4085B0E40FE40703944C000026640845
:1007900059009446490802460296224321D06246F7
:1007A0000A431ED06200570D4A000E032303550D65
:1007B000012402462C492405781B1B0B360B4018DC
:1007C00023432643614600901C46501AB44103D38C
:1007D0000098401C009002E0921800985B410028AD
:1007E00003DA0020014605B0F0BD00200121090513
:1007F0000746864611E064461D46141BB54106D3E4
:100800006546521BB341744607430C43A646CD07C9
:1008100040084908284392185B4105460D43EAD138
:100820001046184313D060461946504071400843A3
:1008300006D06046101AB34106D20122002306E01A
:1008400000220123DB0702E00122D243531000986B
:1008500074460105381C6141029C039D00196941E1
:10086000FFF77AFEBFE70000FD0300004A0009031E
:100870000123090B1B0519430A4B10B5520D9A426F
:1008800002DA0020014610BD064B34339A4203DCE5
:100890009A1A00F041F810BD034BD21800F02CF862
:1008A00010BD0000FF030000CDFBFFFF10B50029C5
:1008B00004DB0124E40740428C412146002B04DB89
:1008C0001C460123DB075242A341994200D19042CA
:1008D00010BD0000064C0125064E05E0E36807CC7C
:1008E0002B430C3C98471034B442F7D3FFF7E6FB98
:1008F000D4280008F428000810B5202A04DB01469B
:10090000203A9140002010BD914020239C1A0346BC
:10091000E3401943904010BD10B5202A04DB08467F
:10092000203AD040002110BD0B46D340D0402024B7
:10093000A21A91400843194610BD10B5202A06DBC3
:10094000CB170846203A1041C1170B4306E00B466F
:100950001341D0402024A21A91400843194610BDEB
:1009600070B58C180578401C6B075B0F01D10378BC
:10097000401C2A1106D10278401C03E006780E7054
:10098000401C491C5B1EF9D12B0705D40023521EC5
:100990000DD40B70491CFAE70378401CCB1A921C4B
:1009A00003E01D780D70491C5B1C521EF9D5A14255
:1009B000D8D3002070BD38B505460C460121480447
:1009C00000F082FC68460480032181700021C17020
:1009D0006946284600F0FAF938BD000010B586B027
:1009E00004460121480200F07FFC684600F08EF8C2
:1009F00000200090702001900120800202900020D1
:100A00000590049069460F4800F036F8072300224D
:100A100021460C4800F048F80E2C03D1012000F0CC
:100A20007DF804E00F2C02D1012000F097F801219D
:100A3000044800F015F80121024800F005F806B05E
:100A400010BD000000240140002904D042680123A9
:100A50001A43426003E04268520852004260704705
:100A6000002904D0826808231A43826003E0826868
:100A700008239A438260704710B5024600205068F0
:100A8000C00BC0030C684B68234318435060906848
:100A9000044B18400C694B6923438C68234318436B
:100AA000906010BD800000FF70B5144600224268BF
:100AB0000F26B6021546B5432A469D022A434260D8
:100AC000202905DAC56801268E403543C5600CE053
:100AD000FF2904D1C568054E3543C56005E0FA29F4
:100AE00003D1C5682D0C2D04C56070BDFFCF00007B
:100AF000002905D08268FF2301331A43826004E095
:100B00008268FF2301339A4382607047002141606D
:100B100081600161416101607047000000280DD0D3
:100B20000D494968042211430B4A51601146C968B6
:100B3000012292031143084AD1600CE0064949683A
:100B400004229143044A51601146C968012292036C
:100B50009143014AD16070470024014000280DD024
:100B60000D494968082211430B4A51601146C96872
:100B70000122D2031143084AD1600CE006494968BA
:100B800008229143044A51601146C9680122D203E8
:100B90009143014AD160704700240140FFB583B002
:100BA0000C46029400200190002726E000261CE05D
:100BB000721C039951430846791CFFF7BFFA05469A
:100BC000A54201D9281B00E0601B05460298A842F7
:100BD00004D90295059806700698077002980028B7
:100BE00002D10120019002E0761C402EE0D300BF2C
:100BF0000198002800D002E07F1C042FD6D300BF4C
:100C0000029807B0F0BD000010B500210648FFF7BC
:100C10006FFF022000F00EF81021044800F0EEF9FA
:100C200001200349087010BD00240140000800485D
:100C300004040020014948607047000000000240A1
:100C4000002904D0026801231A43026003E002680D
:100C5000520852000260704701684908490001606B
:100C60000021016041608160C1602149884208D152
:100C70001F49083949680F2211431D4A083A51603B
:100C800035E01B491431884208D1194908394968AF
:100C9000F0221143164A083A516028E014492831DD
:100CA000884209D11249083949680F2212021143BA
:100CB0000F4A083A51601AE00D493C31884209D187
:100CC0000B49083949680F2212031143084A083AB0
:100CD00051600CE006495031884208D10449083976
:100CE00049680F2212041143014A083A51607047C3
:100CF0000800024010B5002202680D4B1A400C6A31
:100D00008B6823430C6923434C6923438C69234339
:100D1000CC6923434C6A23438C6A23431A43026001
:100D2000CB6843600B6883604B68C36010BD0000F4
:100D30000F80FFFF00B58DB01848FFF78DFF012130
:100D4000084600F0C1FA16480290164803900020A9
:100D50000490142005900020069080200790400009
:100D600008908000099020200A9000020B9000203B
:100D70000C9002A90948FFF7BDFF092168460171DF
:100D8000002141710121817101A800F065F9012163
:100D90000248FFF755FF0DB000BD000008000240FB
:100DA0000024014010040020002106E0064900BF95
:100DB0000A464B1E99B2002AFAD10246431E98B247
:100DC000002AF3D170470000FFAF0000FCB50246D7
:100DD0000025002601960020002300240096CE78EE
:100DE00035072D0FCE7810273E40002E01D08E788B
:100DF00035430E78002E27D01468002021E001260C
:100E0000864033460E881E400196019E9E4217D1B1
:100E100083000F269E4000962746009EB7433C461F
:100E20002E469E403443CE78282E03D1012686409C
:100E3000566105E0CE78482E02D101268640166123
:100E4000401C0828DBD314600E88FF2E2CDD54686C
:100E5000002026E0064608360127B7403B460E88AC
:100E60001E400196019E9E421AD183000F269E408D
:100E700000962746009EB7433C462E469E4034438C
:100E8000CE78282E04D1064608360127B740576190
:100E9000CE78482E04D1064608360127B7401761A0
:100EA000401C0828D6D35460FCBD000008B50121C1
:100EB000C80400F009FA0F21890168460180032166
:100EC00081701021C17069464B48FFF77FFF0F21E9
:100ED0008901494800F094F8FF210131464800F0AB
:100EE0008FF81420FFF760FFFF210131424800F026
:100EF00085F81420FFF758FFFF2101313E4800F02C
:100F00007FF80021AE2000F0A9F90021084600F08A
:100F1000A5F90021102000F0A1F90021402000F0E7
:100F20009DF90021812000F099F90021CF2000F0E7
:100F300095F90021A12000F091F90021C82000F0CE
:100F40008DF90021A62000F089F90021A82000F0E9
:100F500085F900213F2000F081F90021D32000F025
:100F60007DF90021084600F079F90021D52000F034
:100F700075F90021802000F071F90021D92000F0DE
:100F80006DF90021F12000F069F90021DA2000F06C
:100F900065F90021122000F061F90021DB2000F04A
:100FA0005DF90021402000F059F90021202000F0D7
:100FB00055F90021022000F051F900218D2000F0A8
:100FC0004DF90021142000F049F90021A42000F07F
:100FD00045F90021A62000F041F90021AF2000F0E2
:100FE0003DF90021AF2000F039F900F0A9F8002107
:100FF000084600F0C5F808BD000800484161704788
:101000000161704710B57D21C90010480068FFF7E5
:1010100095F80446601E0E49884201D901200CE073
:10102000601E0C4948610321081F00F04DF80020A4
:1010300008498861072008610020002801D000BF0E
:10104000FEE70021481E00F03FF810BD0000002020
:10105000FFFFFF0000E000E000218278002A27D097
:10106000184A03231B02D21803789B109B00D15807
:1010700002789207D30EFF229A400B4693431946FB
:1010800042789207120E03789B07DB0E9A401143B9
:101090000C4A03231B02D21803789B109B00D150EB
:1010A0000278D306DB0E01229A40064B1A6007E055
:1010B0000278D306DB0E01229A40024B80331A607D
:1010C0007047000000E100E010B5002819DA1A4A64
:1010D00003071B0F083B9B089B00D2588307DC0EBD
:1010E000FF23A3409A438B071B0E8407E40EA34003
:1010F0001A43114B0407240F083CA408A4001A51FA
:1011000018E00E4A03231B02D21883089B00D25812
:101110008307DC0EFF23A3409A438B071B0E840733
:10112000E40EA3401A43054B032424021B19840830
:10113000A4001A5110BD00001CED00E000E100E029
:1011400070B5002419E02146B031C8B2002100F08A
:1011500085F80021084600F081F80021102000F0F9
:101160007DF8002505E00121002000F077F8681CDB
:10117000C5B2802DF7DB601CC4B2082CE3DB70BD68
:1011800070B504460D462946B031C8B2002100F0C2
:1011900065F8F0212140091108461030002100F0C7
:1011A0005DF82107090F012211430846002100F0D4
:1011B00055F870BDF8B506460D461746002000905C
:1011C000002438462038C0B200907F2E02DD002671
:1011D000A81CC5B229463046FFF7D2FF002409E01B
:1011E0000099090109190F4A505C012100F036F8F5
:1011F000601CC4B2082CF3DB681CC1B23046FFF798
:10120000BFFF00240AE00099090109190831054AC5
:10121000505C012100F022F8601CC4B2082CF2DB03
:10122000F8BD0000E3220008F8B504460F46154655
:1012300000260EE0AA5D39462046FFF7BBFF204698
:101240000830C4B2782C02DD0024B81CC7B2701C70
:10125000C6B2A85D0028EDD1F8BD000070B5044607
:101260000E46002E05D0012149021648FFF7C8FEA0
:1012700004E0012149021348FFF7C0FE002518E0F1
:1012800040211048FFF7BAFE80202040002804D0FB
:1012900080210C48FFF7B4FE03E080210948FFF7E6
:1012A000ADFE40210748FFF7ABFE6006040E681C48
:1012B000C5B2082DE4DB012149020248FFF7A0FE78
:1012C00070BD000000080048002905D0054A526999
:1012D0000243044B5A6104E0024A52698243014BC3
:1012E0005A61704700100240002905D0054A9269F2
:1012F0000243044B9A6104E0024A92698243014B23
:101300009A6170470010024010B500F001F810BD5E
:101310007FB500200390029059480068012109041C
:1013200008435749086000BF554800680121490437
:10133000084002900398401C03900298002804D1B2
:101340000521090203988842EED14D480068012129
:1013500049040840002809D0012002907D25ED00B5
:1013600000BF28466D1E0028FBD101E0002002903E
:10137000029801287ED143484349086043480068E9
:10138000102108434149086008460068C008C000B1
:1013900008603D490968481E3D49FEF7CFFE0446F6
:1013A0003A48006820433949086035484068344964
:1013B00048600846406848603348006835498842BC
:1013C00007D92F4840680121890208432C49486009
:1013D00006E02B48406801218902084328494860FB
:1013E0002748406803210904884325494860084686
:1013F00000680003000B08600846406801210904EA
:1014000008431F4948606B4601AA1F4801682248EB
:10141000FFF7C4FB1A4800680003000B1849086076
:10142000694608798006097809050843144909685E
:10143000084313490860084600680121090608436B
:101440000F49086000BF0E480068012149060840A6
:101450000028F8D00A4840688008800008494860A1
:1014600008464068022108430549486000BF044817
:10147000406800E003E00C2108400828F7D17FBD58
:101480000010024000D8B8050000002000200240F3
:1014900000366E010051250200127A0010B500F0EE
:1014A00033F810BD10B515480068012108431349F1
:1014B00008600846406812490840104948600846DC
:1014C0000068104908400D4908600846006801217D
:1014D0008904884309490860084640687F21090457
:1014E000884306494860084600680003000B08600E
:1014F0009F2000048860FFF707FF10BD0010024026
:101500000000FFF0FFFFF6FE04480068002804D04A
:1015100002480068401E0149086070470C04002022
:1015200010B50221184800F035F801282AD11648D4
:1015300000F03AF81549164A127888541448007891
:10154000401C1349087008460078401E0F49085C8B
:10155000FF2810D108460078FE2808D10C480178F1
:101560000A4800F0E5FC0020094908700AE0002064
:101570000749087006E006480078062802D10020D6
:101580000349087010BD0000003801400504002028
:101590000B04002002460020D3680B40002B01D032
:1015A000012000E00020704701464868C0B2704743
:1015B0000020014988607047002C00400148806885
:1015C000C0B27047002C004010B5FFF7F7FF0128AC
:1015D00004D17E2000F004F8FFF7EAFF10BD000000
:1015E0004106490E014A116070470000002C00407E
:1015F0000FB410B504A9074B02AA039800F0ECF849
:10160000044602A9002000F083FC204610BC08BC60
:1016100004B01847111F00082021020C01D010212E
:101620001046020A01D010460839020901D01046BE
:10163000091F820801D01046891E420801D0881E69
:101640007047081A704702E008C8121F08C1002A34
:10165000FAD170477047002001E001C1121F002A33
:10166000FBD17047F0B51FB486B00998089A030DF6
:101670000021024314D05148514A18185043051410
:101680001198012810981AD0281A401C00264D4F96
:101690004D49009601910490002812DA444211E06D
:1016A0001198012449A3012801D11098C14306983B
:1016B000119A84600360C26041600BB0F0BD40428B
:1016C000E4E70446210500203F4A001C51410391F4
:1016D000029012E0E00707D032463B46019900989D
:1016E000FEF716FE0191009032463B461046194621
:1016F000FEF70EFE06460F466410002CEAD1049851
:10170000039B0028029A0999089806DAFEF700FE62
:10171000019B009AFEF7FCFD05E0FFF72FF8019B07
:10172000009AFFF72BF804460E460022284BFFF7DD
:10173000BDF803D80020C043014607E00022254B36
:1017400020463146FEF768FFFFF790F8102409E0C5
:10175000002C0ADB0A220023FEF78DFE079B3032A5
:101760001A55641E02460A43F2D11122641C079BDB
:10177000121B1C19119B012B03D0012308430ED10E
:101780000AE0084304D0112010900020119077E760
:101790001098151A6D1E0BE01098824202DD00238E
:1017A0006D1C03E0824201DA00236D1E002BEED097
:1017B000069811998260C16030C07EE701FCFFFF8E
:1017C000104D0000000014400000F03F3000000009
:1017D0000000F0430000E03FFFB597B0064600254B
:1017E00018E2252877D100242746FD49049400E01B
:1017F0000443761C32780120203A90400842F7D109
:1018000030782A280ED00222307801463039092952
:1018100016D804990A235943303940181443761CCA
:101820000490F1E7189802C804911890002904DA8E
:101830000120400304434842049002200443761CE4
:1018400030782E2814D1042004437078761C2A287E
:1018500009D11898761C80C8189009E00A214F43D6
:10186000303FC719761C3078014630390929F5D93F
:1018700030786C2810D006DC4C281AD068280ED09E
:101880006A2817D104E0742813D07A2812D110E006
:101890000120400504430CE00121090501E003217A
:1018A00009050C437178814203D1012000052418F9
:1018B000761C761C3078119066280BD013DC5828E3
:1018C0007DD009DC00287BD04528F6D04628F4D00E
:1018D00047281AD1A5E118E0632835D0642870D0D4
:1018E000652812D19DE170286CD008DC6728F1D002
:1018F00069287BD06E280DD06F2806D1BAE07328F6
:101900002ED0752871D0782859D01A9A19999047F5
:101910006D1C7EE16002400F022809D003280DD023
:101920000428189801680DD00D60001D189070E112
:101930001898EA1701680D604A60F6E71898016880
:101940000D80F2E70D70F0E718986A460178117281
:10195000001D18900020507202A80090012005E0A0
:10196000189802C8189000200091C04361070DD557
:10197000002101E00199491C0191B94212DA81422A
:10198000F8DB009A515C0029F4D10BE0002101E062
:101990000199491C01918142FADB019A0099895C05
:1019A0000029F5D1019904981A9B471A2146384617
:1019B000199A00F097FA0199401945180BE04FE089
:1019C0002CE113E04EE0009800990078491C00914A
:1019D0001A9A199990470198401E0190401CF2D123
:1019E000214638461A9B199A10E137E00A20002157
:1019F000009001916002410F022907D0189A01CA94
:101A00001892C2179446032908D00AE01898C01DFE
:101A1000C108C90005C91891944607E000B2C21771
:101A20009446042902D140B2C1178C460022614677
:101A3000944506DA0A460021404291418C462D2108
:101A400002E0210504D52B216A461173012103E030
:101A5000E10701D02021F7E7029155E00A200AE0D2
:101A6000102008E010200090002104200443019180
:101A7000082703E008200021019100906002410F37
:101A8000022907D0189A01CA189200229446032905
:101A900008D008E01898C01DC108C90005C91891F0
:101AA000944603E080B2042900D1C0B20021029123
:101AB000210729D51199702906D0009A1021019B80
:101AC0004A401A4305D00EE040216A4611730121B5
:101AD00008E06146014306D030216A46117311992E
:101AE000517302210291009A0821019B4A401A4336
:101AF0000AD16146014301D1610705D530216A460B
:101B0000117301217F1E02911199582904D035A12A
:101B10000E910DA90D910DE037A1F9E76146019BEA
:101B2000009AFEF7A8FC0E9B8C469B5C0D9A521EF9
:101B30000D92137061460143F0D10D9805A9081A62
:101B400020300190600703D501200004844300E0A9
:101B500001270198874201DD381A00E00020019931
:101B600000904118029809180498401A0490E00364
:101B700006D421461A9B199A049800F0B3F9451926
:101B8000002706E003A81A9AC05D199990476D1CBA
:101B90007F1C02988742F5DBE0030CD521461A9B97
:101BA000199A049800F09EF9451904E01A9A302019
:101BB000199990476D1C0099481E00900029F5DC8A
:101BC00008E00D980D990078491C0D911A9A199901
:101BD00090476D1C0199481E01900029F1DC63E1DA
:101BE00009280100303132333435363738396162F3
:101BF00063646566000000003031323334353637B7
:101C000038394142434445460000000000F05AF98B
:101C10004519761C3078002800D0E2E528461BB034
:101C2000F0BD600700D406271898C01DC108C90080
:101C300048680A680831C30FDB071891190001D002
:101C40009CA108E0210501D59BA104E0E10701D09A
:101C50009AA100E09AA1430011985B0810916528B1
:101C60000CD006DC452809D046281DD0472841D194
:101C700041E0662818D067283CD13CE00021112FB4
:101C800001DB112000E0781C0191009008A911A847
:101C9000FFF7E8FC139905910021119A15927F1C1A
:101CA00012980197009150E00120C0070390012095
:101CB000019008A9009711A8FFF7D4FC139A149972
:101CC00005920022119B009212981593059A019299
:101CD000002901D0104602E0791C40180190381A02
:101CE00001D5019804E04042401E0090781C01900C
:101CF000C01B029043E0012F00DA01270021112FC1
:101D000001DD112000E038460191009008A911A8DA
:101D1000FFF7A8FC13990591119A002112981592CA
:101D20000091019721070CD40599B94201DB019973
:101D300000E00191012904DD159A491E515C30290A
:101D400006D0B84201DA011D05DA0121029115E041
:101D50000199491EEDE7002805DC00994118009122
:101D60000199091A03E0019A411C914200DD019199
:101D70000099401A401C02900120C00703902007E0
:101D800006D402990198814202DB0020C0430290F0
:101D900000206946C87707AF012103980337C907B8
:101DA000884224D0022011902B2012900398002802
:101DB0000CDA404203902D20129007E00A2103988C
:101DC000FEF7BCF930317F1E039039701199481E1F
:101DD00011900029F2DC03980028EFD1791E1298A7
:101DE00008703078202108404530BF1E387006A8A2
:101DF000C01BC01D039010980078002800D001205F
:101E0000019941180298C0170918039809180498F5
:101E1000401A401E0490E00306D421461A9B199AEA
:101E2000049800F05FF8451910980078002803D056
:101E30001A9A199990476D1CE00324D521461A9BE4
:101E4000199A049800F04EF845191CE000980028F3
:101E500007DB00990598884203DD1598405C1999C5
:101E600001E0199930201A9A904700986D1C401C87
:101E700000900298401E0290002804D11A9A2E2049
:101E8000199990476D1C0199481E01900029DDDCCD
:101E900005E038781A9A7F1C199990476D1C0399B0
:101EA000481E03900029F4DC21461A9B199A0498D5
:101EB000ACE600002D0000002B0000002000000018
:101EC00000000000F8B5044600251E4617468804A9
:101ED00004D405E039462020B0476D1C641EF9D5B6
:101EE0002846F8BDFFB50446002581B01E46C8034C
:101EF00001D5302700E02027880404D505E03846C6
:101F00000399B0476D1C641EF9D5284605B0F0BD95
:101F10000A68531C0B60107070470000034908608A
:101F200000BF024909680029FBD170470C0400205A
:101F30007047000008B5012103208004FFF7C4F9B1
:101F4000102168460180012181701021C17069460D
:101F50000548FEF73BFF012189026846018069467A
:101F60000248FEF733FF08BD00080048000400489F
:101F70008CB0404B0FCB0A9307AB07C3FEF796FF1D
:101F8000FFF7DEF8FFF7DCF807AA00210846FFF7A5
:101F90004BF9FFF737F8FFF7CDFF10213648FFF771
:101FA0002FF8012189023548FFF72AF80020049014
:101FB000FEF7C0FE04210920C006FEF7FCFC02204B
:101FC000FEF70CFD01212E48FEF792FD50E00024A3
:101FD000002005E041002B4A515A0C19411CC8B29F
:101FE0001428F7DB0498FEF7FBF906462649FEF7AE
:101FF00014F902902046FEF7F3F924490090FEF709
:1020000049F906462249FEF708F901900299FEF7C0
:10201000ABF820490390FEF73DF90546FEF7E7F9D6
:1020200080B204900498FEF7DBF91B490090FEF79C
:1020300031F90190FEF7EFF90546184A184BFEF703
:1020400067F903910290FEF7FAF907463846FEF762
:10205000E2F905462A460B4612A105A8FFF7C8FA81
:1020600005AA00215220FFF7DFF86420FFF756FF92
:10207000ADE70000AC20000800080048000400485C
:10208000002401401004002000008C420000A04108
:102090000000F0410000C84200F07F4566666666B9
:1020A00066660A4025302E326600000054484520FE
:1020B00041442049533A00000000000000000000A5
:1020C000000000002F000000000700070000147F40
:1020D000147F1400242A7F2A12006264081323004C
:1020E000364955225000000503000000001C224123
:1020F00000000041221C000014083E0814000808DB
:102100003E0808000000A060000008080808080059
:102110000060600000002010080402003E514945A4
:102120003E0000427F40000042615149460021418B
:10213000454B31001814127F1000274545453900E2
:102140003C4A4949300001710905030036494949B3
:102150003600064949291E000036360000000056A8
:102160003600000008142241000014141414140056
:102170000041221408000201510906003249595158
:102180003E007C1211127C007F49494936003E41D5
:10219000414122007F4141221C007F4949494100C1
:1021A0007F09090901003E4149497A007F08080872
:1021B0007F0000417F4100002040413F01007F0837
:1021C000142241007F40404040007F020C027F000B
:1021D0007F0408107F003E4141413E007F0909090C
:1021E00006003E4151215E007F09192946004649FB
:1021F0004949310001017F0101003F4040403F005B
:102200001F2040201F003F4038403F006314081447
:102210006300070870080700615149454300007FCB
:1022200041410000552A552A55000041417F0000D8
:10223000040201020400404040404000000102044A
:1022400000002054545478007F48444438003844F7
:1022500044442000384444487F0038545454180003
:10226000087E0901020018A4A4A47C007F080404CD
:10227000780000447D4000004080847D00007F1095
:102280002844000000417F4000007C0418047800CE
:102290007C0804047800384444443800FC24242496
:1022A000180018242418FC007C0804040800485472
:1022B00054542000043F444020003C4040207C0017
:1022C0001C2040201C003C4030403C00442810288A
:1022D00044001CA0A0A07C004464544C441414147A
:1022E00014141400000000000000000000000000B2
:1022F000000000000000F800000000000000333083
:1023000000000000100C06100C0600000000000089
:1023100000000040C07840C0784000043F04043F03
:10232000040400007088FC08300000001820FF2121
:102330001E0000F008F000E018000000211C031E41
:10234000211E0000F00888700000001E21232419BF
:1023500027211010160E00000000000000000000F1
:10236000000000000000E018040200000000071850
:1023700020400000020418E0000000004020180780
:10238000000000404080F0804040000202010F0148
:10239000020200000000F0000000000101011F0126
:1023A000010100000000000000000080B07000008B
:1023B0000000000000000000000000000101010119
:1023C00001010100000000000000000030300000AA
:1023D0000000000000000080601804006018060182
:1023E00000000000E010080810E000000F1020209E
:1023F000100F00001010F8000000000020203F2007
:10240000200000007008080888700000302824228E
:102410002130000030088888483000001820202033
:10242000110E000000C02010F80000000704242452
:102430003F240000F808888808080000192120209F
:10244000110E0000E0108888180000000F112020F5
:10245000110E0000380808C83808000000003F00CE
:102460000000000070880808887000001C222121EC
:10247000221C0000E010080810E0000000312222B9
:10248000110F00000000C0C000000000000030304C
:1024900000000000000080000000000000806000DC
:1024A0000000000000804020100800000102040825
:1024B0001020004040404040404000040404040418
:1024C00004040000081020408000000020100804D0
:1024D000020100007048080808F0000000003036D3
:1024E000010000C030C828E810E0000718272423A6
:1024F000140B000000C038E0000000203C23020262
:1025000027382008F8888888700000203F20202085
:10251000110E00C0300808080838000718202020D5
:1025200010080008F808080810E000203F202020CC
:10253000100F0008F88888E8081000203F202023AA
:1025400020180008F88888E8081000203F200003C1
:10255000000000C0300808083800000718202022BA
:102560001E020008F808000008F808203F210101B9
:10257000213F20000808F8080800000020203F2024
:1025800020000000000808F8080800C08080807F54
:1025900000000008F888C028180800203F20012605
:1025A00038200008F8080000000000203F2020200C
:1025B00020300008F8F800F8F80800203F003F003D
:1025C0003F200008F830C00008F808203F2000072E
:1025D000183F00E01008080810E0000F102020202D
:1025E000100F0008F808080808F000203F2101013A
:1025F000010000E01008080810E0000F182424383B
:10260000504F0008F8888888887000203F20000319
:102610000C3020007088080808380000382021217C
:10262000221C00180808F8080818000000203F20A5
:1026300000000008F808000008F808001F2020200B
:10264000201F000878880000C83808000007380EEE
:10265000010000F80800F80008F800033C07000734
:102660003C0300081868808068180820302C030399
:102670002C30200838C800C83808000000203F204F
:1026800000000010080808C838080020382621205B
:10269000201800000000FE020202000000007F403F
:1026A000404000000C30C0000000000000000106A7
:1026B00038C00000020202FE000000004040407FDF
:1026C00000000000000402020204000000000000FC
:1026D000000000000000000000000080808080807A
:1026E0008080800002020400000000000000000062
:1026F0000000000000808080800000001924222259
:10270000223F2008F8008080000000003F112020B8
:10271000110E000000008080800000000E112020BB
:10272000201100000000808088F800000E11202099
:10273000103F200000808080800000001F222222A5
:10274000221300008080F0888888180020203F2015
:102750002000000000808080808000006B949494B2
:1027600093600008F8008080800000203F21000076
:10277000203F2000809898000000000020203F208B
:10278000200000000000809898000000C080808039
:102790007F000008F8000080808000203F24022D88
:1027A000302000000808F8000000000020203F2032
:1027B0002000008080808080808000203F20003FBB
:1027C00020003F8080008080800000203F210000AA
:1027D000203F200000808080800000001F202020FB
:1027E000201F00808000808000000080FFA120204A
:1027F000110E000000008080808000000E1120205B
:10280000A0FF80808080008080800020203F2120E9
:102810000001000000808080808000003324242498
:10282000241900008080E0808000000000001F204C
:102830002000008080000000808000001F202020F9
:10284000103F20808080000080808000010E3008D2
:1028500006010080800080008080800F300C030C17
:10286000300F0000808000808080000020312E0E1C
:10287000312000808080000080808080818E7018F0
:1028800006010000808080808080000021302C22A2
:1028900021300000000000807C02020000000000E7
:1028A0003F404000000000FF00000000000000FF6B
:1028B0000000000002027C800000000040403F0059
:1028C00000000000060101020204040000000000F4
:1028D00000000000F42800080000002010040000A0
:1028E00060090008BC2A0008100400202804000029
:1028F000561600081184D8B805B009010203040671
:102900000708090521F0F0E08014F8FCF8073BC047
:10291000F0F87E78700D10C0FFFFFE13071BFF9FBD
:10292000C0C0F060000D181C9EFFFFEFE7E3FDFE46
:10293000F07838051780FEFCE050120E7CF8E0F0CD
:10294000F87CFFF7F3F178BCFCFEFE3C0010177832
:10295000F8FC7C3EFFFF7F87C3C1E070F8F01A608F
:10296000391B7F7FA4000817DFE771383C1E071969
:10297000210514F0FE3C181C7FFEFBF61B7F5F2335
:102980002EFEFF9F0701AC12801AC09227FCFF1F8A
:10299000FF7B712BFEFF150910D219241E781C0E27
:1029A00006033A0317E0C0080913060E0E8FFFFF57
:1029B0003F0342411F7B7B7D3C3E9EE8553F1F0FFE
:1029C000031930280AFD030331BBFFFFEF027D022C
:1029D00013FF1D070F1F0FEC1D787C7E3F7E09162D
:1029E0005E080D1440F0F87E1F070D1C3CF8F0E067
:1029F000C01809F8F8FC7CBEFFFF7E7E620E253F02
:102A00007F7F1F15031F3F3F1E030F1E3F3F6601C1
:102A10001A1B183C7E01214A03D8D915B8090707AB
:102A200003E1E0C0C0DF41ABC0C003190511490894
:102A3000490119B31BC0C004591312802BC1C35BD9
:102A40003916592F690E6914693E5954992E113857
:102A500008C0C103C707C7C317291319FC1BFFC050
:102A60008E2DFFFF1FFD061E013FFCFF0F081BCC34
:102A7000CC16280A1C7DF7C077EFCEFD7BAF29046A
:102A80005501FFFE071E7FE1C0E17F13430C0C1BC5
:102A900073FF241A0E1413F37F1A7F4F2A7F2E120E
:102AA000014CFFEE0CE8191413F3732BFFEF0F2901
:0C2AB00065C00A3FFFFF80FC3F33FFF0D1
:04000005080000B53A
:00000001FF
