:020000040800F2
:1000000038040020C9000008FB000008FD000008BB
:10001000FF000008010100080301000800000000C3
:1000200000000000000000000000000005010008C2
:100030000701000800000000090100084907000846
:100040000D0F00080D0100080D0100080D0100084A
:100050000D0100080D0100080D0100080D01000848
:100060000D0100080D0100080D0100080D01000838
:100070000D0100080D0100080D0100080D01000828
:100080000D0100080D0100080D0100080D01000818
:100090000D0100080D0100080D0100080D01000808
:1000A0000D0100080D0100080D010008D10C000829
:1000B0000D0100080348854600F056F80048004747
:1000C000ED0F000838040020114880F3088811481B
:1000D0000168090E104A9142FFD110481049016091
:1000E00010481149016011480F4901600B4810493F
:1000F00001601048804710480047FEE7FEE7FEE732
:10010000FEE7FEE7FEE7FEE7FEE7FEE7FEE70000AC
:1001100038040020040000001F0000001C100240F2
:100120000000000418680040120000001C68004035
:100130000000000051070008B500000830B50B466C
:10014000014600202022012409E00D46D5409D42B1
:1001500005D31D469540491B254695404019154637
:10016000521E002DF1DC30BD064C0125064E05E087
:10017000E36807CC2B430C3C98471034B442F7D3C8
:10018000FFF79CFFF02E0008102F0008FFB583B08A
:100190000C46029400200190002726E000261CE077
:1001A000721C039951430846791CFFF7C7FF0546A7
:1001B000A54201D9281B00E0601B05460298A84211
:1001C00004D90295059806700698077002980028D1
:1001D00002D10120019002E0761C402EE0D300BF46
:1001E0000198002800D002E07F1C042FD6D300BF66
:1001F000029807B0F0BDFCB5024600250026019626
:100200000020002300240096CE7835072D0FCE78ED
:1002100010273E40002E01D08E7835430E78002EF8
:1002200027D01468002021E00126864033460E883E
:100230001E400196019E9E4217D183000F269E40CC
:1002400000962746009EB7433C462E469E403443C8
:10025000CE78282E03D101268640566105E0CE785F
:10026000482E02D1012686401661401C0828DBD3A7
:1002700014600E88FF2E2CDD5468002026E0064610
:1002800008360127B7403B460E881E400196019E66
:100290009E421AD183000F269E4000962746009E5C
:1002A000B7433C462E469E403443CE78282E04D198
:1002B000064608360127B7405761CE78482E04D14C
:1002C000064608360127B7401761401C0828D6D3D8
:1002D0005460FCBDF0B5002300244D07EE0E15461A
:1002E000B5402B46CD10002D0BD1056A4E07F70EF9
:1002F0000F26BE40B5430562056A1D432C460462C5
:100300000AE0456A4E07F70E0F26BE40B543456228
:10031000456A1D432C464462F0BD4161704701614E
:100320007047000010B57D21C90010480068FFF734
:1003300005FF0446601E0E49884201D901200CE0E9
:10034000601E0C4948610321081F00F04DF8002091
:1003500008498861072008610020002801D000BFFB
:10036000FEE70021481E00F03FF810BD000000200D
:10037000FFFFFF0000E000E000218278002A27D084
:10038000184A03231B02D21803789B109B00D158F4
:1003900002789207D30EFF229A400B4693431946E8
:1003A00042789207120E03789B07DB0E9A401143A6
:1003B0000C4A03231B02D21803789B109B00D150D8
:1003C0000278D306DB0E01229A40064B1A6007E042
:1003D0000278D306DB0E01229A40024B80331A606A
:1003E0007047000000E100E010B5002819DA1A4A51
:1003F00003071B0F083B9B089B00D2588307DC0EAA
:10040000FF23A3409A438B071B0E8407E40EA340EF
:100410001A43114B0407240F083CA408A4001A51E6
:1004200018E00E4A03231B02D21883089B00D258FF
:100430008307DC0EFF23A3409A438B071B0E840720
:10044000E40EA3401A43054B032424021B1984081D
:10045000A4001A5110BD00001CED00E000E100E016
:1004600008B51B216846017001218170002141708F
:10047000FFF782FF08BD0000002905D0054A526938
:100480000243044B5A6104E0024A52698243014B21
:100490005A61704700100240002905D0054A926950
:1004A0000243044B9A6104E0024A92698243014B81
:1004B0009A61704700100240FEB5044600250026F0
:1004C0000020019000900027344840680C2108402B
:1004D0000546042D02D1324820603BE0082D32D180
:1004E0002E480068800E461C2C480068072109052C
:1004F0000840000D401C01902848406869030840EE
:1005000000900098002807D12649714308460199B8
:10051000FFF714FE20601DE02048406801214904D7
:100520000840002807D02049714308460199FFF789
:1005300005FE20600EE01A49714308460199FFF755
:10054000FDFD206006E00C2D02D11848206001E07E
:100550001348206011484068F021084005462D09E5
:100560001348475D2068F84060600C4840680721E8
:100570000902084005462D0A0D48475D6068F840AD
:10058000A06006484068C90008400546ED0A0848D2
:10059000475D6068F840E060FEBD0000001002406A
:1005A00000127A00001BB70000093D00409C0000CB
:1005B0001400002010B500F001F810BD7FB5002038
:1005C00003900290594800680121090408435749E3
:1005D000086000BF554800680121490408400290A6
:1005E0000398401C03900298002804D105210902B9
:1005F00003988842EED14D48006801214904084023
:10060000002809D0012002907D25ED0000BF28467A
:100610006D1E0028FBD101E0002002900298012805
:100620007ED143484349086043480068102108438D
:100630004149086008460068C008C00008603D499C
:100640000968481E3D49FFF779FD04463A480068AD
:1006500020433949086035484068344948600846B5
:1006600040684860334800683549884207D92F48B8
:1006700040680121890208432C49486006E02B4864
:10068000406801218902084328494860274840689A
:10069000032109048843254948600846006800038F
:1006A000000B0860084640680121090408431F49FF
:1006B00048606B4601AA1F4801682248FFF766FDA3
:1006C0001A4800680003000B184908606946087959
:1006D0008006097809050843144909680843134945
:1006E0000860084600680121090608430F490860B0
:1006F00000BF0E4800680121490608400028F8D0D4
:100700000A484068800880000849486008464068F8
:10071000022108430549486000BF0448406800E0E2
:1007200003E00C2108400828F7D17FBD00100240EB
:1007300000D8B805000000200020024000366E01FD
:100740000051250200127A0010B500F0B5FA10BD74
:1007500010B5154800680121084313490860084690
:10076000406812490840104948600846006810492E
:1007700008400D4908600846006801218904884343
:1007800009490860084640687F21090488430649F2
:100790004860084600680003000B08609F200004C2
:1007A0008860FFF707FF10BD001002400000FFF057
:1007B000FFFFF6FE10B52A2000F01AFA002000F024
:1007C000E5F9002000F0E2F9002000F0DFF9A820B0
:1007D00000F0DCF92B2000F00BFA002000F0D6F935
:1007E000002000F0D3F9002000F0D0F9B32000F091
:1007F000CDF92C2000F0FCF910BD70B50646FFF7CE
:10080000D9FF002408E0002503E0304600F022FA7A
:100810006D1C842DF9D3641CA22CF4D370BD000090
:1008200038B5044601218804FFF726FE1F21C902BE
:1008300068460180032181701021C17069467748A4
:10084000FFF7D9FC0121C9027448FFF766FD322089
:1008500000F0B6FB0121C9027048FFF760FD3220AD
:1008600000F0AEFB112000F0C3F90A2000F0A8FB55
:100870003A2000F0BDF9552000F088F9262000F05C
:10088000B7F9042000F082F9F22000F0B1F901205C
:1008900000F07CF9E02000F0ABF93F2000F076F9A1
:1008A000252000F073F91C2000F070F91E2000F0E4
:1008B0006DF9202000F06AF9122000F067F92A2073
:1008C00000F064F9902000F061F9242000F05EF956
:1008D000112000F05BF9002000F058F9002000F032
:1008E00055F9002000F052F9002000F04FF90020E7
:1008F00000F04CF9E12000F07BF9202000F046F9EF
:10090000202000F043F9202000F040F9202000F0E2
:100910003DF9052000F03AF9002000F037F91520E4
:1009200000F034F9A72000F031F93D2000F02EF955
:10093000182000F02BF9252000F028F92A2000F0DB
:1009400025F92B2000F022F92B2000F01FF93A2086
:1009500000F01CF9B12000F04BF9002000F016F96E
:10096000002000F013F9B42000F042F9072000F055
:100970000DF9C02000F03CF90A2000F007F9022030
:1009800000F004F9C12000F033F9022000F0FEF875
:10099000C52000F02DF94F2000F0F8F85A2000F0A3
:1009A000F5F8C72000F024F9402000F0EFF82A20E5
:1009B00000F01EF9002000F0E9F8002000F0E6F851
:1009C000002000F0E3F8A82000F0E0F82B2000F071
:1009D0000FF9002000F0DAF8002000F0D7F800202E
:1009E00000F0D4F8B32000F0D1F8362000F000F980
:1009F000002C03D0C02000F0C9F802E0A02000F0D5
:100A0000C5F8B72000F0F4F8002000F0BFF8292066
:100A100000F0EEF82C2000F0EBF838BD00040048A0
:100A2000FFB585B005461646002400270120029038
:100A300058E000240120029010E02D48005DF15D97
:100A4000884209D12A49601C095C781C305C8142CB
:100A500002D12001029005E0A01C84B22448005D70
:100A60007F28EADC00BF0298012837D00698401C96
:100A70000001401E83B2681C0001401E82B206982D
:100A80000005010C2805000C019000F035F800204D
:100A9000039020E00020049013E016490298095CBE
:100AA0008022049802411140002903D0089800F0E8
:100AB000D1F802E00E9800F0CDF80498401C80B206
:100AC000049004980828E8DB0298401C02900398E0
:100AD000401C80B2039003982028DBDB681C85B2A1
:100AE000B81C87B2F05D0028A3D109B0F0BD0000AA
:100AF0001A250008AF250008F8B507460C4615462C
:100B00001E462A2000F074F8002000F03FF8384616
:100B100000F03CF8002000F039F8284600F036F8E4
:100B20002B2000F065F8002000F030F8204600F09F
:100B30002DF8002000F02AF8304600F027F82C208D
:100B400000F056F8F8BDFFB581B015461E460A9F65
:100B50000298801983B201984019401E82B202990E
:100B60000198FFF7C9FF00240AE06100795C0A02DE
:100B70006100491C795C511888B200F06BF8641C64
:100B800028467043A042F0D805B0F0BD70B50446C9
:100B9000012109031548FFF7C2FB002522E00121CE
:100BA00049031248FFF7B9FB012000F069FA8020E1
:100BB0002040002805D0012189030C48FFF7AFFB36
:100BC00004E0012189030948FFF7A7FB012149033C
:100BD0000648FFF7A4FB012000F052FA6004040C61
:100BE000681C85B2082DDADB70BD000000040048E7
:100BF00070B50446012109031548FFF78EFB002557
:100C000022E0012149031248FFF787FB012000F091
:100C100037FA80202040002805D0012189030C48A4
:100C2000FFF77DFB04E0012189030948FFF775FB0D
:100C3000012149030648FFF772FB012000F020FA6A
:100C40006004040C681C85B2082DDADB70BD00005E
:100C50000004004870B50446012109031548FFF758
:100C60005EFB002523E0012149031248FFF755FBF5
:100C7000012000F005FA0120C0032040002805D023
:100C8000012189030B48FFF74AFB04E00121890396
:100C90000848FFF742FB012149030648FFF73FFBE5
:100CA000012000F0EDF96004040C681C85B2102DE1
:100CB000D9DB70BD0004004804480068002804D057
:100CC00002480068401E0149086070472C0000205F
:100CD00010B50221184800F04DF801282AD1164815
:100CE00000F09AF81549164A12788854144800788A
:100CF000401C1349087008460078401E0F49085CE4
:100D0000FF2810D108460078FE2808D10C48017849
:100D10000A4800F041F90020094908700AE0002063
:100D20000749087006E006480078062802D100202E
:100D30000349087010BD0000003801402400002065
:100D40002A000020002904D0826901231A4382610D
:100D500003E08269014B1A4082617047FEFF000088
:100D60000246002093680B40002B01D0012000E0D8
:100D70000020704702460020D3680B40002B01D0B2
:100D8000012000E000207047002A03D003690B43D4
:100D9000036102E003698B4303617047F0B587B0DC
:100DA00004460D46002600200690059000272746A1
:100DB000E669FF21D031304688430646A888E98895
:100DC0000843298908430643E661A6697609760146
:100DD000A889698908430643A66101A8FFF76CFB4F
:100DE0000C48874202D10398069001E004980690CF
:100DF00029680698FFF7A2F9060929680698FFF7FF
:100E00009DF90007000F059026620598606207B003
:100E1000F0BD00000044004001464868C0B2704781
:100E2000CAB202607047000010B586B004460121C6
:100E30004804FFF721FB01220921C806FFF74AFAFF
:100E400001220A210920C006FFF744FA01214902C4
:100E500068468182032181751821C17505A9092081
:100E6000C006FFF7C8F90121890268468182042182
:100E7000C17505A90920C006FFF7BDF90121880346
:100E8000FFF70AFB0194302168460181002141816E
:100E9000818101821821C18101A90748FFF77EFFE6
:100EA000012202210448FFF76FFF01210248FFF7EA
:100EB00049FF06B010BD00000038014010B50446DF
:100EC00003E02078641C00F005F820780028F8D1B1
:100ED00010BD000010B5044621460548FFF7A0FFED
:100EE00000BF01210248FFF73BFF0028F9D010BDE9
:100EF000003801400020014988607047002C004004
:100F000001488068C0B27047002C004010B5FFF760
:100F1000F7FF012804D17E2000F004F8FFF7EAFF74
:100F200010BD00004106490E014A116070470000E3
:100F3000002C004010B5024A024900F014F810BD20
:100F40009D0F00083000002002E008C8121F08C1F1
:100F5000002AFAD170477047002001E001C1121F3A
:100F6000002AFBD17047F8B516460F460446002507
:100F700003E03946B047641C6D1C20780028F8D186
:100F80002846F8BD0349086000BF024909680029E6
:100F9000FBD170472C0000207047000070B504465C
:100FA0000D46E0B2FFF796FF00BF01210348FFF7AF
:100FB000D7FE0028F9D0204670BD0000003801405F
:100FC00008B5002100910BE00021009103E000BF73
:100FD0000099491C00917D22120100999142F6D39B
:100FE0000146421E90B20029EED108BD08B5FFF7B8
:100FF00099F9FFF735FAE1204002FFF715FF15A038
:10100000FFF75CFF16A0FFF795FF0120FFF708FC34
:101010000020FFF7F2FB1CE00020FFF7EEFB0020B2
:10102000134B14A201460090FFF7FAFC7D20C0008C
:10103000FFF7A8FF0020FFF7E0FB10483623A022AF
:10104000252100900020FFF77EFD7D20C000FFF7E6
:1010500099FFE1E74920414D2055415254310A00A2
:1010600054484953204953204D4D33320A00000063
:10107000FFFF0000D6C7C4DCB3B500008E10000827
:1010800000E000BF0146401E0029FAD17047000071
:10109000000000000000000000F0F0E08000000010
:1010A0000000000000000000000000000000000040
:1010B0000000000000000000000000000000F8FC3C
:1010C000F800C0F0F87E787000000000000000001A
:1010D0000000000000000000000000000000000010
:1010E0000000000000000000000000000000000000
:1010F00000000000000000000000000000000000F0
:10110000000000C0FFFFFE00000000000000000023
:10111000000000000000C0FFFFFF9FC0C0F06000A3
:1011200000000000000000000000000000000000BF
:10113000000000000000000000001C9EFFFFEFE721
:10114000E3FDFEF078380000000000000000000021
:10115000000000000000000000000000000080FE11
:10116000FCE00000000000000000000000000000A3
:101170000000000000000000000E7CF8E0F0F87CA9
:10118000FFF7F3F178BCFCFEFE3C000000000078A5
:10119000F8FC7C3EFFFF7F87C3C1E070F8F00000E1
:1011A000000000000000000000000000000000003F
:1011B000000000000060F0F87C7F7FFFFFFFDFE7AA
:1011C00071383C1E07000000000000000000000015
:1011D000000000000000000000000000FFFFFFF022
:1011E000FE3C1800000000000000000000000000AD
:1011F000000000000000007FFEFBFFFFFE7F5FFF9E
:10120000FFFFFEFF9F0701000000808000C0E0F0AC
:10121000F8FCFF1FFF7B710000FEFF0100000000D3
:1012200000000000000000000000000000000000BE
:1012300080C0E0F0781C0E0603FFFFFFE0C0000056
:10124000000000000000000000000000000000009E
:101250000000000000060E0E8FFFFF3F030100009C
:10126000000000000000000000000000000000007E
:101270000000000000007B7B7D3C3E9EFFFF7F3F27
:101280001F0F0300000000008FFFFFFD030331BBB1
:10129000FFFFEF020000FEFFFF0000000000000063
:1012A000000000000000000000000000070F1F0FFA
:1012B000070000787C7E3FFFFFFF03010000000075
:1012C000000000000000000000000000000000001E
:1012D000000040F0F87E1F070D1C3CF8F0E0000015
:1012E00000000000000000000000000000000000FE
:1012F00080C0E0F0F8F8FC7CBEFFFF7E7F3F1F0E51
:101300000000000000003F7F7F1F0000031F3F3FE1
:1013100000030F1E3F3F0700000000000000000018
:1013200000000000000000000000000000000000BD
:10133000000000183CFFFFFF00000000000000005C
:10134000000000000000000000000000000000009D
:101350000000000000000000000303000000000087
:101360000000000000000000000000000000030773
:101370000703E1E0C0C0DFFFFF0000000000000045
:1013800000000000C0C000C0C000C0C000C0C0005D
:10139000C0C0C0C00000C000C0C0C0C0C0C0C0C08D
:1013A000C0C00080C0C0C080C0C000C0C0C0C0C03D
:1013B000C08000C1C30300000080C0C0C08000C066
:1013C000C0C0C00000000080C0C0C0800080C0C09D
:1013D000C08000C0C000C0C0C0C0C0C0C000C0C08D
:1013E00000C0C00000000080C0C0C08000C0C000BD
:1013F000C0C103C707C7C300C0C00000C0C0800091
:1014000000003FFFC0FFFF00FFFF1FFDFF00FFFFC9
:10141000013FFCFF0F00FFFFCCCCC0FFFF1C7DF79E
:10142000C077EFCEFD7BFFFF0000FFFF000001FF54
:10143000FE0700000000007FE1C0E17F00FFFF0C1D
:101440000C0000000073FFCEFD7B0E7FE1C0F37F38
:10145000007FFFC0FF7F0000FFFF0100FFEE0CFFD9
:10146000FF000000007FFFC0F37300FFEF0CFFFFE1
:1014700000FF00FFFF3FFFFF80FC3F33FFF0000055
:10148000000000000000000000000000000000005C
:101490004F000000000000000000070000000700EF
:1014A0000000000014007F0014007F001400000002
:1014B00024002A007F002A001200000023001300ED
:1014C0000800640062000000360049005500220058
:1014D00050000000000005000300000000000000B4
:1014E00000001C002200410000000000000041003C
:1014F00022001C0000000000140008003E0008004C
:1015000014000000080008003E0008000800000069
:10151000000050003000000000000000080008003B
:1015200008000800080000000000600060000000E3
:10153000000000002000100008000400020000006D
:101540003E005100490045003E00000000004200FE
:101550007F0040000000000042006100510049008F
:10156000460000002100410045004B003100000012
:101570001800140012007F00100000002700450032
:1015800045004500390000003C004A004900490080
:101590003000000001007100090005000300000098
:1015A00036004900490049003600000006004900A5
:1015B000490029001E00000000003600360000002F
:1015C000000000000000560036000000000000008F
:1015D0000800140022004100000000001400140064
:1015E0001400140014000000000041002200140048
:1015F0000800000002000100510009000600000080
:1016000032004900790041003E0000007E001100D8
:10161000110011007E0000007F00490049004900D0
:101620003E0000003E004100410041002200000059
:101630007F004100410022001C0000007F004900A3
:1016400049004900410000007F000900090009002D
:10165000010000003E004100490049007A000000FE
:101660007F000800080008007F0000000000410023
:101670007F004100000000002000400041003F00CA
:10168000010000007F00080014002200410000005B
:101690007F00400040004000400000007F0002004A
:1016A000040002007F0000007F000400080010001A
:1016B0007F0000003E004100410041003E0000006C
:1016C0007F00090009000900060000003E004100FB
:1016D000510021005E0000007F0009001900290070
:1016E0004600000046004900490049003100000062
:1016F000010001007F000100010000003F004000E8
:10170000400040003F0000001F002000400020007B
:101710001F0000003F004000380040003F00000074
:1017200063001400080014006300000003000400BC
:1017300078000400030000006100510049004500EA
:101740004300000000007F00410041000000000055
:10175000150016007C001600150000000000410076
:1017600041007F00000000000400020001000200B0
:101770000400000040004000400040004000000025
:1017800000000100020004000000000020005400DE
:1017900054005400780000007F00480044004400DA
:1017A00038000000380044004400440020000000DD
:1017B00038004400440048007F0000003800540016
:1017C000540054001800000008007E0009000100C9
:1017D000020000000C005200520052003E000000C7
:1017E0007F000800040004007800000000004400AE
:1017F0007D004000000000002000400044003D004B
:10180000000000007F0010002800440000000000DD
:10181000000041007F004000000000007E00020048
:101820000C0002007C0000007E00040002000200A8
:101830007C000000380044004400440038000000F0
:101840007C001400140014000800000008001400BC
:10185000140018007C0000007C0008000400040054
:10186000080000004800540054005400200000000C
:1018700004003F0044004000200000003C00400005
:10188000400020007C0000001C00200040002000E0
:101890001C0000003C004000300040003C00000004
:1018A0004400280010002800440000000C005000F4
:1018B000500050003C0000004400640054004C0004
:1018C0004400000000000800360041000000000055
:1018D000000000007F000000000000000000410048
:1018E0003600080000000000080004000800100096
:1018F00008000000080008002A001C000800000082
:1019000008001C002A000800080000000400020073
:101910007F00020004000000100020007F00200073
:10192000100000001C002A0032002A001C000000E9
:101930001C002200440022001C00000000000000E7
:101940000000000000000000000000000000000097
:101950000000000000000000000000000000100077
:101960001000100010001000100010001000000007
:101970000000100010000000000000000000240023
:1019800024002400240000000000000000000000EB
:1019900000000000000000000000000000004800FF
:1019A00048004800FE0024002400240024002400F5
:1019B0007F001200120012000000000010007C00E6
:1019C00092009200120014001800300050009000A5
:1019D000920092007C0010000000000000008C00CB
:1019E0009200520032002C001000080068009400A1
:1019F000920092006000000000000000000018004B
:101A000024002400240018009800A400A200420032
:101A10004200A2009C000000000000000000100036
:101A20001000100010000000000000000000000086
:101A30000000000000000000000000002000100076
:101A4000080008000400040004000400040004006E
:101A5000080008001000200000000000040008003A
:101A60001000100020002000200020002000200096
:101A7000100010000800040000000000000000003A
:101A80000000000008002A001C00140022000000D2
:101A90000000000000000000000000000000000046
:101AA0000000100010001000FE00100010001000D8
:101AB0000000000000000000000000000000000026
:101AC0000000000000000000000000000000000016
:101AD00000001000100008000000000000000000DE
:101AE0000000000000000000FE00000000000000F8
:101AF00000000000000000000000000000000000E6
:101B000000000000000000000000000000000000D5
:101B10000000100010000000000000000000400065
:101B20004000200020001000100008000800040001
:101B30000400020002000000000000000000380065
:101B400044008200820082008200820082008200C3
:101B50008200440038000000000000000000100077
:101B60001C001000100010001000100010001000E9
:101B700010001000100000000000000000003C00F9
:101B80004200420040004000200010000800040015
:101B9000020002007E0000000000000000003C0087
:101BA00042004200400040003C0040004000400035
:101BB000420042003C000000000000000000600005
:101BC0006000500050004800480044004400FE00FF
:101BD00040004000400000000000000000007E00C7
:101BE0000200020002003E004200400040004000AF
:101BF000420042003C0000000000000000003C00E9
:101C000042004200020002003E0042004200420048
:101C1000420042003C0000000000000000007E0086
:101C200040002000200010001000100008000800F4
:101C300008000800080000000000000000003C0050
:101C400042004200420042003C004200420042008A
:101C5000420042003C0000000000000000003C0088
:101C6000420042004200420042007C00400040002E
:101C7000420042003C0000000000000000000000A4
:101C8000000008000800000000000000000008003C
:101C9000080000000000000000000000000000003C
:101CA0000000100010000000000000000000100004
:101CB00010001000080000000000000000000000FC
:101CC0004000300008000600010006000800300057
:101CD00040000000000000000000000000000000C4
:101CE000000000000000FE0000000000FE000000F8
:101CF00000000000000000000000000000000000E4
:101D000002000C00100060008000600010000C0059
:101D10000200000000000000000000000000380089
:101D200044008200820040002000100010001000DB
:101D3000000010001000000000000000000038004B
:101D400044008200B200AA00AA00AA00AA00D200A1
:101D50000200840078000000000000000000100075
:101D600010001000280028002800440044007C00D7
:101D700082008200820000000000000000003E009F
:101D800042008200820042003E0042008200820047
:101D9000820042003E000000000000000000380009
:101DA0004400820082000200020002000200820061
:101DB00082004400380000000000000000003E00E7
:101DC0004200420082008200820082008200820083
:101DD000420042003E000000000000000000FE0043
:101DE00002000200020002007E0002000200020067
:101DF00002000200FE000000000000000000FE00E3
:101E000002000200020002007E0002000200020046
:101E10000200020002000000000000000000380084
:101E200044008200020002000200E2008200820000
:101E30008200C400B8000000000000000000820022
:101E40008200820082008200FE0082008200820006
:101E500082008200820000000000000000001000EC
:101E600010001000100010001000100010001000F2
:101E70001000100010000000000000000000200012
:101E80002000200020002000200020002000200052
:101E9000220022001C000000000000000000820060
:101EA0004200220012000A00060006000A0012008A
:101EB000220042008200000000000000000002003A
:101EC0000200020002000200020002000200020002
:101ED000020002007E0000000000000000008200FE
:101EE0008200C600C600AA00AA00920092009200DA
:101EF00082008200820000000000000000008200DA
:101F0000860086008A008A0092009200A200A20049
:101F1000C200C20082000000000000000000380083
:101F200044008200820082008200820082008200DF
:101F300082004400380000000000000000003E0065
:101F4000420082008200820042003E000200020045
:101F50000200020002000000000000000000380043
:101F6000440082008200820082008200820082009F
:101F7000A2004400B80000000000000000003E0085
:101F8000420082008200820042003E004200820045
:101F900082008200820000000000000000007C003F
:101FA000820082000200040018002000400080002F
:101FB000820082007C000000000000000000FE00A3
:101FC0001000100010001000100010001000100091
:101FD000100010001000000000000000000082004F
:101FE00082008200820082008200820082008200E1
:101FF000820082007C0000000000000000008200DF
:102000008200820044004400440028002800280088
:1020100010001000100000000000000000009200FE
:102020009200920092009200AA00AA00AA00440026
:102030004400440044000000000000000000820052
:1020400082004400440028001000280028004400BA
:1020500044008200820000000000000000008200B6
:1020600082004400440028002800100010001000E6
:1020700010001000100000000000000000007E00B2
:10208000400020002000100010000800080004009C
:10209000040002007E00000000000000780008003C
:1020A00008000800080008000800080008000800F0
:1020B00008000800080078000000000000009200FE
:1020C00092009200FF009200AA00AA00AA00440019
:1020D0004400440044000000000000001E00100006
:1020E0001000100010001000100010001000100070
:1020F0001000100010001E0000000000100028005A
:10210000440000000000000000000000000000008B
:1021100000000000000000000000000000000000BF
:1021200000000000000000000000000000000000AF
:10213000000000000000FE00000000000400080095
:10214000100000000000000000000000000000007F
:10215000000000000000000000000000000000007F
:102160000000000000003C00420040007C004200F3
:1021700042004200BC00000000000000000002001D
:102180000200020002003A00460082008200820043
:10219000820046003A00000000000000000000003D
:1021A000000000000000780084000200020002002D
:1021B00002008400780000000000000000008000A1
:1021C000800080008000B800C4008200820082008D
:1021D0008200C400B8000000000000000000000001
:1021E000000000000000380044008200FE000200F1
:1021F0000200840078000000000000000000700071
:102200000800080008007E00080008000800080018
:1022100008000800080000000000000000000000A6
:10222000000000000000580064004200420042002C
:102230006400580042003C00000000000000020062
:102240000200020002003A00460042004200420042
:1022500042004200420000000000000000001000A8
:10226000100000000000100010001000100010000E
:10227000100010001000000000000000000010001E
:1022800010000000000010001000100010001000EE
:102290001000100010000C00000000000000020000
:1022A000020002004200220012000A0006000A009A
:1022B0001200220042000000000000000000100098
:1022C000100010001000100010001000100010008E
:1022D00010001000100000000000000000000000CE
:1022E0000000000000006E00920092009200920038
:1022F0009200920092000000000000000000000028
:102300000000000000003A00460042004200420087
:1023100042004200420000000000000000000000F7
:1023200000000000000038004400820082008200AB
:10233000820044003800000000000000000000009F
:102340000000000000003A00460082008200820087
:1023500046003A00020002000000000000000000F9
:10236000000000000000B800C4008200820082006B
:10237000C400B800800080000000000000000000E1
:1023800000000000000074000C00040004000400C1
:102390000400040004000000000000000000000031
:1023A0000000000000003C00420002000C00300071
:1023B000400042003C000000000000000000080057
:1023C0000800080008007E00080008000800080057
:1023D000080008007000000000000000000000007D
:1023E00000000000000042004200420042004200A3
:1023F000420042007C0000000000000000000000DD
:102400000000000000008200820044004400280018
:102410002800100010000000000000000000000074
:102420000000000000008200920092009200AA00CA
:102430006C004400440000000000000000000000A8
:10244000000000000000820044002800100010007E
:10245000280044008200000000000000000000008E
:1024600000000000000082008200440044002800B8
:102470002800100010000E00000000000000000006
:102480000000000000007E00400020001000080056
:10249000040002007E000000000000006000100048
:1024A00010001000100010000C00100010001000B0
:1024B000100010001000600000000000100010006C
:1024C000100010001000100010001000100010008C
:1024D00010001000100010000000000006000800AE
:1024E0000800080008000800300008000800080084
:1024F00008000800080006000000000000000000BE
:102500000000000000008C007200000000000000CD
:1025100000000000000000000000B1B1BEA9C1FA37
:10252000C7F1C7F0D6C7C4DCBFC6BCBCCCD4B1A60B
:10253000B5EAD2BABEA7B5A5C6ACBBFAD6C7C4DC4D
:10254000B3B5C6F7C8CBC6F4B6AFD6D0B5E7D1B9E8
:10255000C1BFB2BBD7E3C7EBC9D4BAF2A3ACA3A146
:10256000A3BAA1E6B9A5BBF7D3E9C0D6C4A3CABD37
:10257000C6D5CDA8B8F1B6B7B6D4BBB0B8A9CED43D
:10258000B3C5B5B9C1A2CED5CAD6BEB4C0F1CCF8D8
:10259000CEE8B5B8D4CBB6AFC0B6BEABC1E9CCAB14
:1025A000BCABBDD6CEE8CEC2B6C8A1AAD0A10004AD
:1025B0004004400440044404487C50046004400447
:1025C000400440044004421C42E442443E040002F1
:1025D000000100FFFE000000001FF010101010109E
:1025E000101FF0010011101108210445040200041D
:1025F00020041004100400FFFE04800488048804F2
:102600009008A008C0108211822282447E800000BF
:1026100000033E3C222024202420283FA422242200
:102620002222222222223427A8F820402000200043
:102630001000781F8010001000100010001FFC1008
:102640004010401040104010401040FFFE0000209D
:10265000003E7C48440844FF441444227C40001F50
:10266000F0101010101FF0101010101FF0101010AC
:102670004024444248FF70014000427E42423E42B4
:10268000007E44424842707E4042424A42443E08F4
:10269000101D10F09010901010FD10109038903414
:1026A00010501E53F0901010101010101010101039
:1026B000201020102013FEFC201020102015FC18E4
:1026C000843088D0481050102010505188260601C0
:1026D00000210011FC1204850441E4428410841797
:1026E000F42084E2A422A423E42004202800100281
:1026F0000001007FFE4002800400007FFC01000119
:102700000001003FF8010001200110FFFE00000160
:102710000000803FFE20802080208020FC20802040
:102720008027F8240824084408440887F80408008F
:1027300080204017FE11208120423C424416641242
:10274000942348E248223022202250228803060F98
:10275000E0082008200FE0082008200FE000007E9D
:10276000FC428442847EFC428442847EFC4284108B
:1027700010082004403FF8210821083FF8210821D3
:10278000083FF801000100FFFE0100010001000008
:102790004010401040104010401FFC10001000106E
:1027A000001FE010201020102020202020402010AA
:1027B0000011F011101110FD1011103110391055C9
:1027C0001055109110111211121212120E14002035
:1027D000003E7C48440844FF441444227C40001FCF
:1027E000F0101010101FF0101010101FF01010102B
:1027F0004024444248FF70014000427E42423E4233
:10280000007E44424842707E4042424A42443E0278
:1028100000020002007FFC04000900110021003FBB
:10282000F801000100FFFE010001000100010000AD
:10283000003E7C224422443E7C01200110FFFE0227
:10284000800C603018C0063E7C224422443E7C014D
:10285000000100010001000100010002800280046B
:102860004004400820082010102008400480020185
:102870000000801FFC1004100410041FFC10001046
:1028800000100017FC24042404440487FC04040002
:102890004000407C40004001FC0044FE44204420B5
:1028A00044208448844484FD044504022804100123
:1028B000000100010001003FF82108210821082142
:1028C0000821083FF8210801000100010001000172
:1028D00000010001003FF82108210821083FF821EC
:1028E00008210821083FF8210A0102010200FE0028
:1028F000003FFE200020802080208020802FFC20B0
:1029000080208020902088208840805FFE8000000A
:10291000001FF010101FF01010FFFE00001FF0113C
:10292000101FF011101FF001001FF001007FFC00CC
:10293000007FFC00800080010001000340052009A9
:102940001011082104410481000100010001000070
:10295000001FF010101010101010101FF0010001D7
:1029600000110011F811002900250043FE8000002D
:1029700040404027FC204003F80040E7FE200023B1
:10298000F8220823F822082BF8320822280210081F
:10299000201D24F0A410A81020FDFC1104310439DE
:1029A000FC5504550491FC11041104111411081074
:1029B0000013F8100828082FFE69006900ABF82CF6
:1029C0004028402FFE284028A0211022082C060075
:1029D00000000000000000000000000000000000F7
:1029E000000000000038003800180030000000002F
:1029F00000000000000E000E000E000E000E000C85
:102A0000000C00000000000E000E0000000000009E
:102A100000000000000000000000000000000000B6
:102A20000030003000000030003000000000006086
:102A30000091F4960C6C0408041800180018001893
:102A4000001800180008000C04060801F00000003F
:102A50006000600060FFC018FF198C1BCC18CC18F8
:102A6000CC187818781F30F87860CC0186FFFF0109
:102A700080018001803FFC018001800180FFFF0117
:102A8000800180318C318C318C318C3FFCFFFF30E8
:102A90000033FC330C330CFFFC6C006C006FFCCC7F
:102AA000606C603FFF18603CF06D98C30CFFFF0046
:102AB0003000F81F8018001980318031803FFE01FE
:102AC000800DB00D98198C318661860780FFFF1943
:102AD0009819981FFE1998FE001BFC3B0C3FFC7FC9
:102AE0000C7BFCD8601FFE18F019981B0CFFFF0030
:102AF0006C006600660060FFFF006000603F600CD5
:102B0000600C600C300C330F9B7C0F3007FFFF0C08
:102B10003006607FFE0660366C1E78FFFF00001FE7
:102B2000F8181818181FF8181818181FF81818008F
:102B30000067FC301831F0006007FEF66636663735
:102B4000FE3666366637FE3666367E7E0CCFFF185A
:102B5000C018C018FC198CFF981EF038603CF07F3C
:102B60009C7B07DFFC198C198C198C19FC198C00C3
:102B70006006600360036018600C600C6000600019
:102B8000FF7FE000600060006000600060006000A7
:102B900018001800187F1803FF031836181ED80CE9
:102BA000780C781E181B1833186018007800300055
:102BB0000C303E19F01830003003FFF83018301890
:102BC0003019FE198619861F861D8619FE01861882
:102BD0006018301FFF360036CC76CC778CF7FF3785
:102BE0008C37EC37BC37BC3D8C3D8C39BC31980000
:102BF000307FF06C306C306C307FB861BC61B66196
:102C0000B37FB36C306C306C307FF0003000301923
:102C1000B618FC1BFF1B03FEFC18CC18FC1E0E1D77
:102C2000F83830F9FE18301BFF183078F030601893
:102C30000618061FE6331E331E76DE77FEF19E3140
:102C40009E37FE319E319E31E63F06361E300C0324
:102C5000000180018000007FFE0000001818180CA1
:102C6000300C300660066006C00000FFFF00003038
:102C70000033FE33063306FFFE330033FE3F603B76
:102C8000CCF3FE3336333037FE3630FC307BFF007A
:102C90001800FC3F80018001803FFC018001800121
:102CA00080FFFF01800180018001800780030033E5
:102CB000303330FFF0333F60667FE661E6C1F67F78
:102CC000BC67BC67987F9867BC01BC0F6606C330C1
:102CD000C018C018C0FCC00CC018C018C03CC07ED2
:102CE000C0DEC018C018C618C618C6187E18000066
:102CF000787E78667867FB66FE7E7C1878187C188C
:102D0000FE7FFB7878787878DB7EDBF19B030F1809
:102D1000003FFE6FF00FF07FFE0FF00FF07FFE1808
:102D20001818183FFE63181ED80CFF3818E018FF5B
:102D3000E1821FBBDDBAEDBB6B837FEFDFEE31EECF
:102D4000FDA2FDAE31AEFDAEFDA2FD1E01FEFD00F9
:102D50000033FC18001800000007FEF86018C019C6
:102D6000981B0C1FFE1B0618003C0067FF000000AC
:102D70006000607E60006001FE0066FF66306630C5
:102D80006630C66CC666C6FF866786033C061808B2
:102D9000200820FFFE08200480248024FC24A02595
:102DA0001000003FF8244824482448FFFE0000108B
:102DB00020102095FE542058FC1020FDFE300038D5
:102DC000FC548454FC908410FC10841094108800EF
:102DD000003FF8000800081FF8000800083FF8014D
:102DE000001110111022A0044008203018C0060164
:102DF000000100010001000100FFFE0100010002CE
:102E0000800280044004400A2011102108C00610EE
:102E10000013FC10841088FC881090309C38845576
:102E2000445544912811281210122814441182117B
:102E300000110027DC4100810017C0203E6108A17D
:102E40000827C82108210821C82E0824282010108E
:102E5000003FFC4AA00AA07FFC0AA00AA07FFC1049
:102E60001010103EFC4210149008FE3010C01000EC
:102E70000023F81208120883F84208420813F810D9
:102E80000027FCE4A424A424A424A42FFE00000111
:102E90000000803FFE222022203FFC22202220230F
:102EA000E020002FF02410422041C08630380E0070
:102EB0000000000000000000000000000000000012
:102EC0000000000000000000000000000000000002
:102ED0000000E0000000FF0000002040800000082B
:102EE0000403000040807F0000000000010E00008D
:102EF000102F00080000002034000000480F0008D8
:102F0000442F00083400002004040000580F00087B
:102F100000D8B80500000000000000000102030412
:102F2000060708090000000001020304010203046F
:102F30000607080900000000000000000000000073
:042F4000000000008D
:04000005080000B53A
:00000001FF
