:020000040800F2
:1000000020040020C9000008FB000008FD000008D3
:10001000FF000008010100080301000800000000C3
:1000200000000000000000000000000005010008C2
:100030000701000800000000090100083105000860
:100040000D0100080D0100080D0100080D01000858
:100050000D0100080D0100080D0100080D01000848
:100060000D0100080D0100080D0100080D01000838
:100070000D0100080D0100089D0500080D01000894
:100080000D0100080D0100080D0100080D01000818
:100090000D0100080D0100080D0100080D01000808
:1000A0000D0100080D0100080D0100080D010008F8
:1000B0000D0100080348854600F056F80048004747
:1000C0007D07000820040020114880F308881148AB
:1000D0000168090E104A9142FFD110481049016091
:1000E00010481149016011480F4901600B4810493F
:1000F00001601048804710480047FEE7FEE7FEE732
:10010000FEE7FEE7FEE7FEE7FEE7FEE7FEE70000AC
:1001100020040020040000001F0000001C1002400A
:100120000000000418680040120000001C68004035
:100130000000000039050008B500000830B50B4686
:10014000014600202022012409E00D46D5409D42B1
:1001500005D31D469540491B254695404019154637
:10016000521E002DF1DC30BD064C0125064E05E087
:10017000E36807CC2B430C3C98471034B442F7D3C8
:10018000FFF79CFFE407000804080008FFB583B0F0
:100190000C46029400200190002726E000261CE077
:1001A000721C039951430846791CFFF7C7FF0546A7
:1001B000A54201D9281B00E0601B05460298A84211
:1001C00004D90295059806700698077002980028D1
:1001D00002D10120019002E0761C402EE0D300BF46
:1001E0000198002800D002E07F1C042FD6D300BF66
:1001F000029807B0F0BDFCB5024600250026019626
:100200000020002300240096CE7835072D0FCE78ED
:1002100010273E40002E01D08E7835430E78002EF8
:1002200027D01468002021E00126864033460E883E
:100230001E400196019E9E4217D183000F269E40CC
:1002400000962746009EB7433C462E469E403443C8
:10025000CE78282E03D101268640566105E0CE785F
:10026000482E02D1012686401661401C0828DBD3A7
:1002700014600E88FF2E2CDD5468002026E0064610
:1002800008360127B7403B460E881E400196019E66
:100290009E421AD183000F269E4000962746009E5C
:1002A000B7433C462E469E403443CE78282E04D198
:1002B000064608360127B7405761CE78482E04D14C
:1002C000064608360127B7401761401C0828D6D3D8
:1002D0005460FCBD41617047016170470021827824
:1002E000002A27D0184A03231B02D21803789B1038
:1002F0009B00D15802789207D30EFF229A400B46FA
:100300009343194642789207120E03789B07DB0E3F
:100310009A4011430C4A03231B02D21803789B1006
:100320009B00D1500278D306DB0E01229A40064B87
:100330001A6007E00278D306DB0E01229A40024BD6
:1003400080331A607047000000E100E010B5012121
:10035000014800F03DF910BD002C0140002905D0F6
:10036000054A52690243044B5A6104E0024A526949
:100370008243014B5A61704700100240002905D0AA
:10038000054A92690243044B9A6104E0024A926969
:100390008243014B9A6170470010024010B500F093
:1003A00001F810BD7FB50020039002905948006805
:1003B0000121090408435749086000BF55480068F7
:1003C00001214904084002900398401C03900298C0
:1003D000002804D10521090203988842EED14D4836
:1003E0000068012149040840002809D0012002903A
:1003F0007D25ED0000BF28466D1E0028FBD101E0E1
:1004000000200290029801287ED1434843490860A9
:1004100043480068102108434149086008460068C5
:10042000C008C00008603D490968481E3D49FFF703
:1004300085FE04463A48006820433949086035483B
:10044000406834494860084640684860334800685E
:100450003549884207D92F4840680121890208435D
:100460002C49486006E02B48406801218902084376
:1004700028494860274840680321090488432549E2
:100480004860084600680003000B086008464068A2
:100490000121090408431F4948606B4601AA1F480F
:1004A00001682248FFF772FE1A4800680003000B3B
:1004B00018490860694608798006097809050843E3
:1004C0001449096808431349086008460068012177
:1004D000090608430F49086000BF0E480068012163
:1004E000490608400028F8D00A4840688008800083
:1004F00008494860084640680221084305494860A9
:1005000000BF0448406800E003E00C2108400828D0
:10051000F7D17FBD0010024000D8B80500000020D0
:100520000020024000366E010051250200127A00C0
:1005300010B500F0C1F810BD10B5154800680121D4
:1005400008431349086008464068124908401049AA
:10055000486008460068104908400D490860084690
:1005600000680121890488430949086008464068F9
:100570007F21090488430649486008460068000353
:10058000000B08609F2000048860FFF707FF10BD84
:10059000001002400000FFF0FFFFF6FE10B5022140
:1005A000074800F023F8002808D00221044800F092
:1005B0000BF804480088401C0249088010BD000068
:1005C000002C014014000020CA4302617047000063
:1005D000002904D0026801231A43026003E0026884
:1005E000014B1A4002607047FEFF000030B5024622
:1005F00000200023002415690D402B46D5680D40CE
:100600002C46002B03D0002C01D0012000E000205C
:1006100030BD002A03D0C3680B43C36002E0C36847
:100620008B43C36070470000002203689AB2164BE8
:10063000984209D001239B07984205D0134B98425A
:1006400002D0134B984204D1124B1A408B881343AB
:100650009AB2114B1A408B8913439AB202608B688D
:10066000C3620B688362084B984208D0084B9842DB
:1006700005D00A4B984202D0094B984201D10B7C1D
:100680000363012343617047002C014000040040D4
:10069000000801408FFF0000FFFC00000044014003
:1006A000004801400349816000210160C160416050
:1006B00001747047FFFF000004480068002804D060
:1006C00002480068401E0149086070471800002079
:1006D00002E008C8121F08C1002AFAD1704770470B
:1006E000002001E001C1121F002AFBD1704708B5AC
:1006F0000E21684601700021417001218170FFF7D1
:10070000EDFD08BD30B585B004460D460121C80297
:10071000FFF734FE6846FFF7C5FF029500940020FE
:1007200003900190694608740448FFF77DFF012299
:1007300002210248FFF76DFF05B030BD002C0140DB
:1007400008B5012103208004FFF708FE1021684648
:100750000180012181701021C17069460548FFF7B1
:100760004AFD012189026846018069460248FFF777
:1007700042FD08BD0008004800040048FFF7E0FF04
:1007800010211448FFF7A8FD012189021248FFF744
:10079000A3FD12495F20FFF7B5FFFFF7A8FFFFF7A2
:1007A000D5FD15E00E480088FA2804D1102109482B
:1007B000FFF792FD0CE00A480088FF21F5318842DE
:1007C00006D110210348FFF785FD00200449088069
:1007D000E8E700000008004800040048E7030000C4
:1007E0001400002004080008000000201C00000085
:1007F000D0060008200800081C00002004040000A7
:10080000E006000800D8B805000000000000000065
:1008100001020304060708090000000000000000B0
:04000005080000B53A
:00000001FF
