:020000040800F2
:1000000028080020C9000008FB000008FD000008C7
:10001000FF000008010100080301000800000000C3
:1000200000000000000000000000000005010008C2
:10003000070100080000000009010008C50B0008C6
:10004000A90E00080D0100080D0100080D010008AF
:100050000D0100080D0100080D0100080D01000848
:100060000D0100080D0100080D0100080D01000838
:100070000D0100080D0100080D0100080D01000828
:100080000D0100080D0100080D0100080D01000818
:100090000D0100080D0100080D0100080D01000808
:1000A0000D0100080D0100080D010008490C0008B1
:1000B0000D0100080348854600F056F80048004747
:1000C000ED0F000828080020114880F30888114827
:1000D0000168090E104A9142FFD110481049016091
:1000E00010481149016011480F4901600B4810493F
:1000F00001601048804710480047FEE7FEE7FEE732
:10010000FEE7FEE7FEE7FEE7FEE7FEE7FEE70000AC
:1001100028080020040000001F0000001C100240FE
:100120000000000418680040120000001C68004035
:1001300000000000CD0B0008B500000830B50B46EC
:10014000014600202022012409E00D46D5409D42B1
:1001500005D31D469540491B254695404019154637
:10016000521E002DF1DC30BD064C0125064E05E087
:10017000E36807CC2B430C3C98471034B442F7D3C8
:10018000FFF79CFFAC180008CC18000870B58C185D
:100190000578401C6B075B0F01D10378401C2A11C6
:1001A00006D10278401C03E006780E70401C491C02
:1001B0005B1EF9D12B0705D40023521E0DD40B7002
:1001C000491CFAE70378401CCB1A921C03E01D7807
:1001D0000D70491C5B1C521EF9D5A142D8D30020DA
:1001E00070BDFFB583B00C4602940020019000273B
:1001F00026E000261CE0721C039951430846791C36
:10020000FFF79CFF0546A54201D9281B00E0601BB3
:1002100005460298A84204D90295059806700698EA
:1002200007700298002802D10120019002E0761C9C
:10023000402EE0D300BF0198002800D002E07F1CD0
:10024000042FD6D300BF029807B0F0BD002106E00E
:10025000064900BF0A464B1E99B2002AFAD102464F
:10026000431E98B2002AF3D170470000FFAF000090
:10027000002121498279002A35D00A461268036894
:100280009A430B461A600A46526803689A430B4623
:100290005A60027951180A6803681A430A60164ABC
:1002A000926803689A43144B9A601A46D2680368AE
:1002B0009A43114BDA604279102A0CD11A4692689F
:1002C00003681A430C4B9A601A46D26803681A43B3
:1002D000094BDA600EE00849427951180A68036850
:1002E0001A430A6006E00449027951180A68036853
:1002F0009A430A607047000000040140FCB50246C2
:100300000025002601960020002300240096CE78C8
:1003100035072D0FCE7810273E40002E01D08E7865
:1003200035430E78002E27D01468002021E00126E6
:10033000864033460E881E400196019E9E4217D18C
:1003400083000F269E4000962746009EB7433C46FA
:100350002E469E403443CE78282E03D10126864077
:10036000566105E0CE78482E02D1012686401661FE
:10037000401C0828DBD314600E88FF2E2CDD546847
:10038000002026E0064608360127B7403B460E8887
:100390001E400196019E9E421AD183000F269E4068
:1003A00000962746009EB7433C462E469E40344367
:1003B000CE78282E04D1064608360127B74057616B
:1003C000CE78482E04D1064608360127B74017617B
:1003D000401C0828D6D35460FCBD000008B501219C
:1003E000880400F077FA0F21090368460180032191
:1003F00081701021C17069464B48FFF77FFF0F21C4
:100400000903494800F0B7F801218903464800F084
:10041000B2F81420FFF71AFF01218903424800F0C7
:10042000A8F81420FFF712FF012189033E4800F0CD
:10043000A2F80021AE2000F013FA0021084600F0D7
:100440000FFA0021102000F00BFA0021402000F0EC
:1004500007FA0021812000F003FA0021CF2000F0EC
:10046000FFF90021A12000F0FBF90021C82000F0D5
:10047000F7F90021A62000F0F3F90021A82000F0F0
:10048000EFF900213F2000F0EBF90021D32000F02C
:10049000E7F90021084600F0E3F90021D52000F03B
:1004A000DFF90021802000F0DBF90021D92000F0E5
:1004B000D7F90021F12000F0D3F90021DA2000F073
:1004C000CFF90021122000F0CBF90021DB2000F051
:1004D000C7F90021402000F0C3F90021202000F0DE
:1004E000BFF90021022000F0BBF900218D2000F0AF
:1004F000B7F90021142000F0B3F90021A42000F086
:10050000AFF90021A62000F0ABF90021AF2000F0E8
:10051000A7F90021AF2000F0A3F900F0D8F80021DE
:10052000084600F02EF908BD00040048F0B500238D
:1005300000244D07EE0E1546B5402B46CD10002D7C
:100540000BD1056A4E07F70E0F26BE40B543056274
:10055000056A1D432C4604620AE0456A4E07F70E01
:100560000F26BE40B5434562456A1D432C46446292
:10057000F0BD4161704701617047000010B57D21F9
:10058000C90010480068FFF7D9FD0446601E0E49F7
:10059000884201D901200CE0601E0C49486103210A
:1005A000081F00F04DF80020084988610720086105
:1005B0000020002801D000BFFEE70021481E00F007
:1005C0003FF810BD00000020FFFFFF0000E000E04A
:1005D00000218278002A27D0184A03231B02D21850
:1005E00003789B109B00D15802789207D30EFF220C
:1005F0009A400B469343194642789207120E0378AD
:100600009B07DB0E9A4011430C4A03231B02D218AE
:1006100003789B109B00D1500278D306DB0E012299
:100620009A40064B1A6007E00278D306DB0E0122DF
:100630009A40024B80331A607047000000E100E0EE
:1006400010B5002819DA1A4A03071B0F083B9B084C
:100650009B00D2588307DC0EFF23A3409A438B07ED
:100660001B0E8407E40EA3401A43114B0407240F0A
:10067000083CA408A4001A5118E00E4A03231B02E8
:10068000D21883089B00D2588307DC0EFF23A340B7
:100690009A438B071B0E8407E40EA3401A43054BB5
:1006A000032424021B198408A4001A5110BD000061
:1006B0001CED00E000E100E008B51B216846017078
:1006C0000121817000214170FFF782FF08BD70B5E4
:1006D000002419E02146B031C8B2002100F0C0F872
:1006E0000021084600F0BCF80021102000F0B8F806
:1006F000002505E00121002000F0B2F8681CC5B219
:10070000802DF7DB601CC4B2082CE3DB70BDFFB5A5
:1007100083B006460F461C46002002902046E11793
:10072000490F0918C910C900611A05D1E117490F0D
:10073000091849050D0E06E02046E117490F091872
:10074000C910491CCDB23D4617E02946304600F09D
:1007500018F801960BE002994A1C02920C9A505C20
:10076000012100F07DF80198401CC0B2019005996C
:1007700001988842EFDB681CC5B2A542E5DB07B0F3
:10078000F0BD70B504460D462946B031C8B200210F
:1007900000F066F8F02121400911084610300021D0
:1007A00000F05EF82107090F0122114308460021DD
:1007B00000F056F870BD0000F8B506460D46174625
:1007C00000200090002438462038C0B200907F2ED0
:1007D00002DD0026A81CC5B229463046FFF7D1FF2E
:1007E000002409E00099090109190F4A505C012110
:1007F00000F036F8601CC4B2082CF3DB681CC1B2F0
:100800003046FFF7BEFF00240AE0009909010919EC
:100810000831054A505C012100F022F8601CC4B286
:10082000082CF2DBF8BD0000BB120008F8B5044646
:100830000F46154600260EE0AA5D39462046FFF712
:10084000BBFF20460830C4B2782C02DD0024B81C5F
:10085000C7B2701CC6B2A85D0028EDD1F8BD00007B
:1008600070B504460E46002E05D001210903184834
:10087000FFF781FE04E0012109031548FFF779FE27
:1008800000251CE00121C9031148FFF772FE8020FA
:100890002040002805D0012149030D48FFF76BFED9
:1008A00004E0012149030A48FFF763FE0121C9035F
:1008B0000748FFF760FE6006040E681CC5B2082DED
:1008C000E0DB012109030248FFF755FE70BD00007F
:1008D00000040048002905D0054A52690243044B30
:1008E0005A6104E0024A52698243014B5A617047DF
:1008F00000100240002905D0054AD2690243044B8A
:10090000DA6104E0024AD2698243014BDA6170473E
:1009100000100240002905D0054A92690243044BA9
:100920009A6104E0024A92698243014B9A617047DE
:1009300000100240FEB5044600250026002001906C
:1009400000900027344840680C2108400546042DDB
:1009500002D1324820603BE0082D32D12E48006899
:10096000800E461C2C480068072109050840000D30
:10097000401C019028484068690308400090009896
:10098000002807D12649714308460199FFF7D6FB95
:1009900020601DE0204840680121490408400028EB
:1009A00007D02049714308460199FFF7C7FB206033
:1009B0000EE01A49714308460199FFF7BFFB20601A
:1009C00006E00C2D02D11848206001E01348206099
:1009D00011484068F021084005462D091348475D3D
:1009E0002068F84060600C48406807210902084010
:1009F00005462D0A0D48475D6068F840A06006482E
:100A00004068C90008400546ED0A0848475D60682F
:100A1000F840E060FEBD00000010024000127A00C5
:100A2000001BB70000093D00409C0000140000209E
:100A300010B500F001F810BD7FB5002003900290C2
:100A4000594800680121090408435749086000BF5C
:100A50005548006801214904084002900398401C51
:100A600003900298002804D10521090203988842C6
:100A7000EED14D480068012149040840002809D002
:100A8000012002907D25ED0000BF28466D1E002844
:100A9000FBD101E000200290029801287ED143485A
:100AA00043490860434800681021084341490860F1
:100AB00008460068C008C00008603D490968481E33
:100AC0003D49FFF73BFB04463A480068204339495B
:100AD00008603548406834494860084640684860C6
:100AE000334800683549884207D92F4840680121BA
:100AF000890208432C49486006E02B4840680121E0
:100B000089020843284948602748406803210904AE
:100B1000884325494860084600680003000B0860C8
:100B2000084640680121090408431F4948606B4694
:100B300001AA1F4801682248FFF753FB1A480068C2
:100B40000003000B18490860694608798006097897
:100B50000905084314490968084313490860084611
:100B600000680121090608430F49086000BF0E48CC
:100B700000680121490608400028F8D00A4840686A
:100B80008008800008494860084640680221084300
:100B90000549486000BF0448406800E003E00C21BC
:100BA00008400828F7D17FBD0010024000D8B805E2
:100BB000000000200020024000366E010051250296
:100BC00000127A0010B500F033F810BD10B51548CA
:100BD000006801210843134908600846406812492B
:100BE00008401049486008460068104908400D490F
:100BF00008600846006801218904884309490860A3
:100C0000084640687F210904884306494860084631
:100C100000680003000B08609F2000048860FFF755
:100C200007FF10BD001002400000FFF0FFFFF6FEBE
:100C300004480068002804D002480068401E0149AA
:100C4000086070471C04002010B50221184800F00D
:100C50004DF801282AD1164800F09AF81549164A8D
:100C60001278885414480078401C134908700846CC
:100C70000078401E0F49085CFF2810D10846007814
:100C8000FE2808D10C4801780A4800F085F90020B8
:100C9000094908700AE000200749087006E0064884
:100CA0000078062802D100200349087010BD00001A
:100CB00000380140140400201A040020002904D048
:100CC000826901231A43826103E08269014B1A4061
:100CD00082617047FEFF00000246002093680B40CF
:100CE000002B01D0012000E00020704702460020C8
:100CF000D3680B40002B01D0012000E0002070479A
:100D0000002A03D003690B43036102E003698B43AC
:100D100003617047F0B587B004460D4600260020F9
:100D20000690059000272746E669FF21D03130461E
:100D300088430646A888E98808432989084306436A
:100D4000E661A66976097601A889698908430643A0
:100D5000A66101A8FFF7EEFD0C48874202D1039877
:100D6000069001E00498069029680698FFF7E6F9D6
:100D7000060929680698FFF7E1F90007000F0590BA
:100D800026620598606207B0F0BD00000044004094
:100D900001464868C0B27047CAB20260704700009E
:100DA00010B586B0044601214804FFF793FD0122E7
:100DB0000921C806FFF7BAFB01220A210920C00653
:100DC000FFF7B4FB01214902684681820321817546
:100DD0001821C17505A90920C006FFF78FFA012166
:100DE0008902684681820421C17505A90920C006CF
:100DF000FFF784FA01218803FFF78CFD019430216D
:100E00006846018100214181818101821821C181CF
:100E100001A90748FFF77EFF012202210448FFF7DE
:100E20006FFF01210248FFF749FF06B010BD000027
:100E30000038014010B5044603E02078641C00F03F
:100E400005F820780028F8D110BD000010B5044640
:100E500021460548FFF7A0FF00BF01210248FFF728
:100E60003BFF0028F9D010BD0038014000200149A7
:100E700088607047002C004080210143014A1160C6
:100E800070470000002C00400348406801214902DF
:100E90000843014948607047002C004001488068C1
:100EA000C0B27047002C004010B5FFF7F7FF0128D3
:100EB00004D17E2000F004F8FFF7D8FF10BD000039
:100EC0004106490E014A116070470000002C0040A5
:100ED0000021064A5268FF2381339A4311460A468D
:100EE00002431146014A516070470000002C004047
:100EF0000021054A5268D109C9014206520E114328
:100F0000014A516070470000002C004070B5054652
:100F10000C460121C802FFF7EDFCFF208130FFF7EE
:100F2000D7FF2046FFF7E4FFFFF7AEFF2846FFF7A5
:100F3000A3FF70BD10B5024A024900F014F810BDBD
:100F40009D0F00082004002002E008C8121F08C1FD
:100F5000002AFAD170477047002001E001C1121F3A
:100F6000002AFBD17047F8B516460F460446002507
:100F700003E03946B047641C6D1C20780028F8D186
:100F80002846F8BD0349086000BF024909680029E6
:100F9000FBD170471C0400207047000070B5044668
:100FA0000D46E0B2FFF752FF00BF01210348FFF7F3
:100FB00093FE0028F9D0204670BD000000380140A3
:100FC0000EB5012000060190002168460172012142
:100FD000817201A8FFF74CF9002168460170417049
:100FE00001218170FFF7F4FA0EBD000086B01C4BA2
:100FF0000FCB059302AB07C3FFF7F0F9FFF767FBD1
:10100000FFF7BCFAFFF758FBE1204002FFF7C8FEEC
:1010100014A0FFF70FFF16A0FFF78CFFFFF7D0FF1C
:101020007F217E20FFF772FF18E0FFF750FB02AA36
:1010300002211420FFF7FAFBFF20F530FFF7A2FF93
:10104000FFF745FB0E4808237E220021009008464A
:10105000FFF75DFBFF20F530FFF794FFE5E70000A9
:10106000841000084920414D2055415254310A0056
:1010700054484953204953204D4D33320A00000053
:101080002400002048656C6C6F2C20576F726C64D4
:101090002100000000000000000000002F00000000
:1010A000000700070000147F147F1400242A7F2A01
:1010B00012006264081323003649552250000005CF
:1010C00003000000001C224100000041221C00001F
:1010D00014083E08140008083E0808000000A0603C
:1010E00000000808080808000060600000002010E8
:1010F000080402003E5149453E0000427F40000086
:101100004261514946002141454B31001814127F7C
:1011100010002745454539003C4A494930000171D6
:1011200009050300364949493600064949291E0088
:101130000036360000000056360000000814224138
:1011400000001414141414000041221408000201B9
:1011500051090600324959513E007C1211127C009F
:101160007F49494936003E41414122007F414122A9
:101170001C007F49494941007F09090901003E419E
:1011800049497A007F0808087F0000417F4100003C
:101190002040413F01007F08142241007F40404031
:1011A00040007F020C027F007F0408107F003E4158
:1011B00041413E007F09090906003E4151215E0080
:1011C0007F091929460046494949310001017F013B
:1011D00001003F4040403F001F2040201F003F4093
:1011E00038403F00631408146300070870080700C4
:1011F000615149454300007F41410000552A552A6D
:1012000055000041417F00000402010204004040FB
:101210004040400000010204000020545454780073
:101220007F4844443800384444442000384444480B
:101230007F00385454541800087E0901020018A495
:10124000A4A47C007F080404780000447D400000D2
:101250004080847D00007F102844000000417F40D2
:1012600000007C04180478007C08040478003844EA
:1012700044443800FC242424180018242418FC00BA
:101280007C0804040800485454542000043F44409F
:1012900020003C4040207C001C2040201C003C40A2
:1012A00030403C004428102844001CA0A0A07C0032
:1012B0004464544C4414141414141400000000002A
:1012C0000000000000000000000000000000F80026
:1012D000000000000000333000000000100C061079
:1012E0000C0600000000000000000040C07840C074
:1012F000784000043F04043F040400007088FC08A8
:10130000300000001820FF211E0000F008F000E06F
:1013100018000000211C031E211E0000F008887028
:101320000000001E2123241927211010160E000092
:101330000000000000000000000000000000E018B5
:10134000040200000000071820400000020418E01A
:101350000000000040201807000000404080F0809E
:101360004040000202010F01020200000000F000F4
:101370000000000101011F01010100000000000048
:1013800000000080B07000000000000000000000BD
:101390000000000001010101010101000000000046
:1013A000000000003030000000000000000000805D
:1013B000601804006018060100000000E010080832
:1013C00010E000000F102020100F00001010F80097
:1013D0000000000020203F202000000070080808C6
:1013E00088700000302824222130000030088888CE
:1013F0004830000018202020110E000000C02010EE
:10140000F8000000070424243F240000F80888881E
:101410000808000019212020110E0000E010888823
:10142000180000000F112020110E0000380808C815
:101430003808000000003F00000000007088080825
:10144000887000001C222121221C0000E0100808E6
:1014500010E0000000312222110F00000000C0C087
:10146000000000000000303000000000000080009C
:1014700000000000008060000000000000804020AC
:1014800010080000010204081020004040404040C5
:101490004040000404040404040400000810204038
:1014A00080000000201008040201000070480808B5
:1014B00008F0000000003036010000C030C828E805
:1014C00010E0000718272423140B000000C038E0A8
:1014D000000000203C23020227382008F888888872
:1014E000700000203F202020110E00C030080808A6
:1014F000083800071820202010080008F8080808FD
:1015000010E000203F202020100F0008F88888E815
:10151000081000203F20202320180008F88888E8C1
:10152000081000203F200003000000C03008080819
:1015300038000007182020221E020008F8080000CA
:1015400008F808203F210101213F20000808F80881
:101550000800000020203F2020000000000808F8BC
:10156000080800C08080807F00000008F888C0283C
:10157000180800203F20012638200008F808000045
:10158000000000203F20202020300008F8F800F85C
:10159000F80800203F003F003F200008F830C0005E
:1015A00008F808203F200007183F00E0100808084E
:1015B00010E0000F10202020100F0008F808080885
:1015C00008F000203F210101010000E01008080898
:1015D00010E0000F18242438504F0008F88888883D
:1015E000887000203F2000030C302000708808081D
:1015F0000838000038202121221C00180808F808AB
:101600000818000000203F2000000008F808000033
:1016100008F808001F202020201F000878880000FC
:10162000C83808000007380E010000F80800F8006C
:1016300008F800033C0700073C0300081868808096
:1016400068180820302C03032C30200838C800C844
:101650003808000000203F2000000010080808C8DB
:101660003808002038262120201800000000FE0243
:101670000202000000007F40404000000C30C0002B
:10168000000000000000010638C00000020202FE57
:10169000000000004040407F000000000004020203
:1016A0000204000000000000000000000000000034
:1016B0000000008080808080808080000202040022
:1016C000000000000000000000000000008080809A
:1016D0008000000019242222223F2008F800808088
:1016E000000000003F112020110E0000000080804B
:1016F000800000000E1120202011000000008080DA
:1017000088F800000E112020103F2000008080800B
:10171000800000001F222222221300008080F08817
:101720008888180020203F20200000000080808052
:10173000808000006B94949493600008F80080808F
:10174000800000203F210000203F2000809898006A
:101750000000000020203F202000000000008098B2
:1017600098000000C08080807F000008F8000080A2
:10177000808000203F24022D302000000808F8005F
:101780000000000020203F2020000080808080801A
:10179000808000203F20003F20003F80800080802C
:1017A000800000203F210000203F2000008080803A
:1017B000800000001F202020201F008080008080EB
:1017C00000000080FFA12020110E0000000080809A
:1017D000808000000E112020A0FF8080808000808B
:1017E00080800020203F21200001000000808080B8
:1017F0008080000033242424241900008080E080AD
:101800008000000000001F202000008080000000F9
:10181000808000001F202020103F2080808000005A
:1018200080808000010E300806010080800080006A
:101830008080800F300C030C300F0000808000800F
:101840008080000020312E0E31200080808000003A
:1018500080808080818E70180601000080808080EA
:101860008080000021302C22213000000000008008
:101870007C020200000000003F404000000000FF2A
:1018800000000000000000FF0000000002027C8059
:101890000000000040403F0000000000060101027F
:1018A000020404000000000000000000CC18000842
:1018B00000000020240400008C0100089C1A00088D
:1018C0002404002004040000580F00081184D8B834
:1018D00005680901020304060708090CA91071052F
:1018E00021F0F0E08014F8FCF8073BC0F0F87E78B7
:1018F000700D10C0FFFFFE13071BFF9FC0C0F060FC
:10190000000D181C9EFFFFEFE7E3FDFEF0783805A1
:101910001780FEFCE050120E7CF8E0F0F87CFFF738
:10192000F3F178BCFCFEFE3C00101778F8FC7C3E1E
:10193000FFFF7F87C3C1E070F8F01A60391B7F7F1B
:10194000A4000817DFE771383C1E0719210514F0C1
:10195000FE3C181C7FFEFBF61B7F5F232EFEFF9FC5
:101960000701AC12801AC09227FCFF1FFF7B712B6E
:10197000FEFF150910D219241E781C0E06033A0327
:1019800017E0C0080913060E0E8FFFFF3F03424108
:101990001F7B7B7D3C3E9EE8553F1F0F031930287F
:1019A0000AFD030331BBFFFFEF027D0213FF1D079A
:1019B0000F1F0FEC1D787C7E3F7E09165E080D140C
:1019C00040F0F87E1F070D1C3CF8F0E0C01809F845
:1019D000F8FC7CBEFFFF7E7E620E253F7F7F1F15D9
:1019E000031F3F3F1E030F1E3F3F66011A1B183C9B
:1019F0007E01214A03D8D915B809070703E1E0C0E1
:101A0000C0DF41ABC0C0031905114908490119B332
:101A10001BC0C004591312802BC1C35B3916592F48
:101A2000690E6914693E5954992E113808C0C103D2
:101A3000C707C7C317291319FC1BFFC08E2DFFFF53
:101A40001FFD061E013FFCFF0F081BCCCC16280A09
:101A50001C7DF7C077EFCEFD7BAF29045501FFFE5B
:101A6000071E7FE1C0E17F13430C0C1B73FF241A98
:101A70000E1413F37F1A7F4F2A7F2E12014CFFEEB4
:101A80000CE8191413F3732BFFEF0F2965000A10EC
:0C1A90003FFFFF80FC3F33FFF000000030
:04000005080000B53A
:00000001FF
