:020000040800F2
:1000000070040020C9000008FB000008FD00000883
:10001000FF000008010100080301000800000000C3
:1000200000000000000000000000000005010008C2
:10003000070100080000000009010008351700084A
:10004000751E00080D0100080D0100080D010008D3
:100050000D0100080D0100080D0100080D01000848
:100060000D0100080D0100080D0100080D01000838
:100070000D0100080D0100080D0100080D01000828
:100080000D0100080D0100080D0100080D01000818
:100090000D0100080D0100080D0100080D01000808
:1000A0000D0100080D0100080D010008391C0008B1
:1000B0000D0100080348854600F0C0FB00480047DA
:1000C0007D27000870040020114880F3088811483B
:1000D0000168090E104A9142FFD110481049016091
:1000E00010481149016011480F4901600B4810493F
:1000F00001601048804710480047FEE7FEE7FEE732
:10010000FEE7FEE7FEE7FEE7FEE7FEE7FEE70000AC
:1001100070040020040000001F0000001C100240BA
:100120000000000418680040120000001C68004035
:10013000000000003D170008B500000830B50B4670
:10014000014600202022012409E00D46D5409D42B1
:1001500005D31D469540491B254695404019154637
:10016000521E002DF1DC30BD70B50024254600285C
:1001700001DA01244042002901DA01254942FFF752
:10018000DDFFAC4200D04042002C00D0494270BD9F
:10019000F0B507460846584087B0C00F04904800A5
:1001A0000E46590040084908BC1A884105D2384615
:1001B00031461E4617460B4602465800400810437B
:1001C0004CD0300D039040055900400D490D05906D
:1001D000401A0290402872DA18030121000B090529
:1001E0000843019004980092002805D001995242DA
:1001F0000020884100920190029840210A1A01993A
:10020000009800F0DFF905460C466B4607CB00F07E
:10021000FAF9C0197141039A0E0D0023D717564001
:100220001A467A40164344D0049A002A2DD0029AE6
:10023000012A039A15DC1205C01A914101263605E0
:10024000001C7141D20F059ED207009301920296C5
:100250002A46234600F038FA07B0F0BD384631464A
:10026000FAE71605224A0F46B218C01AB741012113
:100270000905001C4F4100187F41114618187941AB
:10028000E20F10436D19644113E0E2076D08154356
:100290006408C2071443039A01261205C01A91414B
:1002A0003605001C7141CE07400830434908C0188C
:1002B00051412A46234600F0FAF9CDE7FFE70498BA
:1002C00001224000C117121A00238B4104983146C5
:1002D000C417381AA141EEE730B40124E4076340A3
:1002E00030BC55E730B40124E407614030BC4FE72F
:1002F0000000E0FFF0B51FB488B00B990998002406
:1003000048400999C00F490049080991C0070B9955
:100310000090490049080B9109990898A64608439E
:100320001CD00B990A98084318D009980124400062
:10033000420D4800410D099824050003000B20439D
:1003400009900B980003000B20430B9050181C4998
:100350004018002201901446104605E00020014696
:100360000DB0F0BD032801DA034600E003239C46EC
:10037000C11A0AAE0AE05F0008ADED5B4F00F75B03
:100380007D430027AA187C41491C5B1E6145F2DDB4
:10039000410004AB5A522104120C0A43240C401CA5
:1003A0000828DFDB019802900099704601910090C7
:1003B000059B049A0799069800F086F9D0E700009B
:1003C0000DFCFFFFF0B50C465C4085B0E40FE40780
:1003D00003944C00002664085900944649080246DC
:1003E0000296224321D062460A431ED06200570D76
:1003F0004A000E032303550D012402462C4924050F
:10040000781B1B0B360B4018234326436146009094
:100410001C46501AB44103D30098401C009002E0DF
:10042000921800985B41002803DA0020014605B0CD
:10043000F0BD0020012109050746864611E064460B
:100440001D46141BB54106D36546521BB341744685
:1004500007430C43A646CD07400849082843921895
:100460005B4105460D43EAD11046184313D0604660
:10047000194650407140084306D06046101AB341F7
:1004800006D20122002306E000220123DB0702E05E
:100490000122D2435310009874460105381C614173
:1004A000029C039D0019694100F001F9BFE70000BB
:1004B000FD030000C217C10F504010B54018CA0715
:1004C0009623002100F0BAF810BD00000EB5C21747
:1004D000C10F5040CA0740180021054B02930192FA
:1004E00000910A460B4600F0EFF803B000BD000093
:1004F0003304000070B5CD0F4A0009030123090B36
:100500001B0519430B4BED070024520D9A4201DAEB
:10051000002070BD074B34339A4203DC9A1A00F076
:1005200061F802E00449511888402C43F1D0404260
:1005300070BD0000FF030000CDFBFFFFC20FD2071C
:10054000400040080BD0C10D0723DB01C918400251
:100550000905400A1143C2084007114370470020B3
:1005600001467047F0B51FB40646002082B005462C
:100570004024019100901BE0019922460F4630462D
:1005800000F030F8049A059B801A994110D3104668
:100590001946224600F016F8361A8F410197224676
:1005A00001200021009F00F00DF838184D41009007
:1005B0002046641E0028DFDC019B00982946324655
:1005C00007B0F0BD10B5202A04DB0146203A914067
:1005D000002010BD914020239C1A0346E34019439C
:1005E000904010BD10B5202A04DB0846203AD040C8
:1005F000002110BD0B46D340D0402024A21A9140C8
:100600000843194610BD10B5202A06DBCB17084653
:10061000203A1041C1170B4306E00B461341D0406E
:100620002024A21A91400843194610BD002904DA7B
:10063000401C490001D140084000704770B40024BC
:10064000050C05D11024000402D1002921D0112469
:10065000050E01D100020834050F01D10001241D4F
:10066000850F01D18000A41C002801DB4000641C20
:10067000002908D020252E1B0D46F540A14000D0B2
:1006800001212943084301061B1B000ADB1D02D57B
:10069000002070BC7047DB05181880180029F8DAB4
:1006A000401C4900F5D170BC40084000704710B5AF
:1006B000002B08DA0024401C614192185B411A4368
:1006C00001D14008400010BDF0B51FB482B005460E
:1006D0000C0003D0084601F005FC02E001F002FC2A
:1006E00020300246009021462846FFF76BFF049B0E
:1006F000059A04460F4618431143084314D0184680
:1007000010431BD0009840210A1A18460599FFF79C
:1007100069FF05460E46009A05990498FFF752FFB7
:10072000084305D0012004E02046394607B0F0BD5B
:100730000020C11705430E432C43374300990E9800
:100740006305401A7905E40A00220C43FD0A0A30C9
:1007500002D500200146E9E70105101969410C9C0A
:100760000D9D00196941FFF7A2FFDFE770B54B004F
:100770005B0803430BD04B005C0D002633466542FB
:10078000B341D417AD1AA34102DB0020014670BD6E
:1007900012053018514170BDFEB500231A461B1AD0
:1007A0008A4103DB0020014603B0F0BD4A000D037F
:1007B00001212D0B0905520D0D43D10702D100185F
:1007C0006D41521E5110FF31FF31013100270446A7
:1007D0003E46384600970191024601210020090556
:1007E000FFF700FFC3197141F818324684468E4660
:1007F0004A4161462846611A904104D36046241A52
:10080000954176461F46241900986D41401C009082
:100810003428E1DDF91930467041091BA84103D2A3
:100820000022D243134601E000221346019801053D
:10083000381C7141FFF73BFFB6E70000064C01256D
:10084000064E05E0E36807CC2B430C3C9847103478
:10085000B442F7D3FFF732FC98440008B8440008CC
:10086000FFB583B00C46029400200190002726E0DB
:1008700000261CE0721C039951430846791CFFF7BF
:100880005DFC0546A54201D9281B00E0601B05461A
:100890000298A84204D90295059806700698077038
:1008A0000298002802D10120019002E0761C402E1F
:1008B000E0D300BF0198002800D002E07F1C042F85
:1008C000D6D300BF029807B0F0BDFCB502460025A4
:1008D000002601960020002300240096CE783507DC
:1008E0002D0FCE7810273E40002E01D08E78354354
:1008F0000E78002E27D01468002021E001268640C3
:1009000033460E881E400196019E9E4217D18300F9
:100910000F269E4000962746009EB7433C462E4633
:100920009E403443CE78282E03D10126864056615E
:1009300005E0CE78482E02D1012686401661401C83
:100940000828DBD314600E88FF2E2CDD54680020AD
:1009500026E0064608360127B7403B460E881E4073
:100960000196019E9E421AD183000F269E4000965A
:100970002746009EB7433C462E469E403443CE78E1
:10098000282E04D1064608360127B7405761CE7895
:10099000482E04D1064608360127B7401761401C8F
:1009A0000828D6D35460FCBDF0B5002300244D07C1
:1009B000EE0E1546B5402B46CD10002D0BD1056A25
:1009C0004E07F70E0F26BE40B5430562056A1D436C
:1009D0002C4604620AE0456A4E07F70E0F26BE4019
:1009E000B5434562456A1D432C464462F0BD02464C
:1009F000002093680B40002B01D0012000E0002074
:100A000070474161704701617047000010B5FF21D8
:100A100001311048FFF7F5FF00F034FC01214902D5
:100A20000C48FFF7EEFF01F089FE01F087FE01F0B0
:100A300085FEFF2101310748FFF7E5FF01F07EFE4B
:100A400001F07CFE01F07AFEFF2101310148FFF741
:100A5000D8FF10BD0004004810B500F0E7FB00F01F
:100A600011FCFF2101310448FFF7CDFF01214902AC
:100A70000148FFF7C8FF10BD0004004810B5FF2172
:100A800001311048FFF7BDFF00F0FCFB01214902D6
:100A90000C48FFF7B8FF01F051FE01F04FFE01F0E6
:100AA0004DFEFF2101310748FFF7ADFF01F046FE83
:100AB00001F044FE01F042FEFF2101310148FFF741
:100AC000A0FF10BD0004004870B50546002400F0EA
:100AD000C3FB00261EE0FF2101311448FFF791FF00
:100AE00001F02CFE01F02AFE01F028FEFF21013169
:100AF0000E48FFF788FF6006040E012149020B48EB
:100B0000FFF775FF002801D0601CC4B201F016FE8B
:100B1000701CC6B2082EDEDB002D02D0FFF776FF78
:100B200001E0FFF7ABFF204670BD00000004004865
:100B300070B504460D46164600F092F8204600F0C7
:100B400057F800F0DFF8002803D000F0B3F80120D8
:100B500070BD284600F04CF800F0D4F800F080F8A2
:100B6000611CC8B200F044F800F0CCF80020FFF798
:100B7000ABFF307000F09EF80020E9E7FFB581B0D0
:100B800006460F461546002400F06AF8304600F08D
:100B90002FF800F0B7F8002804D000F08BF80120FF
:100BA00005B0F0BD384600F023F800F0ABF800F0D7
:100BB00057F8711CC8B200F01BF800F0A3F800242D
:100BC00010E0681EA04204D00120FFF77DFF0090D6
:100BD00003E00020FFF778FF009004990098085583
:100BE000601CC4B2AC42ECDB00F064F80020D7E734
:100BF00070B5044600F046FBFF2101311748FFF7AE
:100C000000FF002524E080202040002805D001219D
:100C100049021248FFF7F7FE04E0012149020F489C
:100C2000FFF7EFFEFF2101310C48FFF7ECFE01F06A
:100C300085FD6006040E01F081FD01F07FFDFF21BE
:100C400001310648FFF7DDFE01F078FD681CC5B2F2
:100C5000082DD8DB01F072FD70BD000000040048D3
:100C600010B500F00FFB012149021148FFF7CBFE40
:100C7000FF2101310E48FFF7C6FE01F05FFD01F0D4
:100C80005DFD01F05BFD01F059FD01F057FD012113
:100C900049020748FFF7B5FE01F050FD01F04EFD97
:100CA00001F04CFDFF2101310148FFF7AAFE10BD04
:100CB0000004004810B500F0E5FAFF2101311048AA
:100CC000FFF79FFE012149020D48FFF79AFE01F050
:100CD00035FD01F033FD01F031FDFF210131084800
:100CE000FFF791FE01F02AFD01F028FD01F026FD3D
:100CF000012149020248FFF786FE01F01FFD10BDE9
:100D00000004004810B5002400F0A6FA01214902B1
:100D10001148FFF778FE01F011FDFF2101310E4867
:100D2000FFF771FE01F00AFD07E0601CC4B2642CFD
:100D300003DDFFF7BFFF012010BD01214902064876
:100D4000FFF755FE0028F0D1FF2101310248FFF7DF
:100D500058FE0020F0E700000004004870B5064689
:100D60000C461546FFF77CFF3046FFF741FFFFF7C3
:100D7000C9FF002803D0FFF79DFF012070BD20466A
:100D8000FFF736FFFFF7BEFF2846FFF731FFFFF7FB
:100D9000B9FF002803D0FFF78DFF0120EEE7FFF732
:100DA00089FF0020EAE7000010B57D21C900104846
:100DB0000068FFF7C3F90446601E0E49884201D956
:100DC00001200CE0601E0C4948610321081F00F05F
:100DD00001FB0020084988610720086100200028E5
:100DE00001D000BFFEE70021481E00F0F3FA10BD5D
:100DF00000000020FFFFFF0000E000E0F0B587B03A
:100E000004460221615E49430422A25E52438818CF
:100E1000FFF75CFB0191009001F08CFD05910490BF
:100E20000020205EFFF746FB0746FFF787FB039194
:100E30000290059B049AFFF7C5FA05460E46284620
:100E4000314601F039FB00223D4B01910090FFF744
:100E500051FA3C4A3C4B03910290FFF7B3FA0591DB
:100E60000490FFF747FB00B2A0810021615E494377
:100E70000422A25E52438818FFF728FB01910090DC
:100E800001F058FD059104900220205EFFF712FB4F
:100E90000746FFF753FB03910290059B049AFFF767
:100EA00091FA05460E462846314601F005FB002220
:100EB000234B01910090FFF71DFA224A224B039128
:100EC0000290FFF77FFA05910490FFF713FB00B241
:100ED000E0810022A25E52430221615E4943501824
:100EE000FFF7F4FA0191009001F024FD05910490C0
:100EF0000420205EFFF7DEFA0746FFF71FFB039191
:100F00000290059B049AFFF75DFA05460E462846B7
:100F1000314601F0D1FA0022094B01910090FFF710
:100F2000E9F9084A084B03910290FFF74BFA059143
:100F30000490FFF7DFFA00B2208207B0F0BD000096
:100F400000209C406F1283C0CA2109407CB5044632
:100F50006B46062203210C2000F05AF90546002DAD
:100F600017D168464078010268460078014308B20C
:100F700060826846C078010268468078014308B202
:100F8000A08268464079000269460979084300B2A8
:100F9000E08209210C2000F02FF928467CBD7FB5A6
:100FA00004466B460E223B21682000F031F90546CD
:100FB000002D2FD168460078010268464078014331
:100FC00008B220806846807801026846C0780143F4
:100FD00008B26080684600790102684640790143A2
:100FE00008B2A0806846007A01026846407A014350
:100FF00008B2E0806846807A01026846C07A014300
:1010000008B220816846007B00026946497B08439C
:1010100000B26081284604B070BD000010B5FFF733
:101020001BFD002480226B21682000F08FF9041939
:10103000642001F059FB00226B21682000F086F942
:101040000419032000F03DF90419012000F030F9E3
:1010500004197D20C00000F05BF90419002238213A
:10106000682000F073F9041902221A21682000F0A8
:101070006DF9041900226A21682000F067F904194B
:1010800000222321682000F061F90419822237210F
:10109000682000F05BF9041901226B21682000F040
:1010A00055F9041900226C21682000F04FF9041949
:1010B000002C03D12BA000F0F1FE04E02FA000F0E3
:1010C000EDFE012010BD7521682000F095F8044662
:1010D000712C01D0732C03D12EA000F0DFFE12E0A2
:1010E00032A000F0DBFE214636A000F0D7FE36A08D
:1010F00000F0D4FE712133A000F0D0FE32A000F049
:10110000CDFE0220DEE700210C2000F075F8044639
:10111000482C12D101220B210C2000F017F90419E0
:10112000142001F0E1FA16220A210C2000F00EF939
:10113000041926A000F0B2FE12E029A000F0AEFED5
:10114000214620A000F0AAFE1FA000F0A7FE482123
:101150001CA000F0A3FE1CA000F0A0FE0220B1E73E
:101160000020AFE74D50553932353020736574207B
:101170006973204F4B210D0A000000004D50553976
:1011800032353020736574206973206572726F7216
:10119000210D0A004D5055363530305F494431201D
:1011A0006973204F4B210D0A000000004D50553649
:1011B0003530305F494431206973206572726F7237
:1011C000210D0A00257800000D0A0000414B383936
:1011D00036335F4944206973204F4B210D0A0000CC
:1011E000414B383936335F49442069732065727248
:1011F0006F72210D0A00000038B504460D466106E5
:10120000080E6A462946FFF793FC6846007838BD09
:10121000F8B504460D4616461F466106080E3B46C5
:1012200032462946FFF7AAFCF8BD000010B501219F
:10123000880400F017F9FF200130054908800320D9
:1012400088701020C8700348FFF73FFB10BD0000F6
:10125000300000200004004810B50121880400F08F
:1012600001F90120400205490880032088704820C8
:10127000C8700348FFF729FB10BD000030000020B4
:101280000004004810B50121880400F0EBF80120AB
:10129000400205490880032088701020C870034868
:1012A000FFF713FB10BD00003000002000040048D1
:1012B00010B50446E006020E1C21682000F046F836
:1012C00010BD10B50446E006020E1B21682000F098
:1012D0003DF810BD70B504460025BC2C01DB01258E
:1012E00010E0622C01DB02250CE02A2C01DB032537
:1012F00008E0142C01DB042504E00A2C01DB0525A1
:1013000000E006252A461A21682000F01FF870BD6B
:1013100070B504467D20C000844200DD0446042CE4
:1013200000DA042421467D20C000FEF71DFF401E88
:10133000C5B22A461921682000F008F82646E10FB8
:101340008919C903080CFFF7C5FF70BD70B50446C5
:101350000D4616466106080E32462946FFF7FEFC8A
:1013600070BD000000218278002A27D0184A03238C
:101370001B02D21803789B109B00D1580278920769
:10138000D30EFF229A400B469343194642789207A8
:10139000120E03789B07DB0E9A4011430C4A03237D
:1013A0001B02D21803789B109B00D1500278D30601
:1013B000DB0E01229A40064B1A6007E00278D30642
:1013C000DB0E01229A40024B80331A607047000006
:1013D00000E100E010B5002819DA1A4A03071B0FD4
:1013E000083B9B089B00D2588307DC0EFF23A340D9
:1013F0009A438B071B0E8407E40EA3401A43114B3C
:101400000407240F083CA408A4001A5118E00E4A4F
:1014100003231B02D21883089B00D2588307DC0EDB
:10142000FF23A3409A438B071B0E8407E40EA340BF
:101430001A43054B032424021B198408A4001A51E3
:1014400010BD00001CED00E000E100E008B51B212C
:10145000684601700121817000214170FFF782FF11
:1014600008BD0000002905D0054A52690243044B1B
:101470005A6104E0024A52698243014B5A61704743
:1014800000100240002905D0054A92690243044B2E
:101490009A6104E0024A92698243014B9A61704763
:1014A00000100240FEB504460025002600200190F1
:1014B00000900027344840680C2108400546042D60
:1014C00002D1324820603BE0082D32D12E4800681E
:1014D000800E461C2C480068072109050840000DB5
:1014E000401C01902848406869030840009000981B
:1014F000002807D12649714308460199FEF71EFED0
:1015000020601DE02048406801214904084000286F
:1015100007D02049714308460199FEF70FFE20606D
:101520000EE01A49714308460199FEF707FE206054
:1015300006E00C2D02D11848206001E0134820601D
:1015400011484068F021084005462D091348475DC1
:101550002068F84060600C48406807210902084094
:1015600005462D0A0D48475D6068F840A0600648B2
:101570004068C90008400546ED0A0848475D6068B4
:10158000F840E060FEBD00000010024000127A004A
:10159000001BB70000093D00409C00001400002023
:1015A00010B500F001F810BD7FB500200390029047
:1015B000594800680121090408435749086000BFE1
:1015C0005548006801214904084002900398401CD6
:1015D00003900298002804D105210902039888424B
:1015E000EED14D480068012149040840002809D087
:1015F000012002907D25ED0000BF28466D1E0028C9
:10160000FBD101E000200290029801287ED14348DE
:101610004349086043480068102108434149086075
:1016200008460068C008C00008603D490968481EB7
:101630003D49FEF783FD04463A4800682043394996
:10164000086035484068344948600846406848604A
:10165000334800683549884207D92F48406801213E
:10166000890208432C49486006E02B484068012164
:101670008902084328494860274840680321090433
:10168000884325494860084600680003000B08604D
:10169000084640680121090408431F4948606B4619
:1016A00001AA1F4801682248FFF7DAF81A480068C3
:1016B0000003000B1849086069460879800609781C
:1016C0000905084314490968084313490860084696
:1016D00000680121090608430F49086000BF0E4851
:1016E00000680121490608400028F8D00A484068EF
:1016F0008008800008494860084640680221084385
:101700000549486000BF0448406800E003E00C2140
:1017100008400828F7D17FBD0010024000D8B80566
:10172000000000200020024000366E01005125021A
:1017300000127A0010B500F073FA10BD10B515480C
:1017400000680121084313490860084640681249AF
:1017500008401049486008460068104908400D4993
:101760000860084600680121890488430949086027
:10177000084640687F2109048843064948600846B6
:1017800000680003000B08609F2000048860FFF7DA
:1017900007FF10BD001002400000FFF0FFFFF6FE43
:1017A00010B52A2000F0D8F9002000F0A3F900209D
:1017B00000F0A0F9002000F09DF9A82000F09AF9AF
:1017C0002B2000F0C9F9002000F094F9002000F06F
:1017D00091F9002000F08EF9B32000F08BF92C2055
:1017E00000F0BAF910BD70B50646FFF7D9FF002426
:1017F00008E0002503E0304600F0E0F96D1C842D80
:10180000F9D3641CA22CF4D370BD000038B5044693
:1018100001218804FFF726FE1F21C90268460180C6
:10182000032181701021C17069467748FFF74DF898
:101830000121C9027448FFF7E4F8322000F087FF65
:101840000121C9027048FFF7DEF8322000F07FFF67
:10185000112000F081F90A2000F079FF3A2000F011
:101860007BF9552000F046F9262000F075F9042098
:1018700000F040F9F22000F06FF9012000F03AF991
:10188000E02000F069F93F2000F034F9252000F055
:1018900031F91C2000F02EF91E2000F02BF9202039
:1018A00000F028F9122000F025F92A2000F022F992
:1018B000902000F01FF9242000F01CF9112000F006
:1018C00019F9002000F016F9002000F013F90020AB
:1018D00000F010F9002000F00DF9002000F00AF9E6
:1018E000E12000F039F9202000F004F9202000F078
:1018F00001F9202000F0FEF8202000F0FBF8052080
:1019000000F0F8F8002000F0F5F8152000F0F2F8EB
:10191000A72000F0EFF83D2000F0ECF8182000F0D0
:10192000E9F8252000F0E6F82A2000F0E3F82B2063
:1019300000F0E0F82B2000F0DDF83A2000F0DAF8B3
:10194000B12000F009F9002000F0D4F8002000F0E8
:10195000D1F8B42000F000F9072000F0CBF8C02047
:1019600000F0FAF80A2000F0C5F8022000F0C2F8F2
:10197000C12000F0F1F8022000F0BCF8C52000F012
:10198000EBF84F2000F0B6F85A2000F0B3F8C7206B
:1019900000F0E2F8402000F0ADF82A2000F0DCF87A
:1019A000002000F0A7F8002000F0A4F8002000F0CC
:1019B000A1F8A82000F09EF82B2000F0CDF8002020
:1019C00000F098F8002000F095F8002000F092F860
:1019D000B32000F08FF8362000F0BEF8002C03D0C2
:1019E000C02000F087F802E0A02000F083F8B720C4
:1019F00000F0B2F8002000F07DF8292000F0ACF8EB
:101A00002C2000F0A9F838BD00040048FFB581B0D3
:101A100004460D46681C0001401E83B2601CC000D5
:101A2000401E82B22805010CE004000C009000F07A
:101A300039F800271AE0002614E003982038400106
:101A40000C4940187900405A0121B1400840002853
:101A500003D0049800F0B2F802E00A9800F0AEF863
:101A6000701C86B2082EE8DB781C87B2102FE2DBF0
:101A700005B0F0BD462E0008FFB581B005460F4603
:101A800014460A9E09E000962278641C28466B1CC6
:101A90009DB23946049BFFF7B9FF20780028F2D1A8
:101AA00005B0F0BDF8B507460C4615461E462A207F
:101AB00000F052F8002000F01DF8384600F01AF847
:101AC000002000F017F8284600F014F82B2000F052
:101AD00043F8002000F00EF8204600F00BF800203C
:101AE00000F008F8304600F005F82C2000F034F83B
:101AF000F8BD000070B50446012109031548FEF742
:101B000082FF002522E0012149031248FEF779FFF8
:101B1000012000F033FF80202040002805D0012163
:101B200089030C48FEF76FFF04E00121890309488F
:101B3000FEF767FF012149030648FEF764FF012015
:101B400000F01CFF6004040C681C85B2082DDADB71
:101B500070BD00000004004870B50446012109036F
:101B60001548FEF74EFF002522E0012149031248E7
:101B7000FEF747FF012000F001FF802020400028F1
:101B800005D0012189030C48FEF73DFF04E0012147
:101B900089030948FEF735FF012149030648FEF78E
:101BA00032FF012000F0EAFE6004040C681C85B2DC
:101BB000082DDADB70BD00000004004870B5044653
:101BC000012109031548FEF71EFF002523E001212E
:101BD00049031248FEF715FF012000F0CFFE012057
:101BE000C0032040002805D0012189030B48FEF7DF
:101BF0000AFF04E0012189030848FEF702FF0121E2
:101C000049030648FEF7FFFE012000F0B7FE60041E
:101C1000040C681C85B2102DD9DB70BD000400488F
:101C200004480068002804D002480068401E0149AA
:101C3000086070472C00002010B50221184800F001
:101C40004DF801282AD1164800F09AF81549164A8D
:101C50001278885414480078401C134908700846CC
:101C60000078401E0F49085CFF2810D10846007814
:101C7000FE2808D10C4801780A4800F03FFD0020FA
:101C8000094908700AE000200749087006E0064884
:101C90000078062802D100200349087010BD00001A
:101CA00000380140240000202A000020002904D030
:101CB000826901231A43826103E08269014B1A4061
:101CC00082617047FEFF00000246002093680B40CF
:101CD000002B01D0012000E00020704702460020C8
:101CE000D3680B40002B01D0012000E0002070479A
:101CF000002A03D003690B43036102E003698B43AD
:101D000003617047F0B587B004460D4600260020F9
:101D10000690059000272746E669FF21D03130461E
:101D200088430646A888E98808432989084306436A
:101D3000E661A66976097601A889698908430643A0
:101D4000A66101A8FFF7AEFB0C48874202D10398B9
:101D5000069001E00498069029680698FEF7EEF9CF
:101D6000060929680698FEF7E9F90007000F0590B3
:101D700026620598606207B0F0BD00000044004094
:101D800001464868C0B27047CAB20260704700009E
:101D900010B586B0044601214804FFF763FB012219
:101DA0000921C806FEF700FE01220A210920C0060B
:101DB000FEF7FAFD012149026846818203218175FF
:101DC0001821C17505A90920C006FEF77EFD012175
:101DD0008902684681820421C17505A90920C006CF
:101DE000FEF773FD01218803FFF74CFB01943021BE
:101DF0006846018100214181818101821821C181D0
:101E000001A90748FFF77EFF012202210448FFF7DE
:101E10006FFF01210248FFF749FF06B010BD000027
:101E20000038014010B5044603E02078641C00F03F
:101E300005F820780028F8D110BD000010B5044640
:101E400021460548FFF7A0FF00BF01210248FFF728
:101E50003BFF0028F9D010BD0038014000200149A7
:101E600088607047002C004001488068C0B270470D
:101E7000002C004010B5FFF7F7FF012804D17E20A9
:101E800000F004F8FFF7EAFF10BD00004106490E1C
:101E9000014A116070470000002C00400FB410B5DB
:101EA00003A9044B044A029800F0C6F810BC08BC11
:101EB00004B0184701270008340000200FB410B503
:101EC00004A9074B02AA039800F0B6F8044602A939
:101ED000002000F0EBFA204610BC08BC04B0184704
:101EE000AD2400082021020C01D010211046020A66
:101EF00001D010460839020901D01046091F820896
:101F000001D01046891E420801D0881E7047081A69
:101F1000704700004900CA020243100000D00420AC
:101F20004A0D01D001221043044A490D914201D1CA
:101F300002210843012800D105207047FF07000057
:101F4000F8B504464F1EC8000838211815461E462D
:101F5000086849683A4606239A4310D02A46334611
:101F6000FEF7C8F93A46D200083AA3181A687F1E4D
:101F70005B68FEF70DF906223B469343EED1022F34
:101F800023D0042F11D0062F2FD12A463346FEF737
:101F9000B1F9E36AA26AFEF7FBF82A463346FEF778
:101FA000A9F9636A226AFEF7F3F82A463346FEF778
:101FB000A1F9E369A269FEF7EBF82A463346FEF77A
:101FC00099F963692269FEF7E3F82A463346FEF77A
:101FD00091F9E368A268FEF7DBF82A463346FEF77C
:101FE00089F963682268FEF7D3F8F8BD10B50122BD
:101FF000FEF7BCFB10BD0000034A10B5002011071E
:10200000FEF7B4FB10BD000001FDFFFF02E008C8B1
:10201000121F08C1002AFAD170477047002001E062
:1020200001C1121F002AFBD170470000014908605E
:102030007047000038000020FFB591B00F460546FC
:10204000002606E025280AD0149A139990476D1CA3
:10205000761C28780028F5D1304615B0F0BD002454
:1020600000940121F34A029400E004436D1C2B7894
:102070000846203B98401042F7D128782A280ED0F5
:10208000022128780246303A092A15D8009A0A23F4
:102090005A43303A80180C436D1C0090F1E701CF91
:1020A0000090002805DA01204003044300984042D4
:1020B0000090022004436D1C28782E2815D104209E
:1020C000044368786D1C2A280AD101CF6D1C029048
:1020D0000BE002990A225143303940186D1C0290DE
:1020E0002878014630390929F3D928786C2810D08E
:1020F00006DC4C281AD068280ED06A2817D104E0D4
:10210000742813D07A2812D110E00120400504432E
:102110000CE00121090501E0032109050C43697860
:10212000814203D10120000524186D1C6D1C287804
:1021300003906E281ED00CDC632831D004DC00280C
:102140008AD0582811D1B2E064287BD069280CD1FC
:1021500078E073282DD004DC6F2870D0702804D16B
:10216000A7E075286CD078286BD0149A1399904703
:10217000761C62E06002400F022807D003280AD0D4
:10218000042838680AD006603F1D56E03868F11709
:1021900006604160F8E738680680F5E70670F3E707
:1021A0003878694608740020487404A80390012018
:1021B00003E0386803900020C0433F1D61070FD53E
:1021C000002101E00199491C029A0191914213DA20
:1021D0008142F7DB019A0399895C0029F2D10BE077
:1021E000002101E00199491C01918142FADB019A29
:1021F0000399895C0029F5D101990098139A401A36
:1022000000902146149B00F03BF901998019461873
:1022100007E0039803990078491C0391149A1399D5
:1022200090470198401E0190401CF2D12146149B1A
:10223000139A009800F014F986196D1C09E741E023
:1022400033E034E00A200021049005916002410F40
:10225000022905D001CFC2179446032905D007E013
:10226000FF1DFF08FF0003CF06E000B2C21794462F
:10227000042902D140B2C1178C4600226146944520
:1022800006DA0A460021404291418C462D2102E0A7
:10229000210504D52B216A461176012103E0E107CF
:1022A00001D02021F7E7019154E00A200BE0102033
:1022B00009E0102004900021042004430820059127
:1022C000029003E008200021059104906002410F74
:1022D000022905D001CF00229446032906D006E04A
:1022E000FF1DFF08FF0003CF8C4603E080B20429E6
:1022F00000D1C0B20021019121072BD5039970298B
:1023000006D0049A1021059B4A401A4305D00EE0DE
:1023100040216A461176012108E06146014306D05A
:1023200030216A4611760399517602210191049A6F
:102330000821059B4A401A430CD16146014301D153
:10234000610707D530216A46117601210191029972
:10235000491E02910399582904D037A103910FA96E
:102360000F910DE039A1F9E76146059B049AFEF74C
:10237000F9F8039B8C469B5C0F9A521E0F921370C8
:1023800061460143F0D10F9807A9081A2030039045
:10239000600704D5012000048443029801E0012075
:1023A00002900399884201DD401A00E000204118A4
:1023B0000290019809180098401A0090E00306D492
:1023C0002146149B139A009800F05AF886190020B1
:1023D000049008E006A9085C149A139990470498A1
:1023E000401C761C049001998842F3DBE0030CD575
:1023F0002146149B139A009800F042F8861904E0D5
:10240000149A302013999047761C0299481E029026
:102410000029F5DC08E00F980F990078491C0F910E
:10242000149A13999047761C0399481E039000292B
:10243000F1DCFBE609280100303132333435363720
:102440003839616263646566000000003031323300
:1024500034353637383941424344454600000000A0
:10246000F8B5044600251E461746880404D405E046
:1024700039462020B0476D1C641EF9D52846F8BDAA
:10248000FFB50446002581B01E46C80301D530279C
:1024900000E02027880404D505E038460399B047BA
:1024A0006D1C641EF9D5284605B0F0BD0A68531CA2
:1024B0000B60107070470000F0B589B004460D46FF
:1024C0004800069172494008884215DB71498842EC
:1024D00003DC884207D1002C05D020462946FFF7AF
:1024E00085FD09B0F0BD6C48002D02DD6B4909B0D7
:1024F000F0BD6B4909B0F0BD6A49884211DA6A49FA
:1025000088420BDA20462946FFF704FD042801D152
:10251000FFF772FD2046294609B0F0BD0026F643BC
:102520005DE06D0061496D08884232DA6049884299
:1025300019DA0026012332469B0720462946FDF77B
:1025400027FE07460191012220462946FEF70EF993
:102550000022584BFDF7C0FE3A46019BFDF732FFC3
:1025600004460D463BE001260022524B20462946F8
:10257000FDF70EFE0746009100224E4B20462946ED
:10258000FDF7AAFE3A46009BFDF71CFF04460D46E8
:1025900025E04949884219DA02260022474B2046A5
:1025A0002946FDF7A7FE0022424BFDF7F1FD074645
:1025B00002910022414B20462946FDF78DFE3A4606
:1025C000029BFDF7FFFE04460D4608E00326224667
:1025D0002B4600203A49FDF7F5FE04460D462246FB
:1025E0002B4610461946FDF785FE07460B46024668
:1025F0000191FDF77FFE0246029032480B4603919F
:1026000006217844FFF79CFC3A46019BFDF772FED9
:1026100000902D48019105217844039B029AFFF711
:102620008FFC039B029AFDF765FE02460B4601995B
:102630000098002E0BDAFDF7ABFD22462B46FDF786
:1026400059FE22462B46FDF74DFE09B0F0BDFDF7C1
:102650009FFD22462B46FDF74DFE1C4AF6007A44AC
:1026600093191A685B68FDF737FE22462B46FDF783
:1026700033FE174A7A4493191A685B68FDF732FEF5
:10268000069A002AE1DA0122D207514009B0F0BDD2
:10269000000010440000F07F182D4454FB21F93F46
:1026A000FB21F9BF0000DC3F0000203E0000F33FAB
:1026B0000000E63F0000F03F008003400000F83FCC
:1026C0000000F0BF621E0000241E0000BE1D0000BE
:1026D000881D00000349086000BF024909680029FD
:1026E000FBD170472C0000200146002001E000BF14
:1026F000401CFF222D329042F9DB704770470000EA
:1027000070B504460D46E0B2FFF798FB00BF01210B
:102710000348FFF7D9FA0028F9D0204670BD000021
:102720000038014010B504462046FEF738FC20462C
:10273000FEF70CFC2046FEF761FB10BD002000BF39
:1027400002E000BF411CC8B21E28FADB704708B582
:10275000002100910BE00021009103E000BF0099EF
:10276000491C00917D22120100999142F6D3014645
:10277000421E90B20029EED108BD00008AB0FEF7DB
:1027800013FBFEF763FEE1204002FFF701FB4AA0C6
:10279000FFF748FB4BA0FFF781FB0120FFF736F85E
:1027A0000020FFF720F8FEF739FC00280CD00020AD
:1027B000484B49A2014600900120FFF75DF94AA06D
:1027C000FFF76CFB00BFFEE70A20FFF783FF4B48D3
:1027D000FFF7A8FF6EE04A48FFF7A4FF48490C2026
:1027E000085E46490C23CB5EC21A46A102A8FFF739
:1027F00065FB0020374B02AA03210090FFF73CF94C
:102800003F490E20085E3D490E23CB5EC21A3FA110
:1028100002A8FFF753FB00202E4B02AA04210090D0
:10282000FFF72AF936491020085E34491023CB5EA1
:10283000C21A38A102A8FFF741FB0020254B02AACB
:1028400005210090FFF718F92D491220085E2B4949
:102850001223CB5EC21A31A102A8FFF72FFB002082
:102860001C4B02AA07210090FFF706F92449142007
:10287000085E22491423CB5EC21A2AA102A8FFF7E0
:102880001DFB0020134B02AA08210090FFF7F4F86B
:102890001B491620085E19491623CB5EC21A23A1D4
:1028A00002A8FFF70BFB00200A4B02AA09210090A7
:1028B000FFF7E2F88FE700004920414D20554152D3
:1028C00054310A0054484953204953204D4D333266
:1028D0000A000000FFFF00003932353020546573D4
:1028E00074204661696C00004D50553932353020F6
:1028F000496E6974204661696C0D0A003C00002035
:10290000560000207A783A25303664007A793A25E4
:10291000303664007A7A3A25303664006D783A258C
:10292000303664006D793A25303664006D7A3A2588
:1029300030366400F8B506460C46FDF72DFF051E3F
:102940000F4600D00120014349000B484908411AB5
:10295000C90F0DD0002E01D0012100E000210C4351
:1029600061004908401AC00F02D10120FFF75EFB49
:1029700028463946F8BD00000000F07F00E000BFA7
:102980000146401E0029FAD17047000000000000F7
:102990000000000000000000000000004F000000E8
:1029A0000000000000000700000007000000000019
:1029B00014007F0014007F001400000024002A008F
:1029C0007F002A00120000002300130008006400AA
:1029D000620000003600490055002200500000004F
:1029E00000000500030000000000000000001C00C3
:1029F00022004100000000000000410022001C00F5
:102A000000000000140008003E0008001400000050
:102A1000080008003E000800080000000000500008
:102A20003000000000000000080008000800080056
:102A300008000000000060006000000000000000CE
:102A40002000100008000400020000003E005100B9
:102A5000490045003E000000000042007F004000A9
:102A600000000000420061005100490046000000E3
:102A70002100410045004B00310000001800140007
:102A800012007F00100000002700450045004500AF
:102A9000390000003C004A004900490030000000B5
:102AA0000100710009000500030000003600490024
:102AB000490049003600000006004900490029008D
:102AC0001E0000000000360036000000000000007C
:102AD000000056003600000000000000080014004E
:102AE0002200410000000000140014001400140033
:102AF0001400000000004100220014000800000043
:102B000002000100510009000600000032004900E7
:102B1000790041003E0000007E001100110011000C
:102B20007E0000007F004900490049003E0000008F
:102B30003E00410041004100220000007F004100B2
:102B4000410022001C0000007F00490049004900AC
:102B5000410000007F000900090009000100000099
:102B60003E004100490049007A0000007F00080053
:102B7000080008007F000000000041007F004100C5
:102B8000000000002000400041003F000100000064
:102B90007F00080014002200410000007F00400078
:102BA00040004000400000007F00020004000200DE
:102BB0007F0000007F000400080010007F0000007C
:102BC0003E004100410041003E0000007F0009003E
:102BD00009000900060000003E00410051002100EC
:102BE0005E0000007F000900190029004600000077
:102BF0004600490049004900310000000100010081
:102C00007F000100010000003F0040004000400044
:102C10003F0000001F002000400020001F000000B7
:102C20003F004000380040003F00000063001400F7
:102C30000800140063000000030004007800040092
:102C400003000000610051004900450043000000FE
:102C500000007F0041004100000000001500160048
:102C60007C001600150000000000410041007F00BC
:102C70000000000004000200010002000400000047
:102C80004000400040004000400000000000010003
:102C90000200040000000000200054005400540012
:102CA000780000007F004800440044003800000025
:102CB0003800440044004400200000003800440074
:102CC000440048007F0000003800540054005400C5
:102CD0001800000008007E0009000100020000004A
:102CE0000C005200520052003E0000007F0008001D
:102CF0000400040078000000000044007D00400053
:102D0000000000002000400044003D0000000000E2
:102D10007F00100028004400000000000000410077
:102D20007F004000000000007E0002000C00020056
:102D30007C0000007E000400020002007C00000015
:102D40003800440044004400380000007C001400B7
:102D500014001400080000000800140014001800FB
:102D60007C0000007C000800040004000800000053
:102D700048005400540054002000000004003F00AC
:102D800044004000200000003C00400040002000C3
:102D90007C0000001C002000400020001C000000FF
:102DA0003C004000300040003C000000440028008F
:102DB00010002800440000000C005000500050009B
:102DC0003C0000004400640054004C00440000003B
:102DD0000000080036004100000000000000000074
:102DE0007F000000000000000000410036000800E5
:102DF00000000000080004000800100008000000A7
:102E0000080008002A001C000800000008001C0040
:102E10002A00080008000000040002007F000200F1
:102E200004000000100020007F00200010000000BF
:102E30001C002A0032002A001C0000001C00220096
:102E4000440022001C000000000000000000000000
:102E50000000000000000000000000000000000072
:102E60000000000000000000000010001000100032
:102E700010001000100010001000000000001000F2
:102E800010000000000000000000240024002400C6
:102E9000240000000000000000000000000000000E
:102EA000000000000000000000004800480048004A
:102EB000FE00240024002400240024007F001200CF
:102EC000120012000000000010007C00920092002E
:102ED0001200140018003000500090009200920080
:102EE0007C0010000000000000008C0092005200E6
:102EF00032002C001000080068009400920092003C
:102F00006000000000000000000018002400240001
:102F1000240018009800A400A20042004200A20071
:102F20009C000000000000000000100010001000D5
:102F30001000000000000000000000000000000081
:102F40000000000000000000200010000800080041
:102F50000400040004000400040004000800080049
:102F60001000200000000000040008001000100005
:102F70002000200020002000200020001000100071
:102F80000800040000000000000000000000000035
:102F900008002A001C0014002200000000000000AD
:102FA0000000000000000000000000000000100011
:102FB00010001000FE0010001000100000000000C3
:102FC0000000000000000000000000000000000001
:102FD00000000000000000000000000000001000E1
:102FE00010000800000000000000000000000000C9
:102FF00000000000FE0000000000000000000000D3
:1030000000000000000000000000000000000000C0
:1030100000000000000000000000000000001000A0
:1030200010000000000000000000400040002000F0
:103030002000100010000800080004000400020036
:103040000200000000000000000038004400820080
:10305000820082008200820082008200820044009E
:103060003800000000000000000010001C001000EC
:1030700010001000100010001000100010001000D0
:10308000100000000000000000003C004200420070
:103090004000400020001000080004000200020070
:1030A0007E0000000000000000003C0042004200E2
:1030B000400040003C004000400040004200420010
:1030C0003C000000000000000000600060005000B4
:1030D00050004800480044004400FE00400040000A
:1030E000400000000000000000007E00020002001E
:1030F00002003E004200400040004000420042000A
:103100003C0000000000000000003C0042004200C3
:10311000020002003E004200420042004200420023
:103120003C0000000000000000007E004000200085
:10313000200010001000100008000800080008001F
:10314000080000000000000000003C0042004200B7
:10315000420042003C004200420042004200420065
:103160003C0000000000000000003C004200420063
:103170004200420042007C00400040004200420009
:103180003C000000000000000000000000000800FB
:103190000800000000000000000008000800000017
:1031A000000000000000000000000000000010000F
:1031B00010000000000000000000100010001000CF
:1031C0000800000000000000000000004000300087
:1031D0000800060001000600080030004000000062
:1031E00000000000000000000000000000000000DF
:1031F0000000FE0000000000FE00000000000000D3
:1032000000000000000000000000000002000C00B0
:10321000100060008000600010000C000200000040
:1032200000000000000000000000380044008200A0
:10323000820040002000100010001000000010006C
:103240001000000000000000000038004400820070
:10325000B200AA00AA00AA00AA00D20002008400BC
:1032600078000000000000000000100010001000B6
:10327000280028002800440044007C0082008200CE
:10328000820000000000000000003E0042008200BA
:10329000820042003E004200820082008200420022
:1032A0003E000000000000000000380044008200E2
:1032B000820002000200020002008200820044003C
:1032C000380000000000000000003E004200420004
:1032D000820082008200820082008200420042005E
:1032E0003E000000000000000000FE00020002009E
:1032F000020002007E000200020002000200020042
:10330000FE000000000000000000FE0002000200BD
:10331000020002007E000200020002000200020021
:10332000020000000000000000003800440082009D
:10333000020002000200E200820082008200C4005B
:10334000B80000000000000000008200820082003F
:1033500082008200FE0082008200820082008200E1
:1033600082000000000000000000100010001000AB
:1033700010001000100010001000100010001000CD
:1033800010000000000000000000200020002000CD
:103390002000200020002000200020002200220029
:1033A0001C0000000000000000008200420022001B
:1033B00012000A00060006000A0012002200420065
:1033C0008200000000000000000002000200020075
:1033D00002000200020002000200020002000200DD
:1033E0007E00000000000000000082008200C60095
:1033F000C600AA00AA0092009200920082008200F9
:1034000082000000000000000000820086008600AC
:103410008A008A0092009200A200A200C200C200AC
:10342000820000000000000000003800440082001C
:1034300082008200820082008200820082004400BA
:10344000380000000000000000003E004200820042
:103450008200820042003E000200020002000200E0
:10346000020000000000000000003800440082005C
:10347000820082008200820082008200A20044005A
:10348000B80000000000000000003E004200820082
:103490008200820042003E004200820082008200E0
:1034A000820000000000000000007C00820082001A
:1034B000020004001800200040008000820082000A
:1034C0007C000000000000000000FE001000100062
:1034D000100010001000100010001000100010006C
:1034E0001000000000000000000082008200820046
:1034F00082008200820082008200820082008200BC
:103500007C000000000000000000820082008200B9
:103510004400440044002800280028001000100047
:1035200010000000000000000000920092009200D5
:1035300092009200AA00AA00AA004400440044009D
:1035400044000000000000000000820082004400EF
:103550004400280010002800280044004400820095
:103560008200000000000000000082008200440091
:103570004400280028001000100010001000100067
:10358000100000000000000000007E00400020004D
:1035900020001000100008000800040004000200D1
:1035A0007E0000000000000078000800080008000D
:1035B00008000800080008000800080008000800CB
:1035C00008007800000000000000920092009200C5
:1035D000FF009200AA00AA00AA0044004400440090
:1035E00044000000000000001E0010001000100049
:1035F000100010001000100010001000100010004B
:1036000010001E0000000000100028004400000010
:1036100000000000000000000000000000000000AA
:10362000000000000000000000000000000000009A
:10363000000000000000000000000000000000008A
:103640000000FE0000000000040008001000000060
:10365000000000000000000000000000000000006A
:10366000000000000000000000000000000000005A
:1036700000003C00420040007C004200420042004A
:10368000BC00000000000000000002000200020078
:1036900002003A004600820082008200820046005A
:1036A0003A000000000000000000000000000000E0
:1036B0000000780084000200020002000200840082
:1036C0007800000000000000000080008000800002
:1036D0008000B800C4008200820082008200C40022
:1036E000B800000000000000000000000000000022
:1036F0000000380044008200FE0002000200840046
:1037000078000000000000000000700008000800C1
:1037100008007E00080008000800080008000800F3
:103720000800000000000000000000000000000091
:10373000000058006400420042004200640058004B
:1037400042003C00000000000000020002000200F5
:1037500002003A004600420042004200420042009D
:1037600042000000000000000000100010000000F7
:1037700000001000100010001000100010001000D9
:103780001000000000000000000010001000000009
:1037900000001000100010001000100010001000B9
:1037A00010000C00000000000000020002000200F7
:1037B0004200220012000A0006000A001200220045
:1037C0004200000000000000000010001000100087
:1037D0001000100010001000100010001000100069
:1037E00010000000000000000000000000000000C9
:1037F00000006E00920092009200920092009200EF
:103800009200000000000000000000000000000026
:1038100000003A00460042004200420042004200DE
:103820004200000000000000000000000000000056
:1038300000003800440082008200820082004400C0
:103840003800000000000000000000000000000040
:1038500000003A00460082008200820046003A00E2
:103860000200020000000000000000000000000054
:103870000000B800C400820082008200C400B800CA
:103880008000800000000000000000000000000038
:10389000000074000C000400040004000400040094
:1038A0000400000000000000000000000000000014
:1038B00000003C00420002000C00300040004200CA
:1038C0003C000000000000000000080008000800A4
:1038D00008007E0008000800080008000800080032
:1038E0007000000000000000000000000000000068
:1038F00000004200420042004200420042004200FA
:103900007C0000000000000000000000000000003B
:1039100000008200820044004400280028001000BB
:103920001000000000000000000000000000000087
:1039300000008200920092009200AA006C004400F5
:103940004400000000000000000000000000000033
:1039500000008200440028001000100028004400ED
:1039600082000000000000000000000000000000D5
:10397000000082008200440044002800280010005B
:1039800010000E0000000000000000000000000019
:1039900000007E004000200010000800040002002B
:1039A0007E00000000000000600010001000100009
:1039B000100010000C00100010001000100010008B
:1039C0001000600000000000100010001000100047
:1039D0001000100010001000100010001000100067
:1039E0001000100000000000060008000800080099
:1039F000080008003000080008000800080008005F
:103A000008000600000000000000000000000000A8
:103A100000008C00720000000000000000000000A8
:103A2000000000000000B1B1BEA9C1FAC7F1C7F0A3
:103A3000D6C7C4DCBFC6BCBCCCD4B1A6B5EAD2BA2A
:103A4000BEA7B5A5C6ACBBFAD6C7C4DCB3B5C6F72E
:103A5000C8CBC6F4B6AFD6D0B5E7D1B9C1BFB2BBFB
:103A6000D7E3C7EBC9D4BAF2A3ACA3A1A3BAA1E62A
:103A7000B9A5BBF7D3E9C0D6C4A3CABDC6D5CDA8E6
:103A8000B8F1B6B7B6D4BBB0B8A9CED4B3C5B5B942
:103A9000C1A2CED5CAD6BEB4C0F1CCF8CEE8B5B876
:103AA000D4CBB6AFC0B6BEABC1E9CCABBCABBDD618
:103AB000CEE8CEC2B6C8A1AAD0A1000440044004FA
:103AC00040044404487C5004600440044004400422
:103AD0004004421C42E442443E040002000100FF54
:103AE000FE000000001FF01010101010101FF00159
:103AF00000111011082104450402000420041004E0
:103B0000100400FFFE048004880488049008A008C4
:103B1000C0108211822282447E80000000033E3C5D
:103B2000222024202420283FA422242222222222D0
:103B300022223427A8F82040200020001000781FFF
:103B40008010001000100010001FFC1040104010EA
:103B500040104010401040FFFE000020003E7C4816
:103B6000440844FF441444227C40001FF01010100D
:103B7000101FF0101010101FF010101040244442BD
:103B800048FF70014000427E42423E42007E444275
:103B90004842707E4042424A42443E08101D10F0A6
:103BA0009010901010FD10109038903410501E534B
:103BB000F090101010101010101010102010201085
:103BC0002013FEFC201020102015FC18843088D013
:103BD0004810501020105051882606010021001175
:103BE000FC1204850441E44284108417F42084E22A
:103BF000A422A423E4200420280010020001007F56
:103C0000FE4002800400007FFC0100010001003F33
:103C1000F8010001200110FFFE0000010000803FBC
:103C2000FE20802080208020FC2080208027F82417
:103C30000824084408440887F80408008020401736
:103C4000FE11208120423C4244166412942348E233
:103C500048223022202250228803060FE008200844
:103C6000200FE0082008200FE000007EFC42844284
:103C7000847EFC428442847EFC428410100820042E
:103C8000403FF8210821083FF8210821083FF801AA
:103C9000000100FFFE010001000100004010401083
:103CA00040104010401FFC1000100010001FE010DA
:103CB0002010201020202020204020100011F01182
:103CC000101110FD101110311039105510551091B0
:103CD00010111211121212120E140020003E7C4814
:103CE000440844FF441444227C40001FF01010108C
:103CF000101FF0101010101FF0101010402444423C
:103D000048FF70014000427E42423E42007E4442F3
:103D10004842707E4042424A42443E020002000253
:103D2000007FFC04000900110021003FF8010001A0
:103D300000FFFE010001000100010000003E7C22A6
:103D40004422443E7C01200110FFFE02800C6030C2
:103D500018C0063E7C224422443E7C010001000142
:103D600000010001000100028002800440044008BC
:103D70002008201010200840048002010000801F4D
:103D8000FC1004100410041FFC1000100010001799
:103D9000FC24042404440487FC0404004000407C08
:103DA00040004001FC0044FE44204420442084485C
:103DB000844484FD0445040228041001000100012C
:103DC0000001003FF8210821082108210821083FAF
:103DD000F8210801000100010001000100010001BB
:103DE000003FF82108210821083FF8210821082177
:103DF000083FF8210A0102010200FE00003FFE20F8
:103E00000020802080208020802FFC2080208020A7
:103E1000902088208840805FFE800000001FF01006
:103E2000101FF01010FFFE00001FF011101FF01106
:103E3000101FF001001FF001007FFC00007FFC005C
:103E400080008001000100034005200910110821B5
:103E5000044104810001000100010000001FF01076
:103E6000101010101010101FF001000100110011AF
:103E7000F811002900250043FE8000004040402743
:103E8000FC204003F80040E7FE200023F82208232E
:103E9000F822082BF832082228021008201D24F0EE
:103EA000A410A81020FDFC1104310439FC55045560
:103EB0000491FC1104110411141108100013F810DE
:103EC0000828082FFE69006900ABF82C4028402F15
:103ED000FE284028A0211022082C06000000000027
:103EE00000000000000000000000000000000000D2
:103EF000003800380018003000000000000000000A
:103F0000000E000E000E000E000E000C000C000053
:103F10000000000E000E0000000000000000000085
:103F20000000000000000000000000000030003031
:103F30000000003000300000000000600091F496A6
:103F40000C6C040804180018001800180018001859
:103F50000008000C04060801F0000000600060008A
:103F600060FFC018FF198C1BCC18CC18CC1878181F
:103F7000781F30F87860CC0186FFFF018001800156
:103F8000803FFC018001800180FFFF0180018031C2
:103F90008C318C318C318C3FFCFFFF300033FC3393
:103FA0000C330CFFFC6C006C006FFCCC606C603F51
:103FB000FF18603CF06D98C30CFFFF003000F81F45
:103FC0008018001980318031803FFE01800DB00DD6
:103FD00098198C318661860780FFFF199819981F00
:103FE000FE1998FE001BFC3B0C3FFC7F0C7BFCD8B1
:103FF000601FFE18F019981B0CFFFF006C00660094
:10400000660060FFFF006000603F600C600C600CA9
:10401000300C330F9B7C0F3007FFFF0C3006607FA6
:10402000FE0660366C1E78FFFF00001FF818181897
:10403000181FF8181818181FF81818000067FC3017
:104040001831F0006007FEF666366637FE366636D3
:104050006637FE3666367E7E0CCFFF18C018C01855
:10406000FC198CFF981EF038603CF07F9C7B07DFCA
:10407000FC198C198C198C19FC198C0060066003D2
:1040800060036018600C600C60006000FF7FE0005F
:1040900060006000600060006000600018001800B0
:1040A000187F1803FF031836181ED80C780C781EDA
:1040B000181B183318601800780030000C303E19B7
:1040C000F01830003003FFF8301830183019FE199E
:1040D0008619861F861D8619FE0186186018301FF6
:1040E000FF360036CC76CC778CF7FF378C37EC3741
:1040F000BC37BC3D8C3D8C39BC319800307FF06CB6
:10410000306C306C307FB861BC61B661B37FB36C2A
:10411000306C306C307FF00030003019B618FC1B6A
:10412000FF1B03FEFC18CC18FC1E0E1DF83830F9DE
:10413000FE18301BFF183078F03060180618061F84
:10414000E6331E331E76DE77FEF19E319E37FE315A
:104150009E319E31E63F06361E300C030001800181
:104160008000007FFE0000001818180C300C30068C
:1041700060066006C00000FFFF0000300033FE3321
:10418000063306FFFE330033FE3F603BCCF3FE33C5
:1041900036333037FE3630FC307BFF001800FC3FF2
:1041A00080018001803FFC018001800180FFFF01D0
:1041B000800180018001800780030033303330FFAD
:1041C000F0333F60667FE661E6C1F67FBC67BC679F
:1041D000987F9867BC01BC0F6606C330C018C01832
:1041E000C0FCC00CC018C018C03CC07EC0DEC018E7
:1041F000C018C618C618C6187E180000787E7866E3
:104200007867FB66FE7E7C1878187C18FE7FFB784A
:1042100078787878DB7EDBF19B030F18003FFE6F28
:10422000F00FF07FFE0FF00FF07FFE181818183F08
:10423000FE63181ED80CFF3818E018FFE1821FBB80
:10424000DDBAEDBB6B837FEFDFEE31EEFDA2FDAE9D
:1042500031AEFDAEFDA2FD1E01FEFD000033FC18D7
:10426000001800000007FEF86018C019981B0C1F0A
:10427000FE1B0618003C0067FF0000006000607E27
:1042800060006001FE0066FF663066306630C66C16
:10429000C666C6FF866786033C061808200820FF0E
:1042A000FE08200480248024FC24A0251000003F68
:1042B000F8244824482448FFFE00001020102095D0
:1042C000FE542058FC1020FDFE300038FC5484546D
:1042D000FC908410FC10841094108800003FF800BB
:1042E0000800081FF8000800083FF801001110112D
:1042F0001022A0044008203018C00601000100016F
:104300000001000100FFFE010001000280028004A4
:104310004004400A2011102108C006100013FC10B0
:10432000841088FC881090309C3884554455449102
:10433000281128121012281444118211001100278C
:10434000DC4100810017C0203E6108A10827C82178
:1043500008210821C82E082428201010003FFC4AFC
:10436000A00AA07FFC0AA00AA07FFC101010103E3B
:10437000FC4210149008FE3010C010000023F81208
:1043800008120883F84208420813F8100027FCE4DA
:10439000A424A424A424A42FFE0000010000803F34
:1043A000FE222022203FFC2220222023E020002F7A
:1043B000F02410422041C08630380E00000000007A
:1043C00000000000000000000000000000000000ED
:1043D0000000000000000000000000000000E000FD
:1043E0000000FF00000020408000000804030000DF
:1043F00040807F0000000000010E0000000000006F
:104400004FBB610567ACDD3F182D4454FB21E93FEC
:104410009BF681D20B73EF3F182D4454FB21F93FDB
:10442000E2652F227F2B7A3C075C143326A6813C61
:10443000BDCBF07A8807703C075C143326A6913C0C
:10444000C4EB98999999C9BF711623FEC671BCBF78
:104450006D9A74AFF2B0B3BF9AFDDE522DDEADBFE0
:104460002F6C6A2C44B4A2BF0D5555555555D53FF8
:10447000FF8300922449C23F6E204CC5CD45B73F13
:10448000513DD0A0660DB13FEB0D76244B7BA93F8B
:1044900011DA22E33AAD903FB84400080000002052
:1044A0003C0000000C200008F44400083C00002000
:1044B000340400001C20000800D8B80500000000EB
:1044C00000000000010203040607080900000000C4
:1044D00001020304010203040607080900000000AA
:1044E00000000000000000000000000000000000CC
:0444F00000000000C8
:04000005080000B53A
:00000001FF
