:020000040800F2
:1000000038040020C9000008FB000008FD000008BB
:10001000FF000008010100080301000800000000C3
:1000200000000000000000000000000005010008C2
:10003000070100080000000009010008410700084E
:100040000D0100080D0100080D0100080D01000858
:100050000D0100080D0100080D0100080D01000848
:100060000D0100080D0100080D0100080D01000838
:100070000D0100080D0100080D0100080D01000828
:100080000D0100080D0100080D0100080D01000818
:100090000D0100080D0100080D0100080D01000808
:1000A0000D0100080D0100080D010008C50700083A
:1000B0000D0100080348854600F056F80048004747
:1000C000610A000838040020114880F308881148AC
:1000D0000168090E104A9142FFD110481049016091
:1000E00010481149016011480F4901600B4810493F
:1000F00001601048804710480047FEE7FEE7FEE732
:10010000FEE7FEE7FEE7FEE7FEE7FEE7FEE70000AC
:1001100038040020040000001F0000001C100240F2
:100120000000000418680040120000001C68004035
:100130000000000049070008B500000830B50B4674
:10014000014600202022012409E00D46D5409D42B1
:1001500005D31D469540491B254695404019154637
:10016000521E002DF1DC30BD064C0125064E05E087
:10017000E36807CC2B430C3C98471034B442F7D3C8
:10018000FFF79CFF9C0A0008BC0A0008FFB583B07B
:100190000C46029400200190002726E000261CE077
:1001A000721C039951430846791CFFF7C7FF0546A7
:1001B000A54201D9281B00E0601B05460298A84211
:1001C00004D90295059806700698077002980028D1
:1001D00002D10120019002E0761C402EE0D300BF46
:1001E0000198002800D002E07F1C042FD6D300BF66
:1001F000029807B0F0BDFCB5024600250026019626
:100200000020002300240096CE7835072D0FCE78ED
:1002100010273E40002E01D08E7835430E78002EF8
:1002200027D01468002021E00126864033460E883E
:100230001E400196019E9E4217D183000F269E40CC
:1002400000962746009EB7433C462E469E403443C8
:10025000CE78282E03D101268640566105E0CE785F
:10026000482E02D1012686401661401C0828DBD3A7
:1002700014600E88FF2E2CDD5468002026E0064610
:1002800008360127B7403B460E881E400196019E66
:100290009E421AD183000F269E4000962746009E5C
:1002A000B7433C462E469E403443CE78282E04D198
:1002B000064608360127B7405761CE78482E04D14C
:1002C000064608360127B7401761401C0828D6D3D8
:1002D0005460FCBDF0B5002300244D07EE0E15461A
:1002E000B5402B46CD10002D0BD1056A4E07F70EF9
:1002F0000F26BE40B5430562056A1D432C460462C5
:100300000AE0456A4E07F70E0F26BE40B543456228
:10031000456A1D432C464462F0BD000010B57D21A6
:10032000C90010480068FFF709FF0446601E0E4927
:10033000884201D901200CE0601E0C49486103216C
:10034000081F00F04DF80020084988610720086167
:100350000020002801D000BFFEE70021481E00F069
:100360003FF810BD00000020FFFFFF0000E000E0AC
:1003700000218278002A27D0184A03231B02D218B2
:1003800003789B109B00D15802789207D30EFF226E
:100390009A400B469343194642789207120E03780F
:1003A0009B07DB0E9A4011430C4A03231B02D21811
:1003B00003789B109B00D1500278D306DB0E0122FC
:1003C0009A40064B1A6007E00278D306DB0E012242
:1003D0009A40024B80331A607047000000E100E051
:1003E00010B5002819DA1A4A03071B0F083B9B08AF
:1003F0009B00D2588307DC0EFF23A3409A438B0750
:100400001B0E8407E40EA3401A43114B0407240F6C
:10041000083CA408A4001A5118E00E4A03231B024A
:10042000D21883089B00D2588307DC0EFF23A34019
:100430009A438B071B0E8407E40EA3401A43054B17
:10044000032424021B198408A4001A5110BD0000C3
:100450001CED00E000E100E008B51B2168460170DA
:100460000121817000214170FFF782FF08BD00006B
:10047000002905D0054A52690243044B5A6104E041
:10048000024A52698243014B5A6170470010024090
:10049000002905D0054A92690243044B9A6104E0A1
:1004A000024A92698243014B9A61704700100240F0
:1004B000FEB504460025002600200190009000278C
:1004C000344840680C2108400546042D02D13248CA
:1004D00020603BE0082D32D12E480068800E461C7B
:1004E0002C480068072109050840000D401C0190B8
:1004F000284840686903084000900098002807D108
:100500002649714308460199FFF718FE20601DE057
:1005100020484068012149040840002807D02049AC
:10052000714308460199FFF709FE20600EE01A4961
:10053000714308460199FFF701FE206006E00C2D8B
:1005400002D11848206001E013482060114840683B
:10055000F021084005462D091348475D2068F84002
:1005600060600C48406807210902084005462D0AD2
:100570000D48475D6068F840A06006484068C900C3
:1005800008400546ED0A0848475D6068F840E060AD
:10059000FEBD00000010024000127A00001BB700F0
:1005A00000093D00409C00001400002010B500F040
:1005B00001F810BD7FB500200390029059480068F3
:1005C0000121090408435749086000BF55480068E5
:1005D00001214904084002900398401C03900298AE
:1005E000002804D10521090203988842EED14D4824
:1005F0000068012149040840002809D00120029028
:100600007D25ED0000BF28466D1E0028FBD101E0CE
:1006100000200290029801287ED143484349086097
:1006200043480068102108434149086008460068B3
:10063000C008C00008603D490968481E3D49FFF7F1
:100640007DFD04463A480068204339490860354832
:10065000406834494860084640684860334800684C
:100660003549884207D92F4840680121890208434B
:100670002C49486006E02B48406801218902084364
:1006800028494860274840680321090488432549D0
:100690004860084600680003000B08600846406890
:1006A0000121090408431F4948606B4601AA1F48FD
:1006B00001682248FFF76AFD1A4800680003000B32
:1006C00018490860694608798006097809050843D1
:1006D0001449096808431349086008460068012165
:1006E000090608430F49086000BF0E480068012151
:1006F000490608400028F8D00A4840688008800071
:100700000849486008464068022108430549486096
:1007100000BF0448406800E003E00C2108400828BE
:10072000F7D17FBD0010024000D8B80500000020BE
:100730000020024000366E010051250200127A00AE
:1007400010B500F033F810BD10B515480068012150
:100750000843134908600846406812490840104998
:10076000486008460068104908400D49086008467E
:1007700000680121890488430949086008464068E7
:100780007F21090488430649486008460068000341
:10079000000B08609F2000048860FFF707FF10BD72
:1007A000001002400000FFF0FFFFF6FE0448006862
:1007B000002804D002480068401E014908607047C4
:1007C0002C00002010B50221184800F04DF8012837
:1007D0002AD1164800F09AF81549164A127888541A
:1007E00014480078401C1349087008460078401EE1
:1007F0000F49085CFF2810D108460078FE2808D170
:100800000C4801780A4800F017F9002009490870DF
:100810000AE000200749087006E00648007806282C
:1008200002D100200349087010BD000000380140CB
:10083000240000202A000020002904D0826901231E
:100840001A43826103E08269014B1A40826170475A
:10085000FEFF00000246002093680B40002B01D0F1
:10086000012000E00020704702460020D3680B40C2
:10087000002B01D0012000E000207047002A03D0A7
:1008800003690B43036102E003698B430361704713
:10089000F0B587B004460D4600260020069005906E
:1008A00000272746E669FF21D031304688430646B7
:1008B000A888E9880843298908430643E661A669B0
:1008C00076097601A889698908430643A66101A8CB
:1008D000FFF7EEFD0C48874202D10398069001E035
:1008E0000498069029680698FFF728FC06092968ED
:1008F0000698FFF723FC0007000F05902662059875
:10090000606207B0F0BD0000004400400146486846
:10091000C0B27047CAB202607047000010B586B01E
:10092000044601214804FFF7A3FD01220921C8065E
:10093000FFF7D0FC01220A210920C006FFF7CAFCFC
:100940000121490268468182032181751821C17500
:1009500005A90920C006FFF74EFC0121890268465F
:1009600081820421C17505A90920C006FFF743FC57
:1009700001218803FFF78CFD019430216846018135
:1009800000214181818101821821C18101A907488B
:10099000FFF77EFF012202210448FFF76FFF0121CC
:1009A0000248FFF749FF06B010BD000000380140C3
:1009B00010B5044603E02078641C00F005F82078A8
:1009C0000028F8D110BD000010B5044621460548A6
:1009D000FFF7A0FF00BF01210248FFF73BFF0028FF
:1009E000F9D010BD0038014010B5024A024900F0AC
:1009F00014F810BD3D0A00083000002002E008C8CD
:100A0000121F08C1002AFAD170477047002001E088
:100A100001C1121F002AFBD17047F8B516460F46D8
:100A20000446002503E03946B047641C6D1C20785D
:100A30000028F8D12846F8BD7047000070B504467C
:100A40000D46E0B2FFF7C0FF00BF01210348FFF7EA
:100A500001FF0028F9D0204670BD00000038014099
:100A6000FFF75CFCFFF7F8FCE1204002FFF756FFC0
:100A700003A0FFF79DFF05A0FFF7B6FF00BFFEE74D
:100A80004920414D2055415254310A0054484953A0
:100A9000204953204D4D33320A000000BC0A0008A3
:100AA0000000002034000000FC090008F00A0008E3
:100AB00034000020040400000C0A000800D8B80527
:100AC00000000000000000000102030406070809FE
:100AD00000000000010203040102030406070809E4
:100AE0000000000000000000000000000000000006
:04000005080000B53A
:00000001FF
