:020000040800F2
:1000000030040020C9000008FB000008FD000008C3
:10001000FF000008010100080301000800000000C3
:1000200000000000000000000000000005010008C2
:10003000070100080000000009010008A9070008E6
:100040000D0100080D0100080D0100080D01000858
:100050000D0100080D0100080D0100080D01000848
:100060000D0100080D0100080D0100080D01000838
:100070000D0100080D0100080D01000841090008EC
:100080000D0100080D0100080D0100080D01000818
:100090000D0100080D0100080D0100080D01000808
:1000A0000D0100080D0100080D0100080D010008F8
:1000B0000D0100080348854600F056F80048004747
:1000C000B513000830040020114880F30888114857
:1000D0000168090E104A9142FFD110481049016091
:1000E00010481149016011480F4901600B4810493F
:1000F00001601048804710480047FEE7FEE7FEE732
:10010000FEE7FEE7FEE7FEE7FEE7FEE7FEE70000AC
:1001100030040020040000001F0000001C100240FA
:100120000000000418680040120000001C68004035
:1001300000000000B1070008B500000830B50B460C
:10014000014600202022012409E00D46D5409D42B1
:1001500005D31D469540491B254695404019154637
:10016000521E002DF1DC30BD064C0125064E05E087
:10017000E36807CC2B430C3C98471034B442F7D3C8
:10018000FFF79CFFC8140008E8140008FFB583B00F
:100190000C46029400200190002726E000261CE077
:1001A000721C039951430846791CFFF7C7FF0546A7
:1001B000A54201D9281B00E0601B05460298A84211
:1001C00004D90295059806700698077002980028D1
:1001D00002D10120019002E0761C402EE0D300BF46
:1001E0000198002800D002E07F1C042FD6D300BF66
:1001F000029807B0F0BDFCB5024600250026019626
:100200000020002300240096CE7835072D0FCE78ED
:1002100010273E40002E01D08E7835430E78002EF8
:1002200027D01468002021E00126864033460E883E
:100230001E400196019E9E4217D183000F269E40CC
:1002400000962746009EB7433C462E469E403443C8
:10025000CE78282E03D101268640566105E0CE785F
:10026000482E02D1012686401661401C0828DBD3A7
:1002700014600E88FF2E2CDD5468002026E0064610
:1002800008360127B7403B460E881E400196019E66
:100290009E421AD183000F269E4000962746009E5C
:1002A000B7433C462E469E403443CE78282E04D198
:1002B000064608360127B7405761CE78482E04D14C
:1002C000064608360127B7401761401C0828D6D3D8
:1002D0005460FCBDF0B5002300244D07EE0E15461A
:1002E000B5402B46CD10002D0BD1056A4E07F70EF9
:1002F0000F26BE40B5430562056A1D432C460462C5
:100300000AE0456A4E07F70E0F26BE40B543456228
:10031000456A1D432C464462F0BD4161704701614E
:100320007047000010B57D21C90010480068FFF734
:1003300005FF0446601E0E49884201D901200CE0E9
:10034000601E0C4948610321081F00F04DF8002091
:1003500008498861072008610020002801D000BFFB
:10036000FEE70021481E00F03FF810BD000000200D
:10037000FFFFFF0000E000E000218278002A27D084
:10038000184A03231B02D21803789B109B00D158F4
:1003900002789207D30EFF229A400B4693431946E8
:1003A00042789207120E03789B07DB0E9A401143A6
:1003B0000C4A03231B02D21803789B109B00D150D8
:1003C0000278D306DB0E01229A40064B1A6007E042
:1003D0000278D306DB0E01229A40024B80331A606A
:1003E0007047000000E100E010B5002819DA1A4A51
:1003F00003071B0F083B9B089B00D2588307DC0EAA
:10040000FF23A3409A438B071B0E8407E40EA340EF
:100410001A43114B0407240F083CA408A4001A51E6
:1004200018E00E4A03231B02D21883089B00D258FF
:100430008307DC0EFF23A3409A438B071B0E840720
:10044000E40EA3401A43054B032424021B1984081D
:10045000A4001A5110BD00001CED00E000E100E016
:1004600008B51B216846017001218170002141708F
:10047000FFF782FF08BD0000002905D0054A526938
:100480000243044B5A6104E0024A52698243014B21
:100490005A61704700100240002905D0054AD26910
:1004A0000243044BDA6104E0024AD2698243014B01
:1004B000DA61704700100240002905D0054A126930
:1004C0000243044B1A6104E0024A12698243014B61
:1004D0001A61704700100240002905D0054A926950
:1004E0000243044B9A6104E0024A92698243014B41
:1004F0009A61704700100240002905D0054AD26871
:100500000243044BDA6004E0024AD2688243014BA2
:10051000DA60704700100240FEB504460025002650
:100520000020019000900027344840680C210840CA
:100530000546042D02D1324820603BE0082D32D11F
:100540002E480068800E461C2C48006807210905CB
:100550000840000D401C019028484068690308408D
:1005600000900098002807D1264971430846019958
:10057000FFF7E4FD20601DE02048406801214904A8
:100580000840002807D02049714308460199FFF729
:10059000D5FD20600EE01A49714308460199FFF726
:1005A000CDFD206006E00C2D02D11848206001E04E
:1005B0001348206011484068F021084005462D0985
:1005C0001348475D2068F84060600C484068072188
:1005D0000902084005462D0A0D48475D6068F8404D
:1005E000A06006484068C90008400546ED0A084872
:1005F000475D6068F840E060FEBD0000001002400A
:1006000000127A00001BB70000093D00409C00006A
:100610001400002010B500F001F810BD7FB50020D7
:100620000390029059480068012109040843574982
:10063000086000BF55480068012149040840029045
:100640000398401C03900298002804D10521090258
:1006500003988842EED14D480068012149040840C2
:10066000002809D0012002907D25ED0000BF28461A
:100670006D1E0028FBD101E00020029002980128A5
:100680007ED143484349086043480068102108432D
:100690004149086008460068C008C00008603D493C
:1006A0000968481E3D49FFF749FD04463A4800687D
:1006B0002043394908603548406834494860084655
:1006C00040684860334800683549884207D92F4858
:1006D00040680121890208432C49486006E02B4804
:1006E000406801218902084328494860274840683A
:1006F000032109048843254948600846006800032F
:10070000000B0860084640680121090408431F499E
:1007100048606B4601AA1F4801682248FFF736FD72
:100720001A4800680003000B1849086069460879F8
:1007300080060978090508431449096808431349E4
:100740000860084600680121090608430F4908604F
:1007500000BF0E4800680121490608400028F8D073
:100760000A48406880088000084948600846406898
:10077000022108430549486000BF0448406800E082
:1007800003E00C2108400828F7D17FBD001002408B
:1007900000D8B805000000200020024000366E019D
:1007A0000051250200127A0010B500F0F7FA10BDD2
:1007B00010B5154800680121084313490860084630
:1007C00040681249084010494860084600681049CE
:1007D00008400D49086008460068012189048843E3
:1007E00009490860084640687F2109048843064992
:1007F0004860084600680003000B08609F20000462
:100800008860FFF707FF10BD001002400000FFF0F6
:10081000FFFFF6FEF0B50C4600210025066A0B4FDF
:100820003E4006628669B1B2066AB5B2074EF23E34
:1008300031401E05360C16433143044E093E354007
:1008400001262643354381610562F0BDFEFF0000AD
:10085000F8B50C460021002500260096066A0E4FCA
:100860003E4006628669B1B2066AB5B22605360C0C
:1008700000960A4E31401E07360C31431606360CE0
:100880003143054E903E35401027009E3E43354390
:1008900081610562F8BD0000EFFF0000FF0C000061
:1008A000F8B50C460021002500260096066A0D4F7B
:1008B0003E400662C669B1B2066AB5B22606360C7B
:1008C0000096084E0D3631401E05360C1643314356
:1008D000054E3540FF270137009E3E433543C16139
:1008E0000562F8BDFFFE0000FFF50000F8B50C46FC
:1008F0000021002500260096066A0E4F3E40066243
:10090000C669B1B2066AB5B22607360C00960A4E21
:1009100031401606360C31431E07360C3143074E64
:10092000354001273F03009E3E433543C1610562C8
:10093000F8BD0000FFEF0000FF0C0000FF5F0000AB
:1009400070470000002904D0026880231A43026027
:1009500003E00268014B1A40026070477FFF00000D
:10096000002904D0026801231A43026003E00268F0
:10097000014B1A4002607047FEFF0000002905D0BD
:10098000426C0123DB031A43426403E0426C5204CD
:10099000520C42647047000010B504462B48844254
:1009A00008D10121C014FFF7A7FD0021E014FFF7D3
:1009B000A3FD4AE001208007844208D101210846B6
:1009C000FFF77AFD00210120FFF776FD3DE020488A
:1009D000844208D101210220FFF76EFD0021022090
:1009E000FFF76AFD31E01B48844208D10121401421
:1009F000FFF782FD00216014FFF77EFD25E0164819
:100A0000844209D101210804FFF756FD002101208D
:100A10000004FFF751FD18E01048844209D101217C
:100A20004804FFF769FD002101204004FFF764FD41
:100A30000BE00B48844208D101218804FFF75CFDDC
:100A4000002101208004FFF757FD10BD002C01405C
:100A50000004004000080140004001400044014003
:100A600000480140F0B50C460021002500268768AB
:100A7000B9B28769BDB2076ABEB20A4F39400F46A4
:100A800027433946084F3D40FF2702373D43054F76
:100A9000A33F3E401F053F0C17433E4381608561E5
:100AA0000662F0BDF8FF0000FCFC000070B50546D2
:100AB0000C46208800280AD12389A288618828460C
:100AC000FFF7A8FEE188284600F0F4F825E020882A
:100AD00004280AD12389A28861882846FFF7B8FE36
:100AE000E188284600F0F0F817E0208808280AD1AD
:100AF0002389A28861882846FFF7D2FEE18828462C
:100B000000F0EEF809E02389A28861882846FFF703
:100B1000EDFEE188284600F0EDF870BD002101806F
:100B20004180012181800021C18001817047000046
:100B300070B5002400220023056A1D4E3540056271
:100B4000056AAAB24568ABB28569ACB2184D6F3D73
:100B50002C40B51E2C400D882C43751E2A400D8953
:100B60002A434D882A43134DA84208D0124DA8426B
:100B700005D0124DA84202D0114DA84212D10C4D01
:100B8000ED1F2A404D892A43094DED1E2A408D88CC
:100B90002A43074DFF3D2B400A4D2B408D892B43A7
:100BA000CD892B4343608461CD884563026270BD6B
:100BB000FEFF0000002C01400044014000480140BD
:100BC00000080140FFFD00000A460021836999B238
:100BD000034B19400B4613431946816170470000CF
:100BE000F7FF000070B5002400220023056A1F4EA5
:100BF00035400562056AAAB24568ABB2C569ACB2B8
:100C00001A4D90352C40194DFD352C400D882C4344
:100C1000174D2A400D7A2D062D0C2A438D782D066E
:100C20002D0C2A43134DA84202D0134DA84217D1D0
:100C3000124D2A408D7A2D062D0C2A43104D2A4044
:100C40000D792D062D0C2A430E4D2B400E4D2B40B9
:100C50008D892D052D0C2B43CD892D052D0C2B4376
:100C60004360C461CD88C563026270BDFFFE0000B1
:100C7000FFFD0000002C014000080140FFF70000CC
:100C8000FFFB0000FFEF0000FFDF00000A4600212D
:100C9000C36999B2034B19400B4613431946C1610E
:100CA00070470000F7FF000041637047C163704761
:100CB000416270478269034B1A40826182690A432C
:100CC00082617047F3FF00008269044B1A40826121
:100CD00082690B061B0C1A4382617047FFF3000008
:100CE000C269034B1A40C261C2690A43C2617047BC
:100CF000F3FF0000C269044B1A40C261C2690B06CF
:100D00001B0C1A43C2617047FFF300000022036806
:100D10009AB2164B984209D001239B07984205D0FE
:100D2000134B984202D0134B984204D1124B1A40F5
:100D30008B8813439AB2114B1A408B8913439AB292
:100D400002608B68C3620B688362084B984208D0CC
:100D5000084B984205D00A4B984202D0094B984262
:100D600001D10B7C0363012343617047002C0140D8
:100D700000040040000801408FFF0000FFFC00005D
:100D800000440140004801400349816000210160A6
:100D9000C160416001747047FFFF000004480068B3
:100DA000002804D002480068401E014908607047CE
:100DB00024000020002904D0826901231A438261A3
:100DC00003E08269014B1A4082617047FEFF000018
:100DD0000246002093680B40002B01D0012000E068
:100DE00000207047002A03D003690B43036102E02F
:100DF00003698B4303617047F0B587B004460D4625
:100E0000002600200690059000272746E669FF216E
:100E1000D031304688430646A888E98808432989A6
:100E200008430643E661A66976097601A8896989BF
:100E300008430643A66101A8FFF76EFB0C488742F2
:100E400002D10398069001E004980690296806985C
:100E5000FFF774F9060929680698FFF76FF900078C
:100E6000000F059026620598606207B0F0BD000093
:100E700000440040CAB202607047000010B586B05E
:100E8000044601214804FFF7F7FA01220921C806A8
:100E9000FFF720FA01220A210920C006FFF71AFAFB
:100EA0000121490268468182032181751821C1759B
:100EB00005A90920C006FFF79EF9012189026846AD
:100EC00081820421C17505A90920C006FFF793F9A5
:100ED00001218803FFF700FB01943021684601815E
:100EE00000214181818101821821C18101A9074826
:100EF000FFF782FF012202210448FFF773FF01215F
:100F00000248FFF757FF06B010BD0000003801404F
:100F100010B5044621460548FFF7ACFF00BF01218C
:100F20000248FFF755FF0028F9D010BD00380140F6
:100F30000FB410B503A9044B044A029800F018F846
:100F400010BC08BC04B01847ED10000828000020B1
:100F500002E008C8121F08C1002AFAD17047704782
:100F6000002001E001C1121F002AFBD170470000E0
:100F7000FFB58DB00446002506E025280AD0109A5A
:100F80000F999047641C6D1C20780028F5D12846E5
:100F900011B0F0BD00270121484A009700E0074347
:100FA000641C23780846203B98401042F7D12078F3
:100FB0002E2817D1042007436078641C2A280CD1FE
:100FC0000E98641C02C800910E900BE000990A2252
:100FD000514330394018641C009020780146303964
:100FE0000929F3D920780028D1D0642808D06928AD
:100FF00006D075281ED0109A0F9990476D1C5BE0A3
:101000000A200E99019001C90E91002802DA40428F
:101010002D2102E0390504D52B216A4611720121E8
:1010200003E0F90704D02021F7E70BAE0B910DE0A8
:101030000021FAE70A200E99019001C90E91F7E705
:101040000199FFF77BF83031761E31700028F7D117
:1010500003A8801B20300190780701D5009801E09B
:10106000012000900199884201DD401A00E0002033
:101070000027009006E002A8109AC05D0F999047E3
:101080006D1C7F1C0B988742F5DB04E0109A302022
:101090000F9990476D1C0099481E00900029F5DCBF
:1010A00005E03078109A761C0F9990476D1C0199D5
:1010B000481E01900029F4DC641C65E70928010042
:1010C00070B504460D462946204600F029F9294608
:1010D000204600F0AFF970BD0349086000BF024927
:1010E00009680029FBD170472400002070B5044630
:1010F0000D46E0B2FFF70CFF00BF01210348FFF7E8
:1011000067FE0028F9D0204670BD0000003801407D
:1011100001218907496A08B2002101229207516220
:101120007047000070B58AB004460D46164601218E
:101130004803FFF7D1F905A8FFF726FE07950594A8
:10114000002008900690002108A8017105A9164802
:10115000FFF7DCFD6021684681800121C180042108
:101160000181468100218181C181FF2101310182FC
:101170000021418201A90C48FFF734FD08210A48EB
:10118000FFF784FD01A90848FFF7D2FC08210648B3
:10119000FFF71AFD01210448FFF7D4FB01210248A3
:1011A000FFF7ECFB0AB070BD0008014000B589B044
:1011B000012103204004FFF75FF902220F210920DB
:1011C000C006FFF787F8022203212548FFF782F8BF
:1011D0000121C90368460184042108A8C17008A937
:1011E0000920C006FFF707F808216846018408A90E
:1011F0001B48FFF700F801210846FFF74DF90120D1
:101200008007FFF7C9FB03A8FFF7BEFD002003908E
:10121000401E059000200690049003A9012080073D
:10122000FFF774FD00231A46032101208007FFF712
:1012300019FC6846FFF772FC0A216846018169467D
:1012400001208007FFF732FC002101208007FFF713
:101250002FFD01218807FFF783FB09B000BD0000C7
:10126000000400481CB50121C804FFF705F901215D
:10127000C90268468180032181711021C17101A9D1
:101280001D48FEF7B8FF012189026846818001A947
:101290001948FEF7B0FF032206211748FFF71AF896
:1012A000032208211448FFF715F840216846018001
:1012B000032181701821C17069460F48FEF79BFF1A
:1012C000FF2101316846018069460B48FEF793FF14
:1012D000012189020848FFF720F80121C9020648C8
:1012E000FFF71BF840210448FFF717F8FF210131F1
:1012F0000148FFF712F81CBD0008004810B5FFF7C1
:10130000B1FF002204490C20FFF70CFF0021034825
:10131000FFF726FB10BD0000E703000000080140B6
:1013200070B504460D46012D13D17D20C0008442C6
:101330000FDC1E48FFF722FBE9021D48FEF7EDFF18
:1013400021461A48FFF7B0FC01211848FFF708FBB7
:101350002BE0681C002817D17D20C000844213DCDC
:101360000121C9021248FEF7DAFF01210F48FFF7F9
:1013700005FB7D20C000011B0C48FFF795FC0121F7
:101380000A48FFF7EDFA10E00121C9020848FEF70C
:10139000C4FF00210548FFF787FC00210348FFF741
:1013A000EDFA00210148FFF7DBFA70BD00080140AB
:1013B00000080048FEF7B6FFFFF752F8E1204002B0
:1013C000FFF75CFDFFF79AFFFFF7F0FE01213220E7
:1013D000FFF7A6FF0021C943322000F02BF87D2043
:1013E000C000FFF779FE00213220FFF799FF0021AE
:1013F000322000F01FF87D20C000FFF76DFE0021B5
:10140000C9433220FFF75CFE09E09620FFF764FE37
:10141000FFF77EFE0446214601A0FFF789FDF4E7B1
:101420006261636B3D25640A7461726765743D3067
:101430000A00000070B504460D46012D13D17D2031
:10144000C00084420FDC1E48FFF798FAA9021D482D
:10145000FEF763FF21461A48FFF728FC01211848D0
:10146000FFF77EFA2BE0681C002817D17D20C00012
:10147000844213DC01211248FFF780FA012189021E
:101480001048FEF74CFF7D20C000011B0C48FFF701
:101490000DFC01210A48FFF763FA10E001218902DF
:1014A0000848FEF73AFF00210548FFF767FA0021D8
:1014B0000348FFF7FBFB00210148FFF751FA70BD1D
:1014C0000008014000080048E8140008000000205F
:1014D0002C000000500F0008141500082C000020FC
:1014E00004040000600F000800D8B80500000000E8
:1014F00000000000010203040607080900000000C4
:1015000001020304010203040607080900000000A9
:0415100000000000D7
:04000005080000B53A
:00000001FF
