:020000040800F2
:1000000020040020C9000008FB000008FD000008D3
:10001000FF000008010100080301000800000000C3
:1000200000000000000000000000000005010008C2
:10003000070100080000000009010008DD060008B3
:100040000D0100080D0100080D0100080D01000858
:100050000D010008F90100080D0100080D0100085C
:100060000D0100080D0100080D0100080D01000838
:100070000D0100080D0100080D0100080D01000828
:100080000D0100080D0100080D0100080D01000818
:100090000D0100080D0100080D0100080D01000808
:1000A0000D0100080D0100080D0100080D010008F8
:1000B0000D0100080348854600F056F80048004747
:1000C0003108000820040020114880F308881148F6
:1000D0000168090E104A9142FFD110481049016091
:1000E00010481149016011480F4901600B4810493F
:1000F00001601048804710480047FEE7FEE7FEE732
:10010000FEE7FEE7FEE7FEE7FEE7FEE7FEE70000AC
:1001100020040020040000001F0000001C1002400A
:100120000000000418680040120000001C68004035
:1001300000000000E5060008B500000830B50B46D9
:10014000014600202022012409E00D46D5409D42B1
:1001500005D31D469540491B254695404019154637
:10016000521E002DF1DC30BD064C0125064E05E087
:10017000E36807CC2B430C3C98471034B442F7D3C8
:10018000FFF79CFF6408000884080008FFB583B0EF
:100190000C46029400200190002726E000261CE077
:1001A000721C039951430846791CFFF7C7FF0546A7
:1001B000A54201D9281B00E0601B05460298A84211
:1001C00004D90295059806700698077002980028D1
:1001D00002D10120019002E0761C402EE0D300BF46
:1001E0000198002800D002E07F1C042FD6D300BF66
:1001F000029807B0F0BD000010B5012000F028F80B
:10020000012819D10D480078002801D1012000E013
:1002100000200A49087008460078012804D18102AC
:10022000074800F0DEF804E001218902044800F0EC
:10023000DAF8012000F006F810BD000014000020DC
:100240000004004801494861704700000004014073
:10025000014600200022074B1B680B401A46054B45
:100260005B690B40002B03D0002A01D0012000E085
:100270000020704700040140002121498279002AB2
:1002800035D00A46126803689A430B461A600A463C
:10029000526803689A430B465A60027951180A68FB
:1002A00003681A430A60164A926803689A43144B1B
:1002B0009A601A46D26803689A43114BDA60427911
:1002C000102A0CD11A46926803681A430C4B9A60A4
:1002D0001A46D26803681A43094BDA600EE00849EF
:1002E000427951180A6803681A430A6006E0044913
:1002F000027951180A6803689A430A60704700003F
:1003000000040140FCB502460025002601960020AD
:10031000002300240096CE7835072D0FCE781027C5
:100320003E40002E01D08E7835430E78002E27D027
:100330001468002021E00126864033460E881E40C6
:100340000196019E9E4217D183000F269E40009683
:100350002746009EB7433C462E469E403443CE7807
:10036000282E03D101268640566105E0CE78482E1E
:1003700002D1012686401661401C0828DBD3146098
:100380000E88FF2E2CDD5468002026E00646083635
:100390000127B7403B460E881E400196019E9E42B3
:1003A0001AD183000F269E4000962746009EB74331
:1003B0003C462E469E403443CE78282E04D1064635
:1003C00008360127B7405761CE78482E04D106463B
:1003D00008360127B7401761401C0828D6D354605F
:1003E000FCBD4161704701617047000010B57D217F
:1003F000C90010480068FFF7A1FE0446601E0E49C0
:10040000884201D901200CE0601E0C49486103219B
:10041000081F00F04DF80020084988610720086196
:100420000020002801D000BFFEE70021481E00F098
:100430003FF810BD00000020FFFFFF0000E000E0DB
:1004400000218278002A27D0184A03231B02D218E1
:1004500003789B109B00D15802789207D30EFF229D
:100460009A400B469343194642789207120E03783E
:100470009B07DB0E9A4011430C4A03231B02D21840
:1004800003789B109B00D1500278D306DB0E01222B
:100490009A40064B1A6007E00278D306DB0E012271
:1004A0009A40024B80331A607047000000E100E080
:1004B00010B5002819DA1A4A03071B0F083B9B08DE
:1004C0009B00D2588307DC0EFF23A3409A438B077F
:1004D0001B0E8407E40EA3401A43114B0407240F9C
:1004E000083CA408A4001A5118E00E4A03231B027A
:1004F000D21883089B00D2588307DC0EFF23A34049
:100500009A438B071B0E8407E40EA3401A43054B46
:10051000032424021B198408A4001A5110BD0000F2
:100520001CED00E000E100E0002905D0054A526919
:100530000243044B5A6104E0024A52698243014B70
:100540005A6170470010024010B500F001F810BD6C
:100550007FB50020039002905948006801210904EA
:1005600008435749086000BF554800680121490405
:10057000084002900398401C03900298002804D180
:100580000521090203988842EED14D4800680121F7
:1005900049040840002809D0012002907D25ED0083
:1005A00000BF28466D1E0028FBD101E0002002900C
:1005B000029801287ED143484349086043480068B7
:1005C000102108434149086008460068C008C0007F
:1005D00008603D490968481E3D49FFF7AFFD0446E4
:1005E0003A48006820433949086035484068344932
:1005F000486008464068486033480068354988428A
:1006000007D92F4840680121890208432C494860D6
:1006100006E02B48406801218902084328494860C8
:100620002748406803210904884325494860084653
:1006300000680003000B08600846406801210904B7
:1006400008431F4948606B4601AA1F4801682248B9
:10065000FFF79CFD1A4800680003000B184908606A
:10066000694608798006097809050843144909682C
:100670000843134908600846006801210906084339
:100680000F49086000BF0E48006801214906084074
:100690000028F8D00A48406880088000084948606F
:1006A00008464068022108430549486000BF0448E5
:1006B000406800E003E00C2108400828F7D17FBD26
:1006C0000010024000D8B8050000002000200240C1
:1006D00000366E010051250200127A0010B500F0BC
:1006E00033F810BD10B515480068012108431349BF
:1006F00008600846406812490840104948600846AA
:100700000068104908400D4908600846006801214A
:100710008904884309490860084640687F21090424
:10072000884306494860084600680003000B0860DB
:100730009F2000048860FFF707FF10BD00100240F3
:100740000000FFF0FFFFF6FE04480068002804D018
:1007500002480068401E01490860704718000020E8
:1007600002E008C8121F08C1002AFAD1704770477A
:10077000002001E001C1121F002AFBD170470000D8
:100780000349086000BF024909680029FBD170478E
:100790001800002008B501218804FFF7C5FE0121DB
:1007A000684601804821C17069460248FFF7AAFDEA
:1007B00008BD00000004004810B5FFF7EBFF00F093
:1007C00001F810BD0EB501200190002168460172AC
:1007D0000C2141720121817201A8FFF74DFD052115
:1007E000684601700021417001218170FFF728FEE9
:1007F0000EBD000008B5012103208004FFF794FE20
:10080000102168460180012181701021C170694664
:100810000548FFF777FD0121890268460180694696
:100820000248FFF76FFD08BD0008004800040048BB
:10083000FFF7DCFDFFF7DEFFFFF7BEFF0FE0102143
:100840000748FFF7D0FDFF20F530FFF799FF102193
:100850000348FFF7C6FDFF20F530FFF791FFEEE7F5
:100860000008004884080008000000201C00000068
:1008700060070008A00800081C0000200404000015
:100880007007000800D8B805000000000000000054
:100890000102030406070809000000000000000030
:04000005080000B53A
:00000001FF
