:020000040800F2
:1000000038050020C9000008FB000008FD000008BA
:10001000FF000008010100080301000800000000C3
:1000200000000000000000000000000005010008C2
:10003000070100080000000009010008C1090008CC
:10004000A50C00080D0100080D0100080D010008B5
:100050000D0100080D0100080D0100080D01000848
:100060000D0100080D010008F90100080D0100084C
:100070000D0100080D0100080D0100080D01000828
:100080000D0100080D0100080D0100080D01000818
:100090000D0100080D0100080D0100080D01000808
:1000A0000D0100080D0100080D010008450A0008B7
:1000B0000D0100080348854600F056F80048004747
:1000C000110E000838050020114880F308881148F7
:1000D0000168090E104A9142FFD110481049016091
:1000E00010481149016011480F4901600B4810493F
:1000F00001601048804710480047FEE7FEE7FEE732
:10010000FEE7FEE7FEE7FEE7FEE7FEE7FEE70000AC
:1001100038050020040000001F0000001C100240F1
:100120000000000418680040120000001C68004035
:1001300000000000C9090008B500000830B50B46F2
:10014000014600202022012409E00D46D5409D42B1
:1001500005D31D469540491B254695404019154637
:10016000521E002DF1DC30BD064C0125064E05E087
:10017000E36807CC2B430C3C98471034B442F7D3C8
:10018000FFF79CFF7C0E00089C0E0008FFB583B0B3
:100190000C46029400200190002726E000261CE077
:1001A000721C039951430846791CFFF7C7FF0546A7
:1001B000A54201D9281B00E0601B05460298A84211
:1001C00004D90295059806700698077002980028D1
:1001D00002D10120019002E0761C402EE0D300BF46
:1001E0000198002800D002E07F1C042FD6D300BF66
:1001F000029807B0F0BD000010B5202000F06CF8A8
:10020000002806D0202000F007F81021014800F057
:10021000B1F910BD0008004801494860704700006E
:1002200000000240002904D0026801231A43026042
:1002300003E00268520852000260704701684908F2
:10024000490001600021016041608160C160214975
:10025000884208D11F49083949680F2211431D4AB5
:10026000083A516035E01B491431884208D11949D8
:1002700008394968F0221143164A083A516028E0CB
:1002800014492831884209D11249083949680F2296
:10029000120211430F4A083A51601AE00D493C31ED
:1002A000884209D10B49083949680F2212031143CA
:1002B000084A083A51600CE006495031884208D19A
:1002C0000449083949680F2212041143014A083AC7
:1002D0005160704708000240014600200022054B93
:1002E0001A6813460B40002B01D0012000E00020CB
:1002F0007047000000000240002A03D003680B434F
:10030000036002E003688B430360704710B500226E
:1003100002680D4B1A400C6A8B6823430C69234317
:100320004C6923438C692343CC6923434C6A2343A0
:100330008C6A23431A430260CB6843600B68836076
:100340004B68C36010BD00000F80FFFF00B58DB08B
:100350001948FFF773FF0121084600F0B9F9174863
:100360000290174803901020049020200590402010
:100370000690802007900020089009900A900B902A
:10038000012080030C9002A90B48FFF7BFFF0A2150
:100390006846017101214171817101A800F018F9CD
:1003A000012202210448FFF7A7FF01210248FFF7BD
:1003B00039FF0DB000BD00001C000240B400002059
:1003C00030000020002121498279002A35D00A46D8
:1003D000126803689A430B461A600A46526803681B
:1003E0009A430B465A60027951180A6803681A4307
:1003F0000A60164A926803689A43144B9A601A4638
:10040000D26803689A43114BDA604279102A0CD102
:100410001A46926803681A430C4B9A601A46D268CF
:1004200003681A43094BDA600EE008494279511813
:100430000A6803681A430A6006E004490279511801
:100440000A6803689A430A6070470000000401408C
:10045000FCB502460025002601960020002300245A
:100460000096CE7835072D0FCE7810273E40002E0F
:1004700001D08E7835430E78002E27D014680020E6
:1004800021E00126864033460E881E400196019EDB
:100490009E4217D183000F269E4000962746009E5D
:1004A000B7433C462E469E403443CE78282E03D197
:1004B00001268640566105E0CE78482E02D10126FD
:1004C00086401661401C0828DBD314600E88FF2E7E
:1004D0002CDD5468002026E0064608360127B74088
:1004E0003B460E881E400196019E9E421AD1830013
:1004F0000F269E4000962746009EB7433C462E4658
:100500009E403443CE78282E04D106460836012773
:10051000B7405761CE78482E04D1064608360127E9
:10052000B7401761401C0828D6D35460FCBDF0B515
:10053000002300244D07EE0E1546B5402B46CD1086
:10054000002D0BD1056A4E07F70E0F26BE40B543AE
:100550000562056A1D432C4604620AE0456A4E079F
:10056000F70E0F26BE40B5434562456A1D432C4633
:100570004462F0BD416170470161704710B57D2153
:10058000C90010480068FFF7D9FD0446601E0E49F7
:10059000884201D901200CE0601E0C49486103210A
:1005A000081F00F04DF80020084988610720086105
:1005B0000020002801D000BFFEE70021481E00F007
:1005C0003FF810BD00000020FFFFFF0000E000E04A
:1005D00000218278002A27D0184A03231B02D21850
:1005E00003789B109B00D15802789207D30EFF220C
:1005F0009A400B469343194642789207120E0378AD
:100600009B07DB0E9A4011430C4A03231B02D218AE
:1006100003789B109B00D1500278D306DB0E012299
:100620009A40064B1A6007E00278D306DB0E0122DF
:100630009A40024B80331A607047000000E100E0EE
:1006400010B5002819DA1A4A03071B0F083B9B084C
:100650009B00D2588307DC0EFF23A3409A438B07ED
:100660001B0E8407E40EA3401A43114B0407240F0A
:10067000083CA408A4001A5118E00E4A03231B02E8
:10068000D21883089B00D2588307DC0EFF23A340B7
:100690009A438B071B0E8407E40EA3401A43054BB5
:1006A000032424021B198408A4001A5110BD000061
:1006B0001CED00E000E100E008B51B216846017078
:1006C0000121817000214170FFF782FF08BD000009
:1006D000002905D0054A52690243044B5A6104E0DF
:1006E000024A52698243014B5A617047001002402E
:1006F000002905D0054AD2690243044BDA6104E0BF
:10070000024AD2698243014BDA617047001002400D
:10071000002905D0054A92690243044B9A6104E01E
:10072000024A92698243014B9A617047001002406D
:10073000FEB5044600250026002001900090002709
:10074000344840680C2108400546042D02D1324847
:1007500020603BE0082D32D12E480068800E461CF8
:100760002C480068072109050840000D401C019035
:10077000284840686903084000900098002807D185
:100780002649714308460199FFF7D8FC20601DE017
:1007900020484068012149040840002807D020492A
:1007A000714308460199FFF7C9FC20600EE01A4921
:1007B000714308460199FFF7C1FC206006E00C2D4B
:1007C00002D11848206001E01348206011484068B9
:1007D000F021084005462D091348475D2068F84080
:1007E00060600C48406807210902084005462D0A50
:1007F0000D48475D6068F840A06006484068C90041
:1008000008400546ED0A0848475D6068F840E0602A
:10081000FEBD00000010024000127A00001BB7006D
:1008200000093D00409C00001400002010B500F0BD
:1008300001F810BD7FB50020039002905948006870
:100840000121090408435749086000BF5548006862
:1008500001214904084002900398401C039002982B
:10086000002804D10521090203988842EED14D48A1
:100870000068012149040840002809D001200290A5
:100880007D25ED0000BF28466D1E0028FBD101E04C
:1008900000200290029801287ED143484349086015
:1008A0004348006810210843414908600846006831
:1008B000C008C00008603D490968481E3D49FFF76F
:1008C0003DFC04463A4800682043394908603548F1
:1008D00040683449486008464068486033480068CA
:1008E0003549884207D92F484068012189020843C9
:1008F0002C49486006E02B484068012189020843E2
:10090000284948602748406803210904884325494D
:100910004860084600680003000B0860084640680D
:100920000121090408431F4948606B4601AA1F487A
:1009300001682248FFF72AFC1A4800680003000BF0
:10094000184908606946087980060978090508434E
:1009500014490968084313490860084600680121E2
:10096000090608430F49086000BF0E4800680121CE
:10097000490608400028F8D00A48406880088000EE
:100980000849486008464068022108430549486014
:1009900000BF0448406800E003E00C21084008283C
:1009A000F7D17FBD0010024000D8B805000000203C
:1009B0000020024000366E010051250200127A002C
:1009C00010B500F033F810BD10B5154800680121CE
:1009D0000843134908600846406812490840104916
:1009E000486008460068104908400D4908600846FC
:1009F0000068012189048843094908600846406865
:100A00007F210904884306494860084600680003BE
:100A1000000B08609F2000048860FFF707FF10BDEF
:100A2000001002400000FFF0FFFFF6FE04480068DF
:100A3000002804D002480068401E01490860704741
:100A40002C00002010B50221184800F04DF80128B4
:100A50002AD1164800F09AF81549164A1278885497
:100A600014480078401C1349087008460078401E5E
:100A70000F49085CFF2810D108460078FE2808D1ED
:100A80000C4801780A4800F07BF9002009490870F9
:100A90000AE000200749087006E0064800780628AA
:100AA00002D100200349087010BD00000038014049
:100AB000240000202A000020002904D0826901239C
:100AC0001A43826103E08269014B1A4082617047D8
:100AD000FEFF00000246002093680B40002B01D06F
:100AE000012000E00020704702460020D3680B4040
:100AF000002B01D0012000E000207047002A03D025
:100B000003690B43036102E003698B430361704790
:100B1000F0B587B004460D460026002006900590EB
:100B200000272746E669FF21D03130468843064634
:100B3000A888E9880843298908430643E661A6692D
:100B400076097601A889698908430643A66101A848
:100B5000FFF7EEFD0C48874202D10398069001E0B2
:100B60000498069029680698FFF7E8FA06092968AC
:100B70000698FFF7E3FA0007000F05902662059834
:100B8000606207B0F0BD00000044004001464868C4
:100B9000C0B27047CAB202607047000010B586B09C
:100BA000044601214804FFF793FD01220921C806EC
:100BB000FFF7BDFC01220A210920C006FFF7B7FCA0
:100BC0000121490268468182032181751821C1757E
:100BD00005A90920C006FFF73BFC012189026846F0
:100BE00081820421C17505A90920C006FFF730FCE8
:100BF00001218803FFF78CFD0194302168460181B3
:100C000000214181818101821821C18101A9074808
:100C1000FFF77EFF012202210448FFF76FFF012149
:100C20000248FFF749FF06B010BD00000038014040
:100C300010B5044603E02078641C00F005F8207825
:100C40000028F8D110BD000010B504462146054823
:100C5000FFF7A0FF00BF01210248FFF73BFF00287C
:100C6000F9D010BD0038014000200149886070476C
:100C7000002C004080210143014A116070470000B0
:100C8000002C004003484068012149020843014903
:100C900048607047002C004001488068C0B270472F
:100CA000002C004010B5FFF7F7FF012804D17E208B
:100CB00000F004F8FFF7D8FF10BD00004106490E10
:100CC000014A116070470000002C00400021064AD4
:100CD0005268FF2381339A4311460A460243114664
:100CE000014A516070470000002C00400021054A75
:100CF0005268D109C9014206520E1143014A51609E
:100D000070470000002C004070B505460C460121DC
:100D1000C802FFF7EDFCFF208130FFF7D7FF204628
:100D2000FFF7E4FFFFF7AEFF2846FFF7A3FF70BD14
:100D300010B5024A024900F014F810BD850D0008F4
:100D4000B000002002E008C8121F08C1002AFAD132
:100D500070477047002001E001C1121F002AFBD13B
:100D60007047F8B516460F460446002503E039469D
:100D7000B047641C6D1C20780028F8D12846F8BDC7
:100D80007047000070B504460D46E0B2FFF75CFF07
:100D900000BF01210348FFF79DFE0028F9D020463F
:100DA00070BD0000003801400EB501200006019022
:100DB0000021684601720121817201A8FFF702FB40
:100DC000002168460170417001218170FFF700FC2D
:100DD0000EBD000008B5012103208004FFF778FC58
:100DE000102168460180012181701021C17069467F
:100DF0000548FFF72DFB01218902684601806946FD
:100E00000248FFF725FB08BD000800480004004821
:100E1000FFF7B4FBFFF7DEFF10210F48FFF7ACFB35
:100E2000012189020D48FFF7A7FBFFF745FCE120F0
:100E30004002FFF7B3FE0AA0FFF7FAFE0BA0FFF790
:100E400077FFFFF7B1FF7F217E20FFF75DFFFFF700
:100E50007DFA00BFFEE700000008004800040048DB
:100E60004920414D2055415254310A0054484953BC
:100E7000204953204D4D33320A0000009C0E0008DB
:100E800000000020B4000000440D0008500F0008CE
:100E9000B400002084040000540D000800D8B805F8
:100EA000000000000000000001020304060708091A
:100EB0000000000001020304010203040607080900
:100EC0000000000000000000000000000403020118
:100ED000080706050C0B0A09100F0E0D141312114A
:100EE000181716151C1B1A19201F1E1D242322213A
:100EF000282726252C2B2A29302F2E2D343332312A
:100F0000383736353C3B3A39403F3E3D4443424119
:100F1000484746454C4B4A49504F4E4D5453525109
:100F2000585756555C5B5A59605F5E5D64636261F9
:100F3000686766656C6B6A69706F6E6D74737271E9
:100F4000787776757C7B7A79807F7E7D00000000E3
:04000005080000B53A
:00000001FF
